{
  "contractName": "AccountFactoryV2",
  "abi": [
    {
      "constant": false,
      "inputs": [],
      "name": "stop",
      "outputs": [],
      "payable": false,
      "stateMutability": "nonpayable",
      "type": "function"
    },
    {
      "constant": false,
      "inputs": [
        {
          "name": "owner_",
          "type": "address"
        }
      ],
      "name": "setOwner",
      "outputs": [],
      "payable": false,
      "stateMutability": "nonpayable",
      "type": "function"
    },
    {
      "constant": true,
      "inputs": [
        {
          "name": "",
          "type": "address"
        },
        {
          "name": "",
          "type": "uint256"
        }
      ],
      "name": "userToAccounts",
      "outputs": [
        {
          "name": "",
          "type": "address"
        }
      ],
      "payable": false,
      "stateMutability": "view",
      "type": "function"
    },
    {
      "constant": true,
      "inputs": [],
      "name": "accountFactoryV1",
      "outputs": [
        {
          "name": "",
          "type": "address"
        }
      ],
      "payable": false,
      "stateMutability": "view",
      "type": "function"
    },
    {
      "constant": true,
      "inputs": [
        {
          "name": "",
          "type": "address"
        }
      ],
      "name": "isAccountValid",
      "outputs": [
        {
          "name": "",
          "type": "bool"
        }
      ],
      "payable": false,
      "stateMutability": "view",
      "type": "function"
    },
    {
      "constant": true,
      "inputs": [],
      "name": "stopped",
      "outputs": [
        {
          "name": "",
          "type": "bool"
        }
      ],
      "payable": false,
      "stateMutability": "view",
      "type": "function"
    },
    {
      "constant": true,
      "inputs": [],
      "name": "config",
      "outputs": [
        {
          "name": "",
          "type": "address"
        }
      ],
      "payable": false,
      "stateMutability": "view",
      "type": "function"
    },
    {
      "constant": false,
      "inputs": [
        {
          "name": "authority_",
          "type": "address"
        }
      ],
      "name": "setAuthority",
      "outputs": [],
      "payable": false,
      "stateMutability": "nonpayable",
      "type": "function"
    },
    {
      "constant": true,
      "inputs": [],
      "name": "owner",
      "outputs": [
        {
          "name": "",
          "type": "address"
        }
      ],
      "payable": false,
      "stateMutability": "view",
      "type": "function"
    },
    {
      "constant": false,
      "inputs": [],
      "name": "start",
      "outputs": [],
      "payable": false,
      "stateMutability": "nonpayable",
      "type": "function"
    },
    {
      "constant": true,
      "inputs": [],
      "name": "authority",
      "outputs": [
        {
          "name": "",
          "type": "address"
        }
      ],
      "payable": false,
      "stateMutability": "view",
      "type": "function"
    },
    {
      "constant": true,
      "inputs": [],
      "name": "accountMaster",
      "outputs": [
        {
          "name": "",
          "type": "address"
        }
      ],
      "payable": false,
      "stateMutability": "view",
      "type": "function"
    },
    {
      "constant": true,
      "inputs": [
        {
          "name": "",
          "type": "uint256"
        }
      ],
      "name": "accounts",
      "outputs": [
        {
          "name": "",
          "type": "address"
        }
      ],
      "payable": false,
      "stateMutability": "view",
      "type": "function"
    },
    {
      "inputs": [
        {
          "name": "_config",
          "type": "address"
        },
        {
          "name": "_accountMaster",
          "type": "address"
        },
        {
          "name": "_accountFactoryV1",
          "type": "address"
        }
      ],
      "payable": false,
      "stateMutability": "nonpayable",
      "type": "constructor"
    },
    {
      "anonymous": false,
      "inputs": [
        {
          "indexed": true,
          "name": "user",
          "type": "address"
        },
        {
          "indexed": true,
          "name": "account",
          "type": "address"
        },
        {
          "indexed": false,
          "name": "by",
          "type": "address"
        }
      ],
      "name": "LogAccountCreated",
      "type": "event"
    },
    {
      "anonymous": false,
      "inputs": [
        {
          "indexed": true,
          "name": "authority",
          "type": "address"
        }
      ],
      "name": "LogSetAuthority",
      "type": "event"
    },
    {
      "anonymous": false,
      "inputs": [
        {
          "indexed": true,
          "name": "owner",
          "type": "address"
        }
      ],
      "name": "LogSetOwner",
      "type": "event"
    },
    {
      "anonymous": true,
      "inputs": [
        {
          "indexed": true,
          "name": "sig",
          "type": "bytes4"
        },
        {
          "indexed": true,
          "name": "guy",
          "type": "address"
        },
        {
          "indexed": true,
          "name": "foo",
          "type": "bytes32"
        },
        {
          "indexed": true,
          "name": "bar",
          "type": "bytes32"
        },
        {
          "indexed": false,
          "name": "wad",
          "type": "uint256"
        },
        {
          "indexed": false,
          "name": "fax",
          "type": "bytes"
        }
      ],
      "name": "LogNote",
      "type": "event"
    },
    {
      "constant": false,
      "inputs": [
        {
          "name": "_config",
          "type": "address"
        }
      ],
      "name": "setConfig",
      "outputs": [],
      "payable": false,
      "stateMutability": "nonpayable",
      "type": "function"
    },
    {
      "constant": false,
      "inputs": [
        {
          "name": "_accountMaster",
          "type": "address"
        }
      ],
      "name": "setAccountMaster",
      "outputs": [],
      "payable": false,
      "stateMutability": "nonpayable",
      "type": "function"
    },
    {
      "constant": false,
      "inputs": [
        {
          "name": "_accountFactoryV1",
          "type": "address"
        }
      ],
      "name": "setAccountFactoryV1",
      "outputs": [],
      "payable": false,
      "stateMutability": "nonpayable",
      "type": "function"
    },
    {
      "constant": false,
      "inputs": [
        {
          "name": "_user",
          "type": "address"
        }
      ],
      "name": "newAccount",
      "outputs": [
        {
          "name": "_account",
          "type": "address"
        }
      ],
      "payable": false,
      "stateMutability": "nonpayable",
      "type": "function"
    },
    {
      "constant": false,
      "inputs": [
        {
          "name": "_users",
          "type": "address[]"
        }
      ],
      "name": "batchNewAccount",
      "outputs": [],
      "payable": false,
      "stateMutability": "nonpayable",
      "type": "function"
    },
    {
      "constant": true,
      "inputs": [],
      "name": "getAllAccounts",
      "outputs": [
        {
          "name": "",
          "type": "address[]"
        }
      ],
      "payable": false,
      "stateMutability": "view",
      "type": "function"
    },
    {
      "constant": true,
      "inputs": [
        {
          "name": "_user",
          "type": "address"
        }
      ],
      "name": "getAccountsForUser",
      "outputs": [
        {
          "name": "",
          "type": "address[]"
        }
      ],
      "payable": false,
      "stateMutability": "view",
      "type": "function"
    },
    {
      "constant": true,
      "inputs": [
        {
          "name": "_account",
          "type": "address"
        }
      ],
      "name": "isAccount",
      "outputs": [
        {
          "name": "",
          "type": "bool"
        }
      ],
      "payable": false,
      "stateMutability": "view",
      "type": "function"
    }
  ],
  "bytecode": "0x60806040526001805460a060020a60ff021916905534801561002057600080fd5b50604051606080611a5883398101604081815282516020840151919093015160018054600160a060020a0319163390811790915591929091907fce241d7ca1f669fee44b6fc00b8eba2df3bb514eed0f6f668f8f89096e81ed9490600090a260028054600160a060020a03948516600160a060020a03199182161790915560068054938516938216939093179092556007805491909316911617905561198d806100cb6000396000f30060806040526004361061011c5763ffffffff7c010000000000000000000000000000000000000000000000000000000060003504166303152429811461012157806307da68f51461015e57806308e93d0a1461017557806313af4035146101da578063169b7012146101fb5780631eb9ef911461021f57806320e3dbd41461024057806325ca4c9c146102615780633e0bd52e1461029657806349470bad146102b757806373a6b2be146102cc57806375f12b21146102ed57806379502c55146103025780637a9e5e4b146103175780638da5cb5b146103385780639996eb641461034d578063b5ca87c41461036d578063be9a65551461038e578063bf7e214f146103a3578063f0a72a84146103b8578063f2a40db8146103cd575b600080fd5b34801561012d57600080fd5b50610142600160a060020a03600435166103e5565b60408051600160a060020a039092168252519081900360200190f35b34801561016a57600080fd5b506101736106f8565b005b34801561018157600080fd5b5061018a6107dc565b60408051602080825283518183015283519192839290830191858101910280838360005b838110156101c65781810151838201526020016101ae565b505050509050019250505060405180910390f35b3480156101e657600080fd5b50610173600160a060020a0360043516610a4d565b34801561020757600080fd5b50610142600160a060020a0360043516602435610b04565b34801561022b57600080fd5b5061018a600160a060020a0360043516610b3b565b34801561024c57600080fd5b50610173600160a060020a0360043516610dce565b34801561026d57600080fd5b50610282600160a060020a0360043516610efb565b604080519115158252519081900360200190f35b3480156102a257600080fd5b50610173600160a060020a0360043516610fb8565b3480156102c357600080fd5b506101426110e5565b3480156102d857600080fd5b50610282600160a060020a03600435166110f4565b3480156102f957600080fd5b50610282611109565b34801561030e57600080fd5b5061014261112a565b34801561032357600080fd5b50610173600160a060020a0360043516611139565b34801561034457600080fd5b506101426111ec565b34801561035957600080fd5b5061017360048035602481019101356111fb565b34801561037957600080fd5b50610173600160a060020a03600435166113a2565b34801561039a57600080fd5b506101736114cf565b3480156103af57600080fd5b5061014261159c565b3480156103c457600080fd5b506101426115ab565b3480156103d957600080fd5b506101426004356115ba565b6040805134808252602082018381523693830184905260009384936004359360243593849386933393600160e060020a03198a35169390928a929091606082018484808284376040519201829003965090945050505050a4600254600160a060020a031680151561048e576040805160e560020a62461bcd0281526020600482015260186024820152600080516020611942833981519152604482015290519081900360640190fd5b600654600160a060020a03168015156104df576040805160e560020a62461bcd0281526020600482015260186024820152600080516020611942833981519152604482015290519081900360640190fd5b60015474010000000000000000000000000000000000000000900460ff1615610552576040805160e560020a62461bcd02815260206004820152601960248201527f445353746f703a3a5f20464541545552455f53544f5050454400000000000000604482015290519081900360640190fd5b600654600160a060020a03166105666116e9565b600160a060020a03909116815260405190819003602001906000f080158015610593573d6000803e3d6000fd5b50600254604080517ff09a4016000000000000000000000000000000000000000000000000000000008152600160a060020a038b81166004830152928316602482015290519298508897509087169163f09a40169160448082019260009290919082900301818387803b15801561060957600080fd5b505af115801561061d573d6000803e3d6000fd5b50506005805460018181019092557f036b6384b5eca791c62761152d0c79bb0604c104a5fb6f4eb0703f3154bb3db0018054600160a060020a03808c1673ffffffffffffffffffffffffffffffffffffffff1992831681179093558c1660008181526004602090815260408083208054808901825590845282842001805490951686179094558482526003815290839020805460ff19169095179094558151338152915192955093507eef0c4d7ce8d09e55441711e41dc8f1a6abbe3313f4369ea8094dbf0b7b182092908290030190a35050505050919050565b61070e33600035600160e060020a0319166115e2565b1515610752576040805160e560020a62461bcd02815260206004820152601f6024820152600080516020611922833981519152604482015290519081900360640190fd5b60408051348082526020820183815236938301849052600435936024359384938693339360008035600160e060020a031916949092606082018484808284376040519201829003965090945050505050a450506001805474ff0000000000000000000000000000000000000000191674010000000000000000000000000000000000000000179055565b60606000806000606060006005805490509450600760009054906101000a9004600160a060020a0316600160a060020a03166308e93d0a6040518163ffffffff167c0100000000000000000000000000000000000000000000000000000000028152600401600060405180830381600087803b15801561085b57600080fd5b505af115801561086f573d6000803e3d6000fd5b505050506040513d6000823e601f3d908101601f19168201604052602081101561089857600080fd5b8101908080516401000000008111156108b057600080fd5b820160208101848111156108c357600080fd5b81518560208202830111640100000000821117156108e057600080fd5b505092919050505051935083850192508260405190808252806020026020018201604052801561091a578160200160208202803883390190505b509150600090505b82811015610a44578481101561098257600580548290811061094057fe5b6000918252602090912001548251600160a060020a039091169083908390811061096657fe5b600160a060020a03909216602092830290910190910152610a3c565b600754604080517ff2a40db800000000000000000000000000000000000000000000000000000000815287840360048201529051600160a060020a039092169163f2a40db8916024808201926020929091908290030181600087803b1580156109ea57600080fd5b505af11580156109fe573d6000803e3d6000fd5b505050506040513d6020811015610a1457600080fd5b50518251839083908110610a2457fe5b600160a060020a039092166020928302909101909101525b600101610922565b50949350505050565b610a6333600035600160e060020a0319166115e2565b1515610aa7576040805160e560020a62461bcd02815260206004820152601f6024820152600080516020611922833981519152604482015290519081900360640190fd5b6001805473ffffffffffffffffffffffffffffffffffffffff1916600160a060020a0383811691909117918290556040519116907fce241d7ca1f669fee44b6fc00b8eba2df3bb514eed0f6f668f8f89096e81ed9490600090a250565b600460205281600052604060002081815481101515610b1f57fe5b600091825260209091200154600160a060020a03169150829050565b600160a060020a0380821660008181526004602081905260408083205460075482517f1eb9ef910000000000000000000000000000000000000000000000000000000081529384019590955290516060959194849387938593921691631eb9ef9191602480820192869290919082900301818387803b158015610bbd57600080fd5b505af1158015610bd1573d6000803e3d6000fd5b505050506040513d6000823e601f3d908101601f191682016040526020811015610bfa57600080fd5b810190808051640100000000811115610c1257600080fd5b82016020810184811115610c2557600080fd5b8151856020820283011164010000000082111715610c4257600080fd5b5050929190505050519350838501925082604051908082528060200260200182016040528015610c7c578160200160208202803883390190505b509150600090505b82811015610dc45784811015610cfa57600160a060020a0387166000908152600460205260409020805482908110610cb857fe5b6000918252602090912001548251600160a060020a0390911690839083908110610cde57fe5b600160a060020a03909216602092830290910190910152610dbc565b600754604080517f169b7012000000000000000000000000000000000000000000000000000000008152600160a060020a038a8116600483015288850360248301529151919092169163169b70129160448083019260209291908290030181600087803b158015610d6a57600080fd5b505af1158015610d7e573d6000803e3d6000fd5b505050506040513d6020811015610d9457600080fd5b50518251839083908110610da457fe5b600160a060020a039092166020928302909101909101525b600101610c84565b5095945050505050565b60408051348082526020820183815236938301849052600435936024359384938693339360008035600160e060020a031916949092606082018484808284376040519201829003965090945050505050a4610e3533600035600160e060020a0319166115e2565b1515610e79576040805160e560020a62461bcd02815260206004820152601f6024820152600080516020611922833981519152604482015290519081900360640190fd5b82600160a060020a0381161515610ec8576040805160e560020a62461bcd0281526020600482015260186024820152600080516020611942833981519152604482015290519081900360640190fd5b50506002805473ffffffffffffffffffffffffffffffffffffffff1916600160a060020a03939093169290921790915550565b600160a060020a03811660009081526003602052604081205460ff1680610fb25750600754604080517f25ca4c9c000000000000000000000000000000000000000000000000000000008152600160a060020a038581166004830152915191909216916325ca4c9c9160248083019260209291908290030181600087803b158015610f8557600080fd5b505af1158015610f99573d6000803e3d6000fd5b505050506040513d6020811015610faf57600080fd5b50515b92915050565b60408051348082526020820183815236938301849052600435936024359384938693339360008035600160e060020a031916949092606082018484808284376040519201829003965090945050505050a461101f33600035600160e060020a0319166115e2565b1515611063576040805160e560020a62461bcd02815260206004820152601f6024820152600080516020611922833981519152604482015290519081900360640190fd5b82600160a060020a03811615156110b2576040805160e560020a62461bcd0281526020600482015260186024820152600080516020611942833981519152604482015290519081900360640190fd5b50506006805473ffffffffffffffffffffffffffffffffffffffff1916600160a060020a03939093169290921790915550565b600754600160a060020a031681565b60036020526000908152604090205460ff1681565b60015474010000000000000000000000000000000000000000900460ff1681565b600254600160a060020a031681565b61114f33600035600160e060020a0319166115e2565b1515611193576040805160e560020a62461bcd02815260206004820152601f6024820152600080516020611922833981519152604482015290519081900360640190fd5b6000805473ffffffffffffffffffffffffffffffffffffffff1916600160a060020a03838116919091178083556040519116917f1abebea81bfa2637f28358c371278fb15ede7ea8dd28d2e03b112ff6d936ada491a250565b600154600160a060020a031681565b604080513480825260208201838152369383018490526000936004359360243593849386933393600160e060020a03198a351693928a929190606082018484808284376040519201829003965090945050505050a4600254604080517f9c14ee290000000000000000000000000000000000000000000000000000000081523360048201529051600160a060020a0390921691639c14ee29916024808201926020929091908290030181600087803b1580156112b657600080fd5b505af11580156112ca573d6000803e3d6000fd5b505050506040513d60208110156112e057600080fd5b5051151561135e576040805160e560020a62461bcd02815260206004820152602760248201527f4163636f756e74466163746f72793a3a5f20494e56414c49445f41444d494e5f60448201527f4143434f554e5400000000000000000000000000000000000000000000000000606482015290519081900360840190fd5b600092505b8383101561139b5761138f85858581811061137a57fe5b90506020020135600160a060020a03166103e5565b50600190920191611363565b5050505050565b60408051348082526020820183815236938301849052600435936024359384938693339360008035600160e060020a031916949092606082018484808284376040519201829003965090945050505050a461140933600035600160e060020a0319166115e2565b151561144d576040805160e560020a62461bcd02815260206004820152601f6024820152600080516020611922833981519152604482015290519081900360640190fd5b82600160a060020a038116151561149c576040805160e560020a62461bcd0281526020600482015260186024820152600080516020611942833981519152604482015290519081900360640190fd5b50506007805473ffffffffffffffffffffffffffffffffffffffff1916600160a060020a03939093169290921790915550565b6114e533600035600160e060020a0319166115e2565b1515611529576040805160e560020a62461bcd02815260206004820152601f6024820152600080516020611922833981519152604482015290519081900360640190fd5b60408051348082526020820183815236938301849052600435936024359384938693339360008035600160e060020a031916949092606082018484808284376040519201829003965090945050505050a450506001805474ff000000000000000000000000000000000000000019169055565b600054600160a060020a031681565b600654600160a060020a031681565b60058054829081106115c857fe5b600091825260209091200154600160a060020a0316905081565b6000600160a060020a0383163014156115fd57506001610fb2565b600154600160a060020a038481169116141561161b57506001610fb2565b600054600160a060020a0316151561163557506000610fb2565b60008054604080517fb7009613000000000000000000000000000000000000000000000000000000008152600160a060020a038781166004830152306024830152600160e060020a0319871660448301529151919092169263b700961392606480820193602093909283900390910190829087803b1580156116b657600080fd5b505af11580156116ca573d6000803e3d6000fd5b505050506040513d60208110156116e057600080fd5b50519392505050565b604051610228806116fa833901905600608060405234801561001057600080fd5b506040516020806102288339810160405251600160a060020a03811615156100be57604080517f08c379a0000000000000000000000000000000000000000000000000000000008152602060048201526024808201527f496e76616c6964206d617374657220636f707920616464726573732070726f7660448201527f6964656400000000000000000000000000000000000000000000000000000000606482015290519081900360840190fd5b60008054600160a060020a03909216600160a060020a031990921691909117905561013a806100ee6000396000f30060806040526004361061004b5763ffffffff7c01000000000000000000000000000000000000000000000000000000006000350416634555d5c981146100885780635c60da1b146100af575b73ffffffffffffffffffffffffffffffffffffffff600054163660008037600080366000845af43d6000803e801515610083573d6000fd5b3d6000f35b34801561009457600080fd5b5061009d6100ed565b60408051918252519081900360200190f35b3480156100bb57600080fd5b506100c46100f2565b6040805173ffffffffffffffffffffffffffffffffffffffff9092168252519081900360200190f35b600290565b60005473ffffffffffffffffffffffffffffffffffffffff16905600a165627a7a72305820f42a17be35438b26ef32c8c2a2ca39168cd924450b023add17f63f1883d9336700294453417574683a3a5f2053454e4445525f4e4f545f415554484f52495a4544005574696c733a3a5f20494e56414c49445f414444524553530000000000000000a165627a7a72305820fd4ab82ee3ccaa891cdf60c370ea19e1d874eec5336577171bbde6d4ab3723b10029",
  "source": "pragma solidity 0.4.24;\n\nimport \"./lib/dappsys/DSThing.sol\";\nimport \"./lib/dappsys/DSStop.sol\";\nimport \"./lib/utils/Proxy.sol\";\nimport \"./Account.sol\";\nimport \"./AccountFactory.sol\";\nimport \"./Config.sol\";\nimport \"./Utils.sol\";\n\n/**\n * @author Rohit Soni (rohit@nuofox.com)\n */\n\ncontract AccountFactoryV2 is DSStop, Utils {\n    Config public config;\n    mapping (address => bool) public isAccountValid;\n    mapping (address => address[]) public userToAccounts;\n    address[] public accounts;\n\n    address public accountMaster;\n    AccountFactory public accountFactoryV1;\n\n    constructor\n    (\n        Config _config, \n        address _accountMaster,\n        AccountFactory _accountFactoryV1\n    ) \n    public \n    {\n        config = _config;\n        accountMaster = _accountMaster;\n        accountFactoryV1 = _accountFactoryV1;\n    }\n\n    event LogAccountCreated(address indexed user, address indexed account, address by);\n\n    modifier onlyAdmin() {\n        require(config.isAdminValid(msg.sender), \"AccountFactory::_ INVALID_ADMIN_ACCOUNT\");\n        _;\n    }\n\n    function setConfig(Config _config) external note auth addressValid(_config) {\n        config = _config;\n    }\n\n    function setAccountMaster(address _accountMaster) external note auth addressValid(_accountMaster) {\n        accountMaster = _accountMaster;\n    }\n\n    function setAccountFactoryV1(AccountFactory _accountFactoryV1) external note auth addressValid(_accountFactoryV1) {\n        accountFactoryV1 = _accountFactoryV1;\n    }\n\n\n    function newAccount(address _user)\n        public\n        note\n        addressValid(config)\n        addressValid(accountMaster)\n        whenNotStopped\n        returns \n        (\n            Account _account\n        ) \n    {\n        address proxy = new Proxy(accountMaster);\n        _account = Account(proxy);\n        _account.init(_user, config);\n\n        accounts.push(_account);\n        userToAccounts[_user].push(_account);\n        isAccountValid[_account] = true;\n\n        emit LogAccountCreated(_user, _account, msg.sender);\n    }\n    \n    function batchNewAccount(address[] _users) external note onlyAdmin {\n        for (uint i = 0; i < _users.length; i++) {\n            newAccount(_users[i]);\n        }\n    }\n\n    function getAllAccounts() public view returns (address[]) {\n        uint accLengthV2 = accounts.length; // 1\n        uint accLengthV1 = accountFactoryV1.getAllAccounts().length; // 1\n        uint accLength = accLengthV2 + accLengthV1; // 2\n\n        address[] memory accs = new address[](accLength);\n\n        for(uint i = 0; i < accLength; i++){\n            if(i < accLengthV2) { \n                accs[i] = accounts[i];\n            } else {\n                accs[i] = accountFactoryV1.accounts(i - accLengthV2);\n            }\n        }\n\n        return accs;\n    }\n\n    function getAccountsForUser(address _user) public view returns (address[]) {\n        uint userToAccLengthV2 = userToAccounts[_user].length;\n        uint userToAccLengthV1 = accountFactoryV1.getAccountsForUser(_user).length;\n        uint userToAccLength = userToAccLengthV2 + userToAccLengthV1;\n        \n        address[] memory userToAcc = new address[](userToAccLength);\n\n        for(uint i = 0; i < userToAccLength; i++){\n            if(i < userToAccLengthV2) {\n                userToAcc[i] = userToAccounts[_user][i];\n            } else {\n                userToAcc[i] = accountFactoryV1.userToAccounts(_user, i - userToAccLengthV2);\n            }\n        }\n\n        return userToAcc;\n    }\n\n    function isAccount(address _account) public view returns (bool) {\n        return isAccountValid[_account] || accountFactoryV1.isAccount(_account);\n    }\n\n}",
  "sourcePath": "/home/amxx/Work/subgraphs/nuo-audited-contracts/contracts/AccountFactoryV2.sol",
  "compiler": {
    "name": "solc",
    "version": "0.4.24+commit.e67f0147.Emscripten.clang"
  },
  "schemaVersion": "2.0.1",
  "updatedAt": "2019-09-23T18:55:29.322Z"
}