{
  "contractName": "AccountFactory",
  "abi": [
    {
      "constant": false,
      "inputs": [],
      "name": "stop",
      "outputs": [],
      "payable": false,
      "stateMutability": "nonpayable",
      "type": "function"
    },
    {
      "constant": false,
      "inputs": [
        {
          "name": "owner_",
          "type": "address"
        }
      ],
      "name": "setOwner",
      "outputs": [],
      "payable": false,
      "stateMutability": "nonpayable",
      "type": "function"
    },
    {
      "constant": true,
      "inputs": [
        {
          "name": "",
          "type": "address"
        },
        {
          "name": "",
          "type": "uint256"
        }
      ],
      "name": "userToAccounts",
      "outputs": [
        {
          "name": "",
          "type": "address"
        }
      ],
      "payable": false,
      "stateMutability": "view",
      "type": "function"
    },
    {
      "constant": true,
      "inputs": [
        {
          "name": "",
          "type": "address"
        }
      ],
      "name": "isAccount",
      "outputs": [
        {
          "name": "",
          "type": "bool"
        }
      ],
      "payable": false,
      "stateMutability": "view",
      "type": "function"
    },
    {
      "constant": true,
      "inputs": [],
      "name": "stopped",
      "outputs": [
        {
          "name": "",
          "type": "bool"
        }
      ],
      "payable": false,
      "stateMutability": "view",
      "type": "function"
    },
    {
      "constant": true,
      "inputs": [],
      "name": "config",
      "outputs": [
        {
          "name": "",
          "type": "address"
        }
      ],
      "payable": false,
      "stateMutability": "view",
      "type": "function"
    },
    {
      "constant": false,
      "inputs": [
        {
          "name": "authority_",
          "type": "address"
        }
      ],
      "name": "setAuthority",
      "outputs": [],
      "payable": false,
      "stateMutability": "nonpayable",
      "type": "function"
    },
    {
      "constant": true,
      "inputs": [],
      "name": "owner",
      "outputs": [
        {
          "name": "",
          "type": "address"
        }
      ],
      "payable": false,
      "stateMutability": "view",
      "type": "function"
    },
    {
      "constant": false,
      "inputs": [],
      "name": "start",
      "outputs": [],
      "payable": false,
      "stateMutability": "nonpayable",
      "type": "function"
    },
    {
      "constant": true,
      "inputs": [],
      "name": "authority",
      "outputs": [
        {
          "name": "",
          "type": "address"
        }
      ],
      "payable": false,
      "stateMutability": "view",
      "type": "function"
    },
    {
      "constant": true,
      "inputs": [],
      "name": "accountMaster",
      "outputs": [
        {
          "name": "",
          "type": "address"
        }
      ],
      "payable": false,
      "stateMutability": "view",
      "type": "function"
    },
    {
      "constant": true,
      "inputs": [
        {
          "name": "",
          "type": "uint256"
        }
      ],
      "name": "accounts",
      "outputs": [
        {
          "name": "",
          "type": "address"
        }
      ],
      "payable": false,
      "stateMutability": "view",
      "type": "function"
    },
    {
      "inputs": [
        {
          "name": "_config",
          "type": "address"
        },
        {
          "name": "_accountMaster",
          "type": "address"
        }
      ],
      "payable": false,
      "stateMutability": "nonpayable",
      "type": "constructor"
    },
    {
      "anonymous": false,
      "inputs": [
        {
          "indexed": true,
          "name": "user",
          "type": "address"
        },
        {
          "indexed": true,
          "name": "account",
          "type": "address"
        },
        {
          "indexed": false,
          "name": "by",
          "type": "address"
        }
      ],
      "name": "LogAccountCreated",
      "type": "event"
    },
    {
      "anonymous": false,
      "inputs": [
        {
          "indexed": true,
          "name": "authority",
          "type": "address"
        }
      ],
      "name": "LogSetAuthority",
      "type": "event"
    },
    {
      "anonymous": false,
      "inputs": [
        {
          "indexed": true,
          "name": "owner",
          "type": "address"
        }
      ],
      "name": "LogSetOwner",
      "type": "event"
    },
    {
      "anonymous": true,
      "inputs": [
        {
          "indexed": true,
          "name": "sig",
          "type": "bytes4"
        },
        {
          "indexed": true,
          "name": "guy",
          "type": "address"
        },
        {
          "indexed": true,
          "name": "foo",
          "type": "bytes32"
        },
        {
          "indexed": true,
          "name": "bar",
          "type": "bytes32"
        },
        {
          "indexed": false,
          "name": "wad",
          "type": "uint256"
        },
        {
          "indexed": false,
          "name": "fax",
          "type": "bytes"
        }
      ],
      "name": "LogNote",
      "type": "event"
    },
    {
      "constant": false,
      "inputs": [
        {
          "name": "_config",
          "type": "address"
        }
      ],
      "name": "setConfig",
      "outputs": [],
      "payable": false,
      "stateMutability": "nonpayable",
      "type": "function"
    },
    {
      "constant": false,
      "inputs": [
        {
          "name": "_accountMaster",
          "type": "address"
        }
      ],
      "name": "setAccountMaster",
      "outputs": [],
      "payable": false,
      "stateMutability": "nonpayable",
      "type": "function"
    },
    {
      "constant": false,
      "inputs": [
        {
          "name": "_user",
          "type": "address"
        }
      ],
      "name": "newAccount",
      "outputs": [
        {
          "name": "_account",
          "type": "address"
        }
      ],
      "payable": false,
      "stateMutability": "nonpayable",
      "type": "function"
    },
    {
      "constant": false,
      "inputs": [
        {
          "name": "_users",
          "type": "address[]"
        }
      ],
      "name": "batchNewAccount",
      "outputs": [],
      "payable": false,
      "stateMutability": "nonpayable",
      "type": "function"
    },
    {
      "constant": true,
      "inputs": [],
      "name": "getAllAccounts",
      "outputs": [
        {
          "name": "",
          "type": "address[]"
        }
      ],
      "payable": false,
      "stateMutability": "view",
      "type": "function"
    },
    {
      "constant": true,
      "inputs": [
        {
          "name": "_user",
          "type": "address"
        }
      ],
      "name": "getAccountsForUser",
      "outputs": [
        {
          "name": "",
          "type": "address[]"
        }
      ],
      "payable": false,
      "stateMutability": "view",
      "type": "function"
    }
  ],
  "bytecode": "0x60806040526001805460a060020a60ff021916905534801561002057600080fd5b506040516040806114e4833981016040819052815160209092015160018054600160a060020a0319163390811790915590917fce241d7ca1f669fee44b6fc00b8eba2df3bb514eed0f6f668f8f89096e81ed9490600090a260028054600160a060020a03938416600160a060020a03199182161790915560068054929093169116179055611431806100b36000396000f3006080604052600436106100fb5763ffffffff7c010000000000000000000000000000000000000000000000000000000060003504166303152429811461010057806307da68f51461013d57806308e93d0a1461015457806313af4035146101b9578063169b7012146101da5780631eb9ef91146101fe57806320e3dbd41461021f57806325ca4c9c146102405780633e0bd52e1461027557806375f12b211461029657806379502c55146102ab5780637a9e5e4b146102c05780638da5cb5b146102e15780639996eb64146102f6578063be9a65551461034b578063bf7e214f14610360578063f0a72a8414610375578063f2a40db81461038a575b600080fd5b34801561010c57600080fd5b50610121600160a060020a03600435166103a2565b60408051600160a060020a039092168252519081900360200190f35b34801561014957600080fd5b506101526107c3565b005b34801561016057600080fd5b506101696108a7565b60408051602080825283518183015283519192839290830191858101910280838360005b838110156101a557818101518382015260200161018d565b505050509050019250505060405180910390f35b3480156101c557600080fd5b50610152600160a060020a0360043516610909565b3480156101e657600080fd5b50610121600160a060020a03600435166024356109c0565b34801561020a57600080fd5b50610169600160a060020a03600435166109f7565b34801561022b57600080fd5b50610152600160a060020a0360043516610a6d565b34801561024c57600080fd5b50610261600160a060020a0360043516610b9a565b604080519115158252519081900360200190f35b34801561028157600080fd5b50610152600160a060020a0360043516610baf565b3480156102a257600080fd5b50610261610cdc565b3480156102b757600080fd5b50610121610cfd565b3480156102cc57600080fd5b50610152600160a060020a0360043516610d0c565b3480156102ed57600080fd5b50610121610dbf565b34801561030257600080fd5b506040805160206004803580820135838102808601850190965280855261015295369593946024949385019291829185019084908082843750949750610dce9650505050505050565b34801561035757600080fd5b50610152610f71565b34801561036c57600080fd5b5061012161103e565b34801561038157600080fd5b5061012161104d565b34801561039657600080fd5b5061012160043561105c565b6040805134808252602082018381523693830184905260009384936004359360243593849386933393600160e060020a03198a35169390928a929091606082018484808284376040519201829003965090945050505050a4600254604080517f9c14ee290000000000000000000000000000000000000000000000000000000081523360048201529051600160a060020a0390921691639c14ee29916024808201926020929091908290030181600087803b15801561046057600080fd5b505af1158015610474573d6000803e3d6000fd5b505050506040513d602081101561048a57600080fd5b50511515610508576040805160e560020a62461bcd02815260206004820152602760248201527f4163636f756e74466163746f72793a3a5f20494e56414c49445f41444d494e5f60448201527f4143434f554e5400000000000000000000000000000000000000000000000000606482015290519081900360840190fd5b600254600160a060020a0316801515610559576040805160e560020a62461bcd02815260206004820152601860248201526000805160206113e6833981519152604482015290519081900360640190fd5b600654600160a060020a03168015156105aa576040805160e560020a62461bcd02815260206004820152601860248201526000805160206113e6833981519152604482015290519081900360640190fd5b60015474010000000000000000000000000000000000000000900460ff161561061d576040805160e560020a62461bcd02815260206004820152601960248201527f445353746f703a3a5f20464541545552455f53544f5050454400000000000000604482015290519081900360640190fd5b600654600160a060020a031661063161118d565b600160a060020a03909116815260405190819003602001906000f08015801561065e573d6000803e3d6000fd5b50600254604080517ff09a4016000000000000000000000000000000000000000000000000000000008152600160a060020a038b81166004830152928316602482015290519298508897509087169163f09a40169160448082019260009290919082900301818387803b1580156106d457600080fd5b505af11580156106e8573d6000803e3d6000fd5b50506005805460018181019092557f036b6384b5eca791c62761152d0c79bb0604c104a5fb6f4eb0703f3154bb3db0018054600160a060020a03808c1673ffffffffffffffffffffffffffffffffffffffff1992831681179093558c1660008181526004602090815260408083208054808901825590845282842001805490951686179094558482526003815290839020805460ff19169095179094558151338152915192955093507eef0c4d7ce8d09e55441711e41dc8f1a6abbe3313f4369ea8094dbf0b7b182092908290030190a35050505050919050565b6107d933600035600160e060020a031916611084565b151561081d576040805160e560020a62461bcd02815260206004820152601f60248201526000805160206113c6833981519152604482015290519081900360640190fd5b60408051348082526020820183815236938301849052600435936024359384938693339360008035600160e060020a031916949092606082018484808284376040519201829003965090945050505050a450506001805474ff0000000000000000000000000000000000000000191674010000000000000000000000000000000000000000179055565b606060058054806020026020016040519081016040528092919081815260200182805480156108ff57602002820191906000526020600020905b8154600160a060020a031681526001909101906020018083116108e1575b5050505050905090565b61091f33600035600160e060020a031916611084565b1515610963576040805160e560020a62461bcd02815260206004820152601f60248201526000805160206113c6833981519152604482015290519081900360640190fd5b6001805473ffffffffffffffffffffffffffffffffffffffff1916600160a060020a0383811691909117918290556040519116907fce241d7ca1f669fee44b6fc00b8eba2df3bb514eed0f6f668f8f89096e81ed9490600090a250565b6004602052816000526040600020818154811015156109db57fe5b600091825260209091200154600160a060020a03169150829050565b600160a060020a038116600090815260046020908152604091829020805483518184028101840190945280845260609392830182828015610a6157602002820191906000526020600020905b8154600160a060020a03168152600190910190602001808311610a43575b50505050509050919050565b60408051348082526020820183815236938301849052600435936024359384938693339360008035600160e060020a031916949092606082018484808284376040519201829003965090945050505050a4610ad433600035600160e060020a031916611084565b1515610b18576040805160e560020a62461bcd02815260206004820152601f60248201526000805160206113c6833981519152604482015290519081900360640190fd5b82600160a060020a0381161515610b67576040805160e560020a62461bcd02815260206004820152601860248201526000805160206113e6833981519152604482015290519081900360640190fd5b50506002805473ffffffffffffffffffffffffffffffffffffffff1916600160a060020a03939093169290921790915550565b60036020526000908152604090205460ff1681565b60408051348082526020820183815236938301849052600435936024359384938693339360008035600160e060020a031916949092606082018484808284376040519201829003965090945050505050a4610c1633600035600160e060020a031916611084565b1515610c5a576040805160e560020a62461bcd02815260206004820152601f60248201526000805160206113c6833981519152604482015290519081900360640190fd5b82600160a060020a0381161515610ca9576040805160e560020a62461bcd02815260206004820152601860248201526000805160206113e6833981519152604482015290519081900360640190fd5b50506006805473ffffffffffffffffffffffffffffffffffffffff1916600160a060020a03939093169290921790915550565b60015474010000000000000000000000000000000000000000900460ff1681565b600254600160a060020a031681565b610d2233600035600160e060020a031916611084565b1515610d66576040805160e560020a62461bcd02815260206004820152601f60248201526000805160206113c6833981519152604482015290519081900360640190fd5b6000805473ffffffffffffffffffffffffffffffffffffffff1916600160a060020a03838116919091178083556040519116917f1abebea81bfa2637f28358c371278fb15ede7ea8dd28d2e03b112ff6d936ada491a250565b600154600160a060020a031681565b604080513480825260208201838152369383018490526000936004359360243593849386933393600160e060020a03198a351693928a929190606082018484808284376040519201829003965090945050505050a4600254604080517f9c14ee290000000000000000000000000000000000000000000000000000000081523360048201529051600160a060020a0390921691639c14ee29916024808201926020929091908290030181600087803b158015610e8957600080fd5b505af1158015610e9d573d6000803e3d6000fd5b505050506040513d6020811015610eb357600080fd5b50511515610f31576040805160e560020a62461bcd02815260206004820152602760248201527f4163636f756e74466163746f72793a3a5f20494e56414c49445f41444d494e5f60448201527f4143434f554e5400000000000000000000000000000000000000000000000000606482015290519081900360840190fd5b600092505b8351831015610f6b57610f5f8484815181101515610f5057fe5b906020019060200201516103a2565b50600190920191610f36565b50505050565b610f8733600035600160e060020a031916611084565b1515610fcb576040805160e560020a62461bcd02815260206004820152601f60248201526000805160206113c6833981519152604482015290519081900360640190fd5b60408051348082526020820183815236938301849052600435936024359384938693339360008035600160e060020a031916949092606082018484808284376040519201829003965090945050505050a450506001805474ff000000000000000000000000000000000000000019169055565b600054600160a060020a031681565b600654600160a060020a031681565b600580548290811061106a57fe5b600091825260209091200154600160a060020a0316905081565b6000600160a060020a03831630141561109f57506001611187565b600154600160a060020a03848116911614156110bd57506001611187565b600054600160a060020a031615156110d757506000611187565b60008054604080517fb7009613000000000000000000000000000000000000000000000000000000008152600160a060020a038781166004830152306024830152600160e060020a0319871660448301529151919092169263b700961392606480820193602093909283900390910190829087803b15801561115857600080fd5b505af115801561116c573d6000803e3d6000fd5b505050506040513d602081101561118257600080fd5b505190505b92915050565b6040516102288061119e833901905600608060405234801561001057600080fd5b506040516020806102288339810160405251600160a060020a03811615156100be57604080517f08c379a0000000000000000000000000000000000000000000000000000000008152602060048201526024808201527f496e76616c6964206d617374657220636f707920616464726573732070726f7660448201527f6964656400000000000000000000000000000000000000000000000000000000606482015290519081900360840190fd5b60008054600160a060020a03909216600160a060020a031990921691909117905561013a806100ee6000396000f30060806040526004361061004b5763ffffffff7c01000000000000000000000000000000000000000000000000000000006000350416634555d5c981146100885780635c60da1b146100af575b73ffffffffffffffffffffffffffffffffffffffff600054163660008037600080366000845af43d6000803e801515610083573d6000fd5b3d6000f35b34801561009457600080fd5b5061009d6100ed565b60408051918252519081900360200190f35b3480156100bb57600080fd5b506100c46100f2565b6040805173ffffffffffffffffffffffffffffffffffffffff9092168252519081900360200190f35b600290565b60005473ffffffffffffffffffffffffffffffffffffffff16905600a165627a7a72305820f42a17be35438b26ef32c8c2a2ca39168cd924450b023add17f63f1883d9336700294453417574683a3a5f2053454e4445525f4e4f545f415554484f52495a4544005574696c733a3a5f20494e56414c49445f414444524553530000000000000000a165627a7a723058209ebd2bf217922328d3277fdc40cfee3d20a365d0518b2e5a86916387236079770029",
  "source": "pragma solidity 0.4.24;\n\nimport \"./lib/dappsys/DSThing.sol\";\nimport \"./lib/dappsys/DSStop.sol\";\nimport \"./lib/utils/Proxy.sol\";\nimport \"./Account.sol\";\nimport \"./Config.sol\";\nimport \"./Utils.sol\";\n\n/**\n * @author Rohit Soni (rohit@nuofox.com)\n */\n\ncontract AccountFactory is DSStop, Utils {\n    Config public config;\n    mapping (address => bool) public isAccount;\n    mapping (address => address[]) public userToAccounts;\n    address[] public accounts;\n\n    address public accountMaster;\n\n    constructor\n    (\n        Config _config, \n        address _accountMaster\n    ) \n    public \n    {\n        config = _config;\n        accountMaster = _accountMaster;\n    }\n\n    event LogAccountCreated(address indexed user, address indexed account, address by);\n\n    modifier onlyAdmin() {\n        require(config.isAdminValid(msg.sender), \"AccountFactory::_ INVALID_ADMIN_ACCOUNT\");\n        _;\n    }\n\n    function setConfig(Config _config) external note auth addressValid(_config) {\n        config = _config;\n    }\n\n    function setAccountMaster(address _accountMaster) external note auth addressValid(_accountMaster) {\n        accountMaster = _accountMaster;\n    }\n\n    function newAccount(address _user)\n        public\n        note\n        onlyAdmin\n        addressValid(config)\n        addressValid(accountMaster)\n        whenNotStopped\n        returns \n        (\n            Account _account\n        ) \n    {\n        address proxy = new Proxy(accountMaster);\n        _account = Account(proxy);\n        _account.init(_user, config);\n\n        accounts.push(_account);\n        userToAccounts[_user].push(_account);\n        isAccount[_account] = true;\n\n        emit LogAccountCreated(_user, _account, msg.sender);\n    }\n    \n    function batchNewAccount(address[] _users) public note onlyAdmin {\n        for (uint i = 0; i < _users.length; i++) {\n            newAccount(_users[i]);\n        }\n    }\n\n    function getAllAccounts() public view returns (address[]) {\n        return accounts;\n    }\n\n    function getAccountsForUser(address _user) public view returns (address[]) {\n        return userToAccounts[_user];\n    }\n\n}",
  "sourcePath": "/home/amxx/Work/subgraphs/nuo-audited-contracts/contracts/AccountFactory.sol",
  "compiler": {
    "name": "solc",
    "version": "0.4.24+commit.e67f0147.Emscripten.clang"
  },
  "schemaVersion": "2.0.1",
  "updatedAt": "2019-09-24T21:09:49.864Z"
}