{
  "contractName": "DSGuardFactory",
  "abi": [
    {
      "constant": true,
      "inputs": [
        {
          "name": "",
          "type": "address"
        }
      ],
      "name": "isGuard",
      "outputs": [
        {
          "name": "",
          "type": "bool"
        }
      ],
      "payable": false,
      "stateMutability": "view",
      "type": "function"
    },
    {
      "constant": false,
      "inputs": [],
      "name": "newGuard",
      "outputs": [
        {
          "name": "guard",
          "type": "address"
        }
      ],
      "payable": false,
      "stateMutability": "nonpayable",
      "type": "function"
    }
  ],
  "bytecode": "0x608060405234801561001057600080fd5b50610b08806100206000396000f30060806040526004361061004b5763ffffffff7c0100000000000000000000000000000000000000000000000000000000600035041663489c1202811461005057806365688cc914610092575b600080fd5b34801561005c57600080fd5b5061007e73ffffffffffffffffffffffffffffffffffffffff600435166100d0565b604080519115158252519081900360200190f35b34801561009e57600080fd5b506100a76100e5565b6040805173ffffffffffffffffffffffffffffffffffffffff9092168252519081900360200190f35b60006020819052908152604090205460ff1681565b60006100ef6101c8565b604051809103906000f08015801561010b573d6000803e3d6000fd5b50604080517f13af4035000000000000000000000000000000000000000000000000000000008152336004820152905191925073ffffffffffffffffffffffffffffffffffffffff8316916313af40359160248082019260009290919082900301818387803b15801561017d57600080fd5b505af1158015610191573d6000803e3d6000fd5b50505073ffffffffffffffffffffffffffffffffffffffff82166000908152602081905260409020805460ff191660011790555090565b604051610904806101d98339019056006080604081905260018054600160a060020a03191633908117909155907fce241d7ca1f669fee44b6fc00b8eba2df3bb514eed0f6f668f8f89096e81ed9490600090a26108b3806100516000396000f3006080604052600436106100a35763ffffffff7c010000000000000000000000000000000000000000000000000000000060003504166313af403581146100a85780632bc3217d146100cb57806379d88d87146100f55780637a9e5e4b146101135780638da5cb5b14610134578063a8542f6614610165578063b70096131461018c578063bf7e214f146101d4578063cbeea68c146101e9578063f0217ce514610213575b600080fd5b3480156100b457600080fd5b506100c9600160a060020a0360043516610231565b005b3480156100d757600080fd5b506100c9600160a060020a03600435811690602435166044356102e8565b34801561010157600080fd5b506100c9600435602435604435610304565b34801561011f57600080fd5b506100c9600160a060020a03600435166103b7565b34801561014057600080fd5b5061014961046a565b60408051600160a060020a039092168252519081900360200190f35b34801561017157600080fd5b5061017a610479565b60408051918252519081900360200190f35b34801561019857600080fd5b506101c0600160a060020a0360043581169060243516600160e060020a03196044351661047f565b604080519115158252519081900360200190f35b3480156101e057600080fd5b50610149610686565b3480156101f557600080fd5b506100c9600160a060020a0360043581169060243516604435610695565b34801561021f57600080fd5b506100c96004356024356044356106a8565b61024733600035600160e060020a03191661075e565b151561028b576040805160e560020a62461bcd02815260206004820152601f6024820152600080516020610868833981519152604482015290519081900360640190fd5b6001805473ffffffffffffffffffffffffffffffffffffffff1916600160a060020a0383811691909117918290556040519116907fce241d7ca1f669fee44b6fc00b8eba2df3bb514eed0f6f668f8f89096e81ed9490600090a250565b6102ff600160a060020a0380851690841683610304565b505050565b61031a33600035600160e060020a03191661075e565b151561035e576040805160e560020a62461bcd02815260206004820152601f6024820152600080516020610868833981519152604482015290519081900360640190fd5b60008381526002602090815260408083208584528252808320848452909152808220805460ff19169055518291849186917f95ba64c95d85e67ac83a0476c4a62ac2cf8ab2d0407545b8c9d79c3eefa6282991a4505050565b6103cd33600035600160e060020a03191661075e565b1515610411576040805160e560020a62461bcd02815260206004820152601f6024820152600080516020610868833981519152604482015290519081900360640190fd5b6000805473ffffffffffffffffffffffffffffffffffffffff1916600160a060020a03838116919091178083556040519116917f1abebea81bfa2637f28358c371278fb15ede7ea8dd28d2e03b112ff6d936ada491a250565b600154600160a060020a031681565b60001981565b600160a060020a038084166000818152600260209081526040808320948716808452948252808320600160e060020a03198716845290915281205490929060ff16806104ee575060008281526002602090815260408083208484528252808320600019845290915290205460ff165b806105265750600082815260026020908152604080832060001984528252808320600160e060020a03198816845290915290205460ff165b80610551575060008281526002602090815260408083206000198452825280832090915290205460ff165b8061059e575060008181527f38b5b2ceac7637132d27514ffcf440b705287635075af7b8bd5adcaa6a4cc5bb60209081526040808320600160e060020a03198816845290915290205460ff165b806105e3575060008181527f38b5b2ceac7637132d27514ffcf440b705287635075af7b8bd5adcaa6a4cc5bb60209081526040808320600019845290915290205460ff165b806106265750600160e060020a0319841660009081527f47fa60fbc027ac3984ea309688a33182f4193c478b40ba8d294eb2cd3ddc4d97602052604090205460ff165b8061067c57506000196000527f47fa60fbc027ac3984ea309688a33182f4193c478b40ba8d294eb2cd3ddc4d976020527ff423d1317b37667cd26005728bffa7c8b0499e133951fcf8e814d4fc5f4c98f65460ff165b9695505050505050565b600054600160a060020a031681565b6102ff600160a060020a03808516908416835b6106be33600035600160e060020a03191661075e565b1515610702576040805160e560020a62461bcd02815260206004820152601f6024820152600080516020610868833981519152604482015290519081900360640190fd5b60008381526002602090815260408083208584528252808320848452909152808220805460ff19166001179055518291849186917f6f50375045128971c5469d343039ba7b8e30a5b190453737b28bda6f7a30677191a4505050565b6000600160a060020a03831630141561077957506001610861565b600154600160a060020a038481169116141561079757506001610861565b600054600160a060020a031615156107b157506000610861565b60008054604080517fb7009613000000000000000000000000000000000000000000000000000000008152600160a060020a038781166004830152306024830152600160e060020a0319871660448301529151919092169263b700961392606480820193602093909283900390910190829087803b15801561083257600080fd5b505af1158015610846573d6000803e3d6000fd5b505050506040513d602081101561085c57600080fd5b505190505b9291505056004453417574683a3a5f2053454e4445525f4e4f545f415554484f52495a454400a165627a7a7230582086bec88cefc1f9e9e6a8bf0bfc60c436955e9ac306653c97bb6d3c9aacd3f7ac0029a165627a7a7230582067e67d6633f90d2794a73ef740f9e9409a166ad70f41627bf208b8ea6ed45d090029",
  "source": "// modified for use with truffle\n\n// guard.sol -- simple whitelist implementation of DSAuthority\n\n// Copyright (C) 2017  DappHub, LLC\n\n// This program is free software: you can redistribute it and/or modify\n// it under the terms of the GNU General Public License as published by\n// the Free Software Foundation, either version 3 of the License, or\n// (at your option) any later version.\n\n// This program is distributed in the hope that it will be useful,\n// but WITHOUT ANY WARRANTY; without even the implied warranty of\n// MERCHANTABILITY or FITNESS FOR A PARTICULAR PURPOSE.  See the\n// GNU General Public License for more details.\n\n// You should have received a copy of the GNU General Public License\n// along with this program.  If not, see <http://www.gnu.org/licenses/>.\n\npragma solidity ^0.4.13;\n\nimport \"./DSAuth.sol\";\n\ncontract DSGuardEvents {\n    event LogPermit(\n        bytes32 indexed src,\n        bytes32 indexed dst,\n        bytes32 indexed sig\n    );\n\n    event LogForbid(\n        bytes32 indexed src,\n        bytes32 indexed dst,\n        bytes32 indexed sig\n    );\n}\n\ncontract DSGuard is DSAuth, DSAuthority, DSGuardEvents {\n    bytes32 constant public ANY = bytes32(uint(-1));\n\n    mapping (bytes32 => mapping (bytes32 => mapping (bytes32 => bool))) acl;\n\n    function canCall(\n        address src_, address dst_, bytes4 sig\n    ) public view returns (bool) {\n        var src = bytes32(src_);\n        var dst = bytes32(dst_);\n\n        return acl[src][dst][sig]\n            || acl[src][dst][ANY]\n            || acl[src][ANY][sig]\n            || acl[src][ANY][ANY]\n            || acl[ANY][dst][sig]\n            || acl[ANY][dst][ANY]\n            || acl[ANY][ANY][sig]\n            || acl[ANY][ANY][ANY];\n    }\n\n    function permit(bytes32 src, bytes32 dst, bytes32 sig) public auth {\n        acl[src][dst][sig] = true;\n        LogPermit(src, dst, sig);\n    }\n\n    function forbid(bytes32 src, bytes32 dst, bytes32 sig) public auth {\n        acl[src][dst][sig] = false;\n        LogForbid(src, dst, sig);\n    }\n\n    function permit(address src, address dst, bytes32 sig) public {\n        permit(bytes32(src), bytes32(dst), sig);\n    }\n    function forbid(address src, address dst, bytes32 sig) public {\n        forbid(bytes32(src), bytes32(dst), sig);\n    }\n\n}\n\ncontract DSGuardFactory {\n    mapping (address => bool)  public  isGuard;\n\n    function newGuard() public returns (DSGuard guard) {\n        guard = new DSGuard();\n        guard.setOwner(msg.sender);\n        isGuard[guard] = true;\n    }\n}\n",
  "sourcePath": "/home/amxx/Work/subgraphs/nuo-audited-contracts/contracts/lib/dappsys/DSGuard.sol",
  "compiler": {
    "name": "solc",
    "version": "0.4.24+commit.e67f0147.Emscripten.clang"
  },
  "schemaVersion": "2.0.1",
  "updatedAt": "2019-09-24T21:09:49.872Z"
}