{
  "contractName": "DSStop",
  "abi": [
    {
      "constant": false,
      "inputs": [
        {
          "name": "owner_",
          "type": "address"
        }
      ],
      "name": "setOwner",
      "outputs": [],
      "payable": false,
      "stateMutability": "nonpayable",
      "type": "function"
    },
    {
      "constant": true,
      "inputs": [],
      "name": "stopped",
      "outputs": [
        {
          "name": "",
          "type": "bool"
        }
      ],
      "payable": false,
      "stateMutability": "view",
      "type": "function"
    },
    {
      "constant": false,
      "inputs": [
        {
          "name": "authority_",
          "type": "address"
        }
      ],
      "name": "setAuthority",
      "outputs": [],
      "payable": false,
      "stateMutability": "nonpayable",
      "type": "function"
    },
    {
      "constant": true,
      "inputs": [],
      "name": "owner",
      "outputs": [
        {
          "name": "",
          "type": "address"
        }
      ],
      "payable": false,
      "stateMutability": "view",
      "type": "function"
    },
    {
      "constant": true,
      "inputs": [],
      "name": "authority",
      "outputs": [
        {
          "name": "",
          "type": "address"
        }
      ],
      "payable": false,
      "stateMutability": "view",
      "type": "function"
    },
    {
      "anonymous": false,
      "inputs": [
        {
          "indexed": true,
          "name": "authority",
          "type": "address"
        }
      ],
      "name": "LogSetAuthority",
      "type": "event"
    },
    {
      "anonymous": false,
      "inputs": [
        {
          "indexed": true,
          "name": "owner",
          "type": "address"
        }
      ],
      "name": "LogSetOwner",
      "type": "event"
    },
    {
      "anonymous": true,
      "inputs": [
        {
          "indexed": true,
          "name": "sig",
          "type": "bytes4"
        },
        {
          "indexed": true,
          "name": "guy",
          "type": "address"
        },
        {
          "indexed": true,
          "name": "foo",
          "type": "bytes32"
        },
        {
          "indexed": true,
          "name": "bar",
          "type": "bytes32"
        },
        {
          "indexed": false,
          "name": "wad",
          "type": "uint256"
        },
        {
          "indexed": false,
          "name": "fax",
          "type": "bytes"
        }
      ],
      "name": "LogNote",
      "type": "event"
    },
    {
      "constant": false,
      "inputs": [],
      "name": "stop",
      "outputs": [],
      "payable": false,
      "stateMutability": "nonpayable",
      "type": "function"
    },
    {
      "constant": false,
      "inputs": [],
      "name": "start",
      "outputs": [],
      "payable": false,
      "stateMutability": "nonpayable",
      "type": "function"
    }
  ],
  "bytecode": "0x6080604081905260018054600160a860020a03191633908117909155907fce241d7ca1f669fee44b6fc00b8eba2df3bb514eed0f6f668f8f89096e81ed9490600090a2610613806100516000396000f3006080604052600436106100825763ffffffff7c010000000000000000000000000000000000000000000000000000000060003504166307da68f5811461008757806313af40351461009e57806375f12b21146100bf5780637a9e5e4b146100e85780638da5cb5b14610109578063be9a65551461013a578063bf7e214f1461014f575b600080fd5b34801561009357600080fd5b5061009c610164565b005b3480156100aa57600080fd5b5061009c600160a060020a0360043516610248565b3480156100cb57600080fd5b506100d46102ff565b604080519115158252519081900360200190f35b3480156100f457600080fd5b5061009c600160a060020a0360043516610320565b34801561011557600080fd5b5061011e6103d3565b60408051600160a060020a039092168252519081900360200190f35b34801561014657600080fd5b5061009c6103e2565b34801561015b57600080fd5b5061011e6104af565b61017a33600035600160e060020a0319166104be565b15156101be576040805160e560020a62461bcd02815260206004820152601f60248201526000805160206105c8833981519152604482015290519081900360640190fd5b60408051348082526020820183815236938301849052600435936024359384938693339360008035600160e060020a031916949092606082018484808284376040519201829003965090945050505050a450506001805474ff0000000000000000000000000000000000000000191674010000000000000000000000000000000000000000179055565b61025e33600035600160e060020a0319166104be565b15156102a2576040805160e560020a62461bcd02815260206004820152601f60248201526000805160206105c8833981519152604482015290519081900360640190fd5b6001805473ffffffffffffffffffffffffffffffffffffffff1916600160a060020a0383811691909117918290556040519116907fce241d7ca1f669fee44b6fc00b8eba2df3bb514eed0f6f668f8f89096e81ed9490600090a250565b60015474010000000000000000000000000000000000000000900460ff1681565b61033633600035600160e060020a0319166104be565b151561037a576040805160e560020a62461bcd02815260206004820152601f60248201526000805160206105c8833981519152604482015290519081900360640190fd5b6000805473ffffffffffffffffffffffffffffffffffffffff1916600160a060020a03838116919091178083556040519116917f1abebea81bfa2637f28358c371278fb15ede7ea8dd28d2e03b112ff6d936ada491a250565b600154600160a060020a031681565b6103f833600035600160e060020a0319166104be565b151561043c576040805160e560020a62461bcd02815260206004820152601f60248201526000805160206105c8833981519152604482015290519081900360640190fd5b60408051348082526020820183815236938301849052600435936024359384938693339360008035600160e060020a031916949092606082018484808284376040519201829003965090945050505050a450506001805474ff000000000000000000000000000000000000000019169055565b600054600160a060020a031681565b6000600160a060020a0383163014156104d9575060016105c1565b600154600160a060020a03848116911614156104f7575060016105c1565b600054600160a060020a03161515610511575060006105c1565b60008054604080517fb7009613000000000000000000000000000000000000000000000000000000008152600160a060020a038781166004830152306024830152600160e060020a0319871660448301529151919092169263b700961392606480820193602093909283900390910190829087803b15801561059257600080fd5b505af11580156105a6573d6000803e3d6000fd5b505050506040513d60208110156105bc57600080fd5b505190505b9291505056004453417574683a3a5f2053454e4445525f4e4f545f415554484f52495a454400a165627a7a72305820c0ee394869ad37b03d1b673832f24616b6cf3c34819cf0705dc5b13ef805f4010029",
  "source": "// modified for use with truffle\n\n/// stop.sol -- mixin for enable/disable functionality\n\n// Copyright (C) 2017  DappHub, LLC\n\n// This program is free software: you can redistribute it and/or modify\n// it under the terms of the GNU General Public License as published by\n// the Free Software Foundation, either version 3 of the License, or\n// (at your option) any later version.\n\n// This program is distributed in the hope that it will be useful,\n// but WITHOUT ANY WARRANTY; without even the implied warranty of\n// MERCHANTABILITY or FITNESS FOR A PARTICULAR PURPOSE.  See the\n// GNU General Public License for more details.\n\n// You should have received a copy of the GNU General Public License\n// along with this program.  If not, see <http://www.gnu.org/licenses/>.\n\npragma solidity ^0.4.23;\n\nimport \"./DSAuth.sol\";\nimport \"./DSNote.sol\";\n\ncontract DSStop is DSNote, DSAuth {\n\n    bool public stopped = false;\n\n    modifier whenNotStopped {\n        require(!stopped, \"DSStop::_ FEATURE_STOPPED\");\n        _;\n    }\n\n    modifier whenStopped {\n        require(stopped, \"DSStop::_ FEATURE_NOT_STOPPED\");\n        _;\n    }\n\n    function stop() public auth note {\n        stopped = true;\n    }\n    function start() public auth note {\n        stopped = false;\n    }\n\n}",
  "sourcePath": "/home/amxx/Work/subgraphs/nuo-audited-contracts/contracts/lib/dappsys/DSStop.sol",
  "compiler": {
    "name": "solc",
    "version": "0.4.24+commit.e67f0147.Emscripten.clang"
  },
  "schemaVersion": "2.0.1",
  "updatedAt": "2019-09-23T18:55:29.357Z"
}