{
  "contractName": "Kernel",
  "abi": [
    {
      "constant": false,
      "inputs": [],
      "name": "stop",
      "outputs": [],
      "payable": false,
      "stateMutability": "nonpayable",
      "type": "function"
    },
    {
      "constant": false,
      "inputs": [
        {
          "name": "owner_",
          "type": "address"
        }
      ],
      "name": "setOwner",
      "outputs": [],
      "payable": false,
      "stateMutability": "nonpayable",
      "type": "function"
    },
    {
      "constant": true,
      "inputs": [],
      "name": "kyberConnector",
      "outputs": [
        {
          "name": "",
          "type": "address"
        }
      ],
      "payable": false,
      "stateMutability": "view",
      "type": "function"
    },
    {
      "constant": true,
      "inputs": [
        {
          "name": "",
          "type": "bytes32"
        }
      ],
      "name": "isDefaulted",
      "outputs": [
        {
          "name": "",
          "type": "bool"
        }
      ],
      "payable": false,
      "stateMutability": "view",
      "type": "function"
    },
    {
      "constant": true,
      "inputs": [],
      "name": "accountFactory",
      "outputs": [
        {
          "name": "",
          "type": "address"
        }
      ],
      "payable": false,
      "stateMutability": "view",
      "type": "function"
    },
    {
      "constant": true,
      "inputs": [
        {
          "name": "",
          "type": "address"
        },
        {
          "name": "",
          "type": "uint256"
        }
      ],
      "name": "accountToOrders",
      "outputs": [
        {
          "name": "",
          "type": "bytes32"
        }
      ],
      "payable": false,
      "stateMutability": "view",
      "type": "function"
    },
    {
      "constant": true,
      "inputs": [],
      "name": "stopped",
      "outputs": [
        {
          "name": "",
          "type": "bool"
        }
      ],
      "payable": false,
      "stateMutability": "view",
      "type": "function"
    },
    {
      "constant": true,
      "inputs": [],
      "name": "config",
      "outputs": [
        {
          "name": "",
          "type": "address"
        }
      ],
      "payable": false,
      "stateMutability": "view",
      "type": "function"
    },
    {
      "constant": false,
      "inputs": [
        {
          "name": "authority_",
          "type": "address"
        }
      ],
      "name": "setAuthority",
      "outputs": [],
      "payable": false,
      "stateMutability": "nonpayable",
      "type": "function"
    },
    {
      "constant": true,
      "inputs": [
        {
          "name": "",
          "type": "bytes32"
        }
      ],
      "name": "isRepaid",
      "outputs": [
        {
          "name": "",
          "type": "bool"
        }
      ],
      "payable": false,
      "stateMutability": "view",
      "type": "function"
    },
    {
      "constant": true,
      "inputs": [
        {
          "name": "",
          "type": "bytes32"
        }
      ],
      "name": "isOrder",
      "outputs": [
        {
          "name": "",
          "type": "bool"
        }
      ],
      "payable": false,
      "stateMutability": "view",
      "type": "function"
    },
    {
      "constant": true,
      "inputs": [],
      "name": "owner",
      "outputs": [
        {
          "name": "",
          "type": "address"
        }
      ],
      "payable": false,
      "stateMutability": "view",
      "type": "function"
    },
    {
      "constant": true,
      "inputs": [
        {
          "name": "",
          "type": "uint256"
        }
      ],
      "name": "orders",
      "outputs": [
        {
          "name": "",
          "type": "bytes32"
        }
      ],
      "payable": false,
      "stateMutability": "view",
      "type": "function"
    },
    {
      "constant": false,
      "inputs": [],
      "name": "start",
      "outputs": [],
      "payable": false,
      "stateMutability": "nonpayable",
      "type": "function"
    },
    {
      "constant": true,
      "inputs": [],
      "name": "authority",
      "outputs": [
        {
          "name": "",
          "type": "address"
        }
      ],
      "payable": false,
      "stateMutability": "view",
      "type": "function"
    },
    {
      "constant": true,
      "inputs": [
        {
          "name": "",
          "type": "bytes32"
        }
      ],
      "name": "hashToOrder",
      "outputs": [
        {
          "name": "account",
          "type": "address"
        },
        {
          "name": "byUser",
          "type": "address"
        },
        {
          "name": "principalToken",
          "type": "address"
        },
        {
          "name": "collateralToken",
          "type": "address"
        },
        {
          "name": "principalAmount",
          "type": "uint256"
        },
        {
          "name": "collateralAmount",
          "type": "uint256"
        },
        {
          "name": "premium",
          "type": "uint256"
        },
        {
          "name": "duration",
          "type": "uint256"
        },
        {
          "name": "expirationTimestamp",
          "type": "uint256"
        },
        {
          "name": "salt",
          "type": "uint256"
        },
        {
          "name": "fee",
          "type": "uint256"
        },
        {
          "name": "createdTimestamp",
          "type": "uint256"
        },
        {
          "name": "orderHash",
          "type": "bytes32"
        }
      ],
      "payable": false,
      "stateMutability": "view",
      "type": "function"
    },
    {
      "constant": true,
      "inputs": [],
      "name": "reserve",
      "outputs": [
        {
          "name": "",
          "type": "address"
        }
      ],
      "payable": false,
      "stateMutability": "view",
      "type": "function"
    },
    {
      "constant": true,
      "inputs": [],
      "name": "escrow",
      "outputs": [
        {
          "name": "",
          "type": "address"
        }
      ],
      "payable": false,
      "stateMutability": "view",
      "type": "function"
    },
    {
      "constant": true,
      "inputs": [],
      "name": "feeWallet",
      "outputs": [
        {
          "name": "",
          "type": "address"
        }
      ],
      "payable": false,
      "stateMutability": "view",
      "type": "function"
    },
    {
      "constant": true,
      "inputs": [],
      "name": "VERSION",
      "outputs": [
        {
          "name": "",
          "type": "string"
        }
      ],
      "payable": false,
      "stateMutability": "view",
      "type": "function"
    },
    {
      "inputs": [
        {
          "name": "_escrow",
          "type": "address"
        },
        {
          "name": "_accountFactory",
          "type": "address"
        },
        {
          "name": "_reserve",
          "type": "address"
        },
        {
          "name": "_feeWallet",
          "type": "address"
        },
        {
          "name": "_config",
          "type": "address"
        },
        {
          "name": "_kyberConnector",
          "type": "address"
        }
      ],
      "payable": false,
      "stateMutability": "nonpayable",
      "type": "constructor"
    },
    {
      "anonymous": false,
      "inputs": [
        {
          "indexed": true,
          "name": "orderHash",
          "type": "bytes32"
        },
        {
          "indexed": true,
          "name": "account",
          "type": "address"
        },
        {
          "indexed": true,
          "name": "principalToken",
          "type": "address"
        },
        {
          "indexed": false,
          "name": "collateralToken",
          "type": "address"
        },
        {
          "indexed": false,
          "name": "byUser",
          "type": "address"
        },
        {
          "indexed": false,
          "name": "principalAmount",
          "type": "uint256"
        },
        {
          "indexed": false,
          "name": "collateralAmount",
          "type": "uint256"
        },
        {
          "indexed": false,
          "name": "premium",
          "type": "uint256"
        },
        {
          "indexed": false,
          "name": "expirationTimestamp",
          "type": "uint256"
        },
        {
          "indexed": false,
          "name": "fee",
          "type": "uint256"
        }
      ],
      "name": "LogOrderCreated",
      "type": "event"
    },
    {
      "anonymous": false,
      "inputs": [
        {
          "indexed": true,
          "name": "orderHash",
          "type": "bytes32"
        },
        {
          "indexed": false,
          "name": "valueRepaid",
          "type": "uint256"
        }
      ],
      "name": "LogOrderRepaid",
      "type": "event"
    },
    {
      "anonymous": false,
      "inputs": [
        {
          "indexed": true,
          "name": "orderHash",
          "type": "bytes32"
        },
        {
          "indexed": false,
          "name": "reason",
          "type": "string"
        }
      ],
      "name": "LogOrderDefaulted",
      "type": "event"
    },
    {
      "anonymous": false,
      "inputs": [
        {
          "indexed": false,
          "name": "methodSig",
          "type": "string"
        },
        {
          "indexed": false,
          "name": "errMsg",
          "type": "string"
        }
      ],
      "name": "LogError",
      "type": "event"
    },
    {
      "anonymous": false,
      "inputs": [
        {
          "indexed": true,
          "name": "bytes32Value",
          "type": "bytes32"
        },
        {
          "indexed": false,
          "name": "methodSig",
          "type": "string"
        },
        {
          "indexed": false,
          "name": "errMsg",
          "type": "string"
        }
      ],
      "name": "LogErrorWithHintBytes32",
      "type": "event"
    },
    {
      "anonymous": false,
      "inputs": [
        {
          "indexed": true,
          "name": "addressValue",
          "type": "address"
        },
        {
          "indexed": false,
          "name": "methodSig",
          "type": "string"
        },
        {
          "indexed": false,
          "name": "errMsg",
          "type": "string"
        }
      ],
      "name": "LogErrorWithHintAddress",
      "type": "event"
    },
    {
      "anonymous": false,
      "inputs": [
        {
          "indexed": true,
          "name": "authority",
          "type": "address"
        }
      ],
      "name": "LogSetAuthority",
      "type": "event"
    },
    {
      "anonymous": false,
      "inputs": [
        {
          "indexed": true,
          "name": "owner",
          "type": "address"
        }
      ],
      "name": "LogSetOwner",
      "type": "event"
    },
    {
      "anonymous": true,
      "inputs": [
        {
          "indexed": true,
          "name": "sig",
          "type": "bytes4"
        },
        {
          "indexed": true,
          "name": "guy",
          "type": "address"
        },
        {
          "indexed": true,
          "name": "foo",
          "type": "bytes32"
        },
        {
          "indexed": true,
          "name": "bar",
          "type": "bytes32"
        },
        {
          "indexed": false,
          "name": "wad",
          "type": "uint256"
        },
        {
          "indexed": false,
          "name": "fax",
          "type": "bytes"
        }
      ],
      "name": "LogNote",
      "type": "event"
    },
    {
      "constant": false,
      "inputs": [
        {
          "name": "_escrow",
          "type": "address"
        }
      ],
      "name": "setEscrow",
      "outputs": [],
      "payable": false,
      "stateMutability": "nonpayable",
      "type": "function"
    },
    {
      "constant": false,
      "inputs": [
        {
          "name": "_accountFactory",
          "type": "address"
        }
      ],
      "name": "setAccountFactory",
      "outputs": [],
      "payable": false,
      "stateMutability": "nonpayable",
      "type": "function"
    },
    {
      "constant": false,
      "inputs": [
        {
          "name": "_reserve",
          "type": "address"
        }
      ],
      "name": "setReserve",
      "outputs": [],
      "payable": false,
      "stateMutability": "nonpayable",
      "type": "function"
    },
    {
      "constant": false,
      "inputs": [
        {
          "name": "_config",
          "type": "address"
        }
      ],
      "name": "setConfig",
      "outputs": [],
      "payable": false,
      "stateMutability": "nonpayable",
      "type": "function"
    },
    {
      "constant": false,
      "inputs": [
        {
          "name": "_kyberConnector",
          "type": "address"
        }
      ],
      "name": "setKyberConnector",
      "outputs": [],
      "payable": false,
      "stateMutability": "nonpayable",
      "type": "function"
    },
    {
      "constant": false,
      "inputs": [
        {
          "name": "_feeWallet",
          "type": "address"
        }
      ],
      "name": "setFeeWallet",
      "outputs": [],
      "payable": false,
      "stateMutability": "nonpayable",
      "type": "function"
    },
    {
      "constant": false,
      "inputs": [
        {
          "name": "_orderAddresses",
          "type": "address[4]"
        },
        {
          "name": "_orderValues",
          "type": "uint256[6]"
        },
        {
          "name": "_signature",
          "type": "bytes"
        }
      ],
      "name": "createOrder",
      "outputs": [],
      "payable": false,
      "stateMutability": "nonpayable",
      "type": "function"
    },
    {
      "constant": true,
      "inputs": [
        {
          "name": "_orderHash",
          "type": "bytes32"
        }
      ],
      "name": "getExpectedRepayValue",
      "outputs": [
        {
          "name": "",
          "type": "uint256"
        }
      ],
      "payable": false,
      "stateMutability": "view",
      "type": "function"
    },
    {
      "constant": false,
      "inputs": [
        {
          "name": "_orderHash",
          "type": "bytes32"
        },
        {
          "name": "_value",
          "type": "uint256"
        },
        {
          "name": "_signature",
          "type": "bytes"
        }
      ],
      "name": "repay",
      "outputs": [],
      "payable": false,
      "stateMutability": "nonpayable",
      "type": "function"
    },
    {
      "constant": false,
      "inputs": [
        {
          "name": "_orderHash",
          "type": "bytes32"
        },
        {
          "name": "_principalPerCollateral",
          "type": "uint256"
        }
      ],
      "name": "process",
      "outputs": [],
      "payable": false,
      "stateMutability": "nonpayable",
      "type": "function"
    },
    {
      "constant": true,
      "inputs": [],
      "name": "getAllOrders",
      "outputs": [
        {
          "name": "",
          "type": "bytes32[]"
        }
      ],
      "payable": false,
      "stateMutability": "view",
      "type": "function"
    },
    {
      "constant": true,
      "inputs": [
        {
          "name": "_orderHash",
          "type": "bytes32"
        }
      ],
      "name": "getOrder",
      "outputs": [
        {
          "name": "_account",
          "type": "address"
        },
        {
          "name": "_byUser",
          "type": "address"
        },
        {
          "name": "_principalToken",
          "type": "address"
        },
        {
          "name": "_collateralToken",
          "type": "address"
        },
        {
          "name": "_principalAmount",
          "type": "uint256"
        },
        {
          "name": "_collateralAmount",
          "type": "uint256"
        },
        {
          "name": "_premium",
          "type": "uint256"
        },
        {
          "name": "_expirationTimestamp",
          "type": "uint256"
        },
        {
          "name": "_salt",
          "type": "uint256"
        },
        {
          "name": "_fee",
          "type": "uint256"
        },
        {
          "name": "_createdTimestamp",
          "type": "uint256"
        }
      ],
      "payable": false,
      "stateMutability": "view",
      "type": "function"
    },
    {
      "constant": true,
      "inputs": [
        {
          "name": "_account",
          "type": "address"
        }
      ],
      "name": "getOrdersForAccount",
      "outputs": [
        {
          "name": "",
          "type": "bytes32[]"
        }
      ],
      "payable": false,
      "stateMutability": "view",
      "type": "function"
    }
  ],
  "bytecode": "0x60806040526001805460a060020a60ff021916905534801561002057600080fd5b5060405160c080613f6183398101604081815282516020840151918401516060850151608086015160a09096015160018054600160a060020a03191633908117909155939694959294919391929091907fce241d7ca1f669fee44b6fc00b8eba2df3bb514eed0f6f668f8f89096e81ed9490600090a260028054600160a060020a0319908116600160a060020a0398891617909155600380548216968816969096179095556004805486169487169490941790935560058054851692861692909217909155600680548416918516919091179055600780549092169216919091179055613e4f806101126000396000f3006080604052600436106101875763ffffffff60e060020a60003504166307da68f5811461018c5780630b7e2e97146101a357806313af4035146101cb57806320cd1649146101ec57806320e3dbd4146102165780632b612988146102375780632fcdb8dd14610268578063359abaed146102945780635778472a14610305578063687cd9c1146103855780636d8a7b9d1461039a5780636dec3260146103bb57806375f12b21146103df57806379502c55146103f45780637a9e5e4b146104095780637bea0d1c1461042a578063817671551461043f5780638723555e146104575780638da5cb5b1461046f57806390d49b9d146104845780639cecc80a146104a5578063a85c38ef146104c6578063acfd6ce6146104de578063addc1a76146104f9578063be9a65551461051a578063bf7e214f1461052f578063c086504214610544578063c10c354614610569578063c559f6861461058a578063cd3293de14610619578063e2fdcc171461062e578063f25f4b5614610643578063ffa1ad7414610658575b600080fd5b34801561019857600080fd5b506101a16106e2565b005b3480156101af57600080fd5b506101a1600480359060248035916044359182019101356107c6565b3480156101d757600080fd5b506101a1600160a060020a03600435166110fd565b3480156101f857600080fd5b506102046004356111a7565b60408051918252519081900360200190f35b34801561022257600080fd5b506101a1600160a060020a03600435166112a0565b34801561024357600080fd5b5061024c6113c0565b60408051600160a060020a039092168252519081900360200190f35b34801561027457600080fd5b506102806004356113cf565b604080519115158252519081900360200190f35b3480156102a057600080fd5b506102b5600160a060020a03600435166113e4565b60408051602080825283518183015283519192839290830191858101910280838360005b838110156102f15781810151838201526020016102d9565b505050509050019250505060405180910390f35b34801561031157600080fd5b5061031d600435611452565b60408051600160a060020a039c8d1681529a8c1660208c0152988b168a8a0152969099166060890152608088019490945260a087019290925260c086015260e08501526101008401526101208301939093526101408201929092529051908190036101600190f35b34801561039157600080fd5b5061024c611614565b3480156103a657600080fd5b506101a1600160a060020a0360043516611623565b3480156103c757600080fd5b50610204600160a060020a0360043516602435611743565b3480156103eb57600080fd5b50610280611773565b34801561040057600080fd5b5061024c611794565b34801561041557600080fd5b506101a1600160a060020a03600435166117a3565b34801561043657600080fd5b506102b5611849565b34801561044b57600080fd5b506102806004356118a2565b34801561046357600080fd5b506102806004356118b7565b34801561047b57600080fd5b5061024c6118cc565b34801561049057600080fd5b506101a1600160a060020a03600435166118db565b3480156104b157600080fd5b506101a1600160a060020a03600435166119fb565b3480156104d257600080fd5b50610204600435611b1b565b3480156104ea57600080fd5b506101a1600435602435611b3a565b34801561050557600080fd5b506101a1600160a060020a036004351661208c565b34801561052657600080fd5b506101a16121ac565b34801561053b57600080fd5b5061024c612279565b34801561055057600080fd5b506101a160046084610144356024810190830135612288565b34801561057557600080fd5b506101a1600160a060020a0360043516612ff5565b34801561059657600080fd5b506105a2600435613115565b60408051600160a060020a039e8f1681529c8e1660208e01529a8d168c8c015298909b1660608b015260808a019690965260a089019490945260c088019290925260e08701526101008601526101208501526101408401526101608301939093526101808201929092529051908190036101a00190f35b34801561062557600080fd5b5061024c61318d565b34801561063a57600080fd5b5061024c61319c565b34801561064f57600080fd5b5061024c6131ab565b34801561066457600080fd5b5061066d6131ba565b6040805160208082528351818301528351919283929083019185019080838360005b838110156106a757818101518382015260200161068f565b50505050905090810190601f1680156106d45780820380516001836020036101000a031916815260200191505b509250505060405180910390f35b6106f833600035600160e060020a0319166131f1565b151561073c576040805160e560020a62461bcd02815260206004820152601f6024820152600080516020613da4833981519152604482015290519081900360640190fd5b60408051348082526020820183815236938301849052600435936024359384938693339360008035600160e060020a031916949092606082018484808284376040519201829003965090945050505050a450506001805474ff0000000000000000000000000000000000000000191674010000000000000000000000000000000000000000179055565b6000806107d1613cf3565b6040805134808252602082018381523693830184905260009384936004359360243593849386933393600160e060020a03198a35169390928a929091606082018484808284376040519201829003965090945050505050a4600654604080517f9c14ee290000000000000000000000000000000000000000000000000000000081523360048201529051600160a060020a0390921691639c14ee29916024808201926020929091908290030181600087803b15801561088f57600080fd5b505af11580156108a3573d6000803e3d6000fd5b505050506040513d60208110156108b957600080fd5b50511515610911576040805160e560020a62461bcd02815260206004820152601f60248201527f4b65726e656c3a3a5f20494e56414c49445f41444d494e5f4143434f554e5400604482015290519081900360640190fd5b60008b8152600a602052604090205460ff1615156109a15760408051818152600d81830152600080516020613d8483398151915260608201526080602082018190526014908201527f4f524445525f444f45535f4e4f545f455849535400000000000000000000000060a082015290518c91600080516020613dc4833981519152919081900360c00190a26110f0565b60008b8152600c602052604090205460ff1615610a305760408051818152600d81830152600080516020613d8483398151915260608201526080602082018190526014908201527f4f524445525f414c52454144595f52455041494400000000000000000000000060a082015290518c91600080516020613dc4833981519152919081900360c00190a26110f0565b60008b8152600d602052604090205460ff1615610abf5760408051818152600d81830152600080516020613d8483398151915260608201526080602082018190526017908201527f4f524445525f414c52454144595f44454641554c54454400000000000000000060a082015290518c91600080516020613dc4833981519152919081900360c00190a26110f0565b610ac98b8b6132fa565b9650610b05878a8a8080601f0160208091040260200160405190810160405280939291908181526020018383808284375061339b945050505050565b60008c815260096020818152604080842081516101a0810183528154600160a060020a03908116808352600184015482168387015260028401548216838601526003840154821660608401526004808501546080850152600585015460a0850152600685015460c0850152600785015460e0850152600885015461010085015296840154610120840152600a840154610140840152600b840154610160840152600c9093015461018083015283517f4209fff1000000000000000000000000000000000000000000000000000000008152908816958101959095529151959b5090995093634209fff1936024808501948390030190829087803b158015610c0b57600080fd5b505af1158015610c1f573d6000803e3d6000fd5b505050506040513d6020811015610c3557600080fd5b50511515610cdb5760408051818152600d81830152600080516020613d8483398151915260608201526080602082018190526022908201527f5349474e45525f4e4f545f415554484f52495a45445f574954485f4143434f5560a08201527f4e5400000000000000000000000000000000000000000000000000000000000060c082015290518c91600080516020613dc4833981519152919081900360e00190a26110f0565b898560400151600160a060020a03166370a0823187600001516040518263ffffffff1660e060020a0281526004018082600160a060020a0316600160a060020a03168152602001915050602060405180830381600087803b158015610d3f57600080fd5b505af1158015610d53573d6000803e3d6000fd5b505050506040513d6020811015610d6957600080fd5b50511015610de95760408051818152600d81830152600080516020613d848339815191526060820152608060208201819052601f908201527f494e53554646494349454e545f42414c414e43455f494e5f4143434f554e540060a082015290518c91600080516020613dc4833981519152919081900360c00190a26110f0565b610e1a610e0f610e0187608001518860c001516133bd565b670de0b6b3a76400006133e5565b8661014001516133fa565b9350610e2a85608001518561340a565b925089831115610eac5760408051818152600d81830152600080516020613d8483398151915260608201526080602082018190526016908201527f494e53554646494349454e545f52455041594d454e540000000000000000000060a082015290518c91600080516020613dc4833981519152919081900360c00190a26110f0565b60008561014001511115610f5e5760025485516040808801516005546101408a015183517f5e61e1c8000000000000000000000000000000000000000000000000000000008152600160a060020a03958616600482015292851660248401529084166044830152606482015290519190921691635e61e1c891608480830192600092919082900301818387803b158015610f4557600080fd5b505af1158015610f59573d6000803e3d6000fd5b505050505b60048054604080880151885182517f106689a5000000000000000000000000000000000000000000000000000000008152600160a060020a0392831695810195909552811660248501526044840187905260648401889052600060848501819052915192169263106689a59260a4808301939282900301818387803b158015610fe657600080fd5b505af1158015610ffa573d6000803e3d6000fd5b50506002546060880151885160a08a0151604080517fbeabacc8000000000000000000000000000000000000000000000000000000008152600160a060020a039485166004820152928416602484015260448301919091525191909216935063beabacc89250606480830192600092919082900301818387803b15801561108057600080fd5b505af1158015611094573d6000803e3d6000fd5b50505050610180850180516000908152600c6020908152604091829020805460ff19166001179055915181518d8152915190927f2d538ae573a2661798539a62b24b14e263cf75f5597027ac2ecfc44ba8ddf9e3928290030190a25b5050505050505050505050565b61111333600035600160e060020a0319166131f1565b1515611157576040805160e560020a62461bcd02815260206004820152601f6024820152600080516020613da4833981519152604482015290519081900360640190fd5b60018054600160a060020a031916600160a060020a0383811691909117918290556040519116907fce241d7ca1f669fee44b6fc00b8eba2df3bb514eed0f6f668f8f89096e81ed9490600090a250565b60006111b1613cf3565b50600082815260096020818152604080842081516101a0810183528154600160a060020a0390811682526001830154811694820194909452600282015484169281019290925260038101549092166060820152600482015460808201819052600583015460a0830152600683015460c08301819052600784015460e0840152600884015461010084015293830154610120830152600a830154610140830152600b830154610160830152600c90920154610180820152929182916112879161127c91610e01916133bd565b8461014001516133fa565b915061129783608001518361340a565b95945050505050565b60408051348082526020820183815236938301849052600435936024359384938693339360008035600160e060020a031916949092606082018484808284376040519201829003965090945050505050a461130733600035600160e060020a0319166131f1565b151561134b576040805160e560020a62461bcd02815260206004820152601f6024820152600080516020613da4833981519152604482015290519081900360640190fd5b82600160a060020a038116151561139a576040805160e560020a62461bcd0281526020600482015260186024820152600080516020613e04833981519152604482015290519081900360640190fd5b505060068054600160a060020a031916600160a060020a03939093169290921790915550565b600754600160a060020a031681565b600d6020526000908152604090205460ff1681565b600160a060020a0381166000908152600b602090815260409182902080548351818402810184019094528084526060939283018282801561144557602002820191906000526020600020905b81548152600190910190602001808311611430575b505050505090505b919050565b600080600080600080600080600080600061146b613cf3565b600960008e600019166000191681526020019081526020016000206101a060405190810160405290816000820160009054906101000a9004600160a060020a0316600160a060020a0316600160a060020a031681526020016001820160009054906101000a9004600160a060020a0316600160a060020a0316600160a060020a031681526020016002820160009054906101000a9004600160a060020a0316600160a060020a0316600160a060020a031681526020016003820160009054906101000a9004600160a060020a0316600160a060020a0316600160a060020a03168152602001600482015481526020016005820154815260200160068201548152602001600782015481526020016008820154815260200160098201548152602001600a8201548152602001600b8201548152602001600c8201546000191660001916815250509050806000015181602001518260400151836060015184608001518560a001518660c001518761010001518861012001518961014001518a61016001519b509b509b509b509b509b509b509b509b509b509b505091939597999b90929496989a50565b600354600160a060020a031681565b60408051348082526020820183815236938301849052600435936024359384938693339360008035600160e060020a031916949092606082018484808284376040519201829003965090945050505050a461168a33600035600160e060020a0319166131f1565b15156116ce576040805160e560020a62461bcd02815260206004820152601f6024820152600080516020613da4833981519152604482015290519081900360640190fd5b82600160a060020a038116151561171d576040805160e560020a62461bcd0281526020600482015260186024820152600080516020613e04833981519152604482015290519081900360640190fd5b505060078054600160a060020a031916600160a060020a03939093169290921790915550565b600b6020528160005260406000208181548110151561175e57fe5b90600052602060002001600091509150505481565b60015474010000000000000000000000000000000000000000900460ff1681565b600654600160a060020a031681565b6117b933600035600160e060020a0319166131f1565b15156117fd576040805160e560020a62461bcd02815260206004820152601f6024820152600080516020613da4833981519152604482015290519081900360640190fd5b60008054600160a060020a031916600160a060020a03838116919091178083556040519116917f1abebea81bfa2637f28358c371278fb15ede7ea8dd28d2e03b112ff6d936ada491a250565b6060600880548060200260200160405190810160405280929190818152602001828054801561189857602002820191906000526020600020905b81548152600190910190602001808311611883575b5050505050905090565b600c6020526000908152604090205460ff1681565b600a6020526000908152604090205460ff1681565b600154600160a060020a031681565b60408051348082526020820183815236938301849052600435936024359384938693339360008035600160e060020a031916949092606082018484808284376040519201829003965090945050505050a461194233600035600160e060020a0319166131f1565b1515611986576040805160e560020a62461bcd02815260206004820152601f6024820152600080516020613da4833981519152604482015290519081900360640190fd5b82600160a060020a03811615156119d5576040805160e560020a62461bcd0281526020600482015260186024820152600080516020613e04833981519152604482015290519081900360640190fd5b505060058054600160a060020a031916600160a060020a03939093169290921790915550565b60408051348082526020820183815236938301849052600435936024359384938693339360008035600160e060020a031916949092606082018484808284376040519201829003965090945050505050a4611a6233600035600160e060020a0319166131f1565b1515611aa6576040805160e560020a62461bcd02815260206004820152601f6024820152600080516020613da4833981519152604482015290519081900360640190fd5b82600160a060020a0381161515611af5576040805160e560020a62461bcd0281526020600482015260186024820152600080516020613e04833981519152604482015290519081900360640190fd5b505060048054600160a060020a031916600160a060020a03939093169290921790915550565b6008805482908110611b2957fe5b600091825260209091200154905081565b611b42613cf3565b604080513480825260208201838152369383018490526000936060936004359360243593849386933393600160e060020a03198b35169390928b929091818c018484808284376040519201829003965090945050505050a4600654604080517f9c14ee290000000000000000000000000000000000000000000000000000000081523360048201529051600160a060020a0390921691639c14ee29916024808201926020929091908290030181600087803b158015611c0057600080fd5b505af1158015611c14573d6000803e3d6000fd5b505050506040513d6020811015611c2a57600080fd5b50511515611c82576040805160e560020a62461bcd02815260206004820152601f60248201527f4b65726e656c3a3a5f20494e56414c49445f41444d494e5f4143434f554e5400604482015290519081900360640190fd5b6000878152600a602052604090205460ff161515611d245760408051818152600f818301527f4b65726e656c3a3a70726f63657373000000000000000000000000000000000060608201526080602082018190526014908201527f4f524445525f444f45535f4e4f545f455849535400000000000000000000000060a082015290518891600080516020613dc4833981519152919081900360c00190a2612083565b6000878152600c602052604090205460ff1615611dc55760408051818152600f818301527f4b65726e656c3a3a70726f63657373000000000000000000000000000000000060608201526080602082018190526014908201527f4f524445525f414c52454144595f52455041494400000000000000000000000060a082015290518891600080516020613dc4833981519152919081900360c00190a2612083565b6000878152600d602052604090205460ff1615611e665760408051818152600f818301527f4b65726e656c3a3a70726f63657373000000000000000000000000000000000060608201526080602082018190526017908201527f4f524445525f414c52454144595f44454641554c54454400000000000000000060a082015290518891600080516020613dc4833981519152919081900360c00190a2612083565b600087815260096020818152604080842081516101a0810183528154600160a060020a03908116825260018301548116828601526002830154811682850152600383015416606082015260048201546080820152600582015460a0820152600682015460c0820152600782015460e08201526008820154610100820190815294820154610120820152600a820154610140820152600b820154610160820152600c9091015461018082015281519283019091528382529151919750919550909350421115611f6d5760408051808201909152600f81527f4455455f444154455f50415353454400000000000000000000000000000000006020820152600194509250611fb8565b611f77858761341a565b1515611fb85760408051808201909152601181527f434f4c4c41544552414c5f554e5341464500000000000000000000000000000060208201526001945092505b6000878152600d60205260409020805460ff1916851580159190911790915561208357611fe48561349c565b61018085015160408051602080825286518183015286517f98e393d0760ecfe8e3907134d357e8a4fa5b37e364c3baeb0b059a98317638c4938893928392918301919085019080838360005b83811015612048578181015183820152602001612030565b50505050905090810190601f1680156120755780820380516001836020036101000a031916815260200191505b509250505060405180910390a25b50505050505050565b60408051348082526020820183815236938301849052600435936024359384938693339360008035600160e060020a031916949092606082018484808284376040519201829003965090945050505050a46120f333600035600160e060020a0319166131f1565b1515612137576040805160e560020a62461bcd02815260206004820152601f6024820152600080516020613da4833981519152604482015290519081900360640190fd5b82600160a060020a0381161515612186576040805160e560020a62461bcd0281526020600482015260186024820152600080516020613e04833981519152604482015290519081900360640190fd5b505060038054600160a060020a031916600160a060020a03939093169290921790915550565b6121c233600035600160e060020a0319166131f1565b1515612206576040805160e560020a62461bcd02815260206004820152601f6024820152600080516020613da4833981519152604482015290519081900360640190fd5b60408051348082526020820183815236938301849052600435936024359384938693339360008035600160e060020a031916949092606082018484808284376040519201829003965090945050505050a450506001805474ff000000000000000000000000000000000000000019169055565b600054600160a060020a031681565b612290613cf3565b604080513480825260208201838152369383018490526000936004359360243593849386933393600160e060020a03198a351693928a929190606082018484808284376040519201829003965090945050505050a4600654604080517f9c14ee290000000000000000000000000000000000000000000000000000000081523360048201529051600160a060020a0390921691639c14ee29916024808201926020929091908290030181600087803b15801561234b57600080fd5b505af115801561235f573d6000803e3d6000fd5b505050506040513d602081101561237557600080fd5b505115156123cd576040805160e560020a62461bcd02815260206004820152601f60248201527f4b65726e656c3a3a5f20494e56414c49445f41444d494e5f4143434f554e5400604482015290519081900360640190fd5b60015474010000000000000000000000000000000000000000900460ff1615612440576040805160e560020a62461bcd02815260206004820152601960248201527f445353746f703a3a5f20464541545552455f53544f5050454400000000000000604482015290519081900360640190fd5b604080516080818101909252612487918a90600490839083908082843750506040805160c081810190925293508c9250600691508390839080828437506138fe9350505050565b93506124c884610180015187878080601f0160208091040260200160405190810160405280939291908181526020018383808284375061339b945050505050565b92508360200151600160a060020a031683600160a060020a03161415156125645761018084015160408051818152601381830152600080516020613de483398151915260608201526080602082018190526018908201527f5349474e45525f4e4f545f4f524445525f43524541544f52000000000000000060a08201529051600080516020613dc48339815191529181900360c00190a2612feb565b6101808401516000908152600a602052604090205460ff16156125fc5761018084015160408051818152601381830152600080516020613de483398151915260608201526080602082018190526014908201527f4f524445525f414c52454144595f45584953545300000000000000000000000060a08201529051600080516020613dc48339815191529181900360c00190a2612feb565b6003548451604080517f25ca4c9c000000000000000000000000000000000000000000000000000000008152600160a060020a039283166004820152905191909216916325ca4c9c9160248083019260209291908290030181600087803b15801561266657600080fd5b505af115801561267a573d6000803e3d6000fd5b505050506040513d602081101561269057600080fd5b505115156127135761018084015160408051818152601381830152600080516020613de483398151915260608201526080602082018190526015908201527f494e56414c49445f4f524445525f4143434f554e54000000000000000000000060a08201529051600080516020613dc48339815191529181900360c00190a2612feb565b8360000151600160a060020a0316634209fff1846040518263ffffffff1660e060020a0281526004018082600160a060020a0316600160a060020a03168152602001915050602060405180830381600087803b15801561277257600080fd5b505af1158015612786573d6000803e3d6000fd5b505050506040513d602081101561279c57600080fd5b505115156128455761018084015160408051818152601381830152600080516020613de483398151915260608201526080602082018190526022908201527f5349474e45525f4e4f545f415554484f52495a45445f574954485f4143434f5560a08201527f4e5400000000000000000000000000000000000000000000000000000000000060c08201529051600080516020613dc48339815191529181900360e00190a2612feb565b61284e846139b9565b15156128cf5761018084015160408051818152601381830152600080516020613de483398151915260608201526080602082018190526018908201527f494e56414c49445f4f524445525f504152414d4554455253000000000000000060a08201529051600080516020613dc48339815191529181900360c00190a2612feb565b8360a001518460600151600160a060020a03166370a0823186600001516040518263ffffffff1660e060020a0281526004018082600160a060020a0316600160a060020a03168152602001915050602060405180830381600087803b15801561293757600080fd5b505af115801561294b573d6000803e3d6000fd5b505050506040513d602081101561296157600080fd5b50511015612a0a5761018084015160408051818152601381830152600080516020613de483398151915260608201526080602082018190526022908201527f494e53554646494349454e545f434f4c4c41544552414c5f494e5f4143434f5560a08201527f4e5400000000000000000000000000000000000000000000000000000000000060c08201529051600080516020613dc48339815191529181900360e00190a2612feb565b83608001518460400151600160a060020a03166370a08231600460009054906101000a9004600160a060020a0316600160a060020a031663e2fdcc176040518163ffffffff1660e060020a028152600401602060405180830381600087803b158015612a7557600080fd5b505af1158015612a89573d6000803e3d6000fd5b505050506040513d6020811015612a9f57600080fd5b50516040805160e060020a63ffffffff8516028152600160a060020a0390921660048301525160248083019260209291908290030181600087803b158015612ae657600080fd5b505af1158015612afa573d6000803e3d6000fd5b505050506040513d6020811015612b1057600080fd5b50511015612b935761018084015160408051818152601381830152600080516020613de48339815191526060820152608060208201819052601d908201527f494e53554646494349454e545f46554e44535f494e5f5245534552564500000060a08201529051600080516020613dc48339815191529181900360c00190a2612feb565b6008846101800151908060018154018082558091505090600182039060005260206000200160009091929091909150906000191690555083600960008661018001516000191660001916815260200190815260200160002060008201518160000160006101000a815481600160a060020a030219169083600160a060020a0316021790555060208201518160010160006101000a815481600160a060020a030219169083600160a060020a0316021790555060408201518160020160006101000a815481600160a060020a030219169083600160a060020a0316021790555060608201518160030160006101000a815481600160a060020a030219169083600160a060020a031602179055506080820151816004015560a0820151816005015560c0820151816006015560e082015181600701556101008201518160080155610120820151816009015561014082015181600a015561016082015181600b015561018082015181600c01906000191690559050506001600a60008661018001516000191660001916815260200190815260200160002060006101000a81548160ff021916908315150217905550600b60008560000151600160a060020a0316600160a060020a031681526020019081526020016000208461018001519080600181540180825580915050906001820390600052602060002001600090919290919091509060001916905550600260009054906101000a9004600160a060020a0316600160a060020a0316635e61e1c885600001518660600151600260009054906101000a9004600160a060020a03168860a001516040518563ffffffff1660e060020a0281526004018085600160a060020a0316600160a060020a0316815260200184600160a060020a0316600160a060020a0316815260200183600160a060020a0316600160a060020a03168152602001828152602001945050505050600060405180830381600087803b158015612e6b57600080fd5b505af1158015612e7f573d6000803e3d6000fd5b505060048054604080890151895160808b015183517f8bfb07c9000000000000000000000000000000000000000000000000000000008152600160a060020a039384169681019690965290821660248601526044850152905191169350638bfb07c99250606480830192600092919082900301818387803b158015612f0357600080fd5b505af1158015612f17573d6000803e3d6000fd5b505050508360400151600160a060020a03168460000151600160a060020a0316856101800151600019167f42436fe8b8c5070e5a6cb3c26e7bc2e889f99c1857c1a1323c54b13fedc655f68760600151886020015189608001518a60a001518b60c001518c61010001518d61014001516040518088600160a060020a0316600160a060020a0316815260200187600160a060020a0316600160a060020a0316815260200186815260200185815260200184815260200183815260200182815260200197505050505050505060405180910390a45b5050505050505050565b60408051348082526020820183815236938301849052600435936024359384938693339360008035600160e060020a031916949092606082018484808284376040519201829003965090945050505050a461305c33600035600160e060020a0319166131f1565b15156130a0576040805160e560020a62461bcd02815260206004820152601f6024820152600080516020613da4833981519152604482015290519081900360640190fd5b82600160a060020a03811615156130ef576040805160e560020a62461bcd0281526020600482015260186024820152600080516020613e04833981519152604482015290519081900360640190fd5b505060028054600160a060020a031916600160a060020a03939093169290921790915550565b600960208190526000918252604090912080546001820154600283015460038401546004850154600586015460068701546007880154600889015499890154600a8a0154600b8b0154600c909b0154600160a060020a039a8b169c998b169b988b169a9097169895979496939592949293919290918d565b600454600160a060020a031681565b600254600160a060020a031681565b600554600160a060020a031681565b60408051808201909152600581527f312e302e30000000000000000000000000000000000000000000000000000000602082015281565b6000600160a060020a03831630141561320c575060016132f4565b600154600160a060020a038481169116141561322a575060016132f4565b600054600160a060020a03161515613244575060006132f4565b60008054604080517fb7009613000000000000000000000000000000000000000000000000000000008152600160a060020a038781166004830152306024830152600160e060020a0319871660448301529151919092169263b700961392606480820193602093909283900390910190829087803b1580156132c557600080fd5b505af11580156132d9573d6000803e3d6000fd5b505050506040513d60208110156132ef57600080fd5b505190505b92915050565b604080516c010000000000000000000000003002602080830191909152603482018590526054808301859052835180840390910181526074909201928390528151600093918291908401908083835b602083106133685780518252601f199092019160209182019101613349565b5181516020939093036101000a600019018019909116921691909117905260405192018290039091209695505050505050565b60006133b6826133aa85613a99565b9063ffffffff613b4316565b9392505050565b60008115806133da5750508082028282828115156133d757fe5b04145b15156132f457600080fd5b600081838115156133f257fe5b049392505050565b808203828111156132f457600080fd5b808201828110156132f457600080fd5b6000806000806000613433610e018860a00151886133bd565b935061344a610e0188608001518960c001516133bd565b925061346161345a8460036133bd565b60646133e5565b915061347a61347488608001518561340a565b8361340a565b90508084101561348d5760009450613492565b600194505b5050505092915050565b6000806000806134b7610e0186608001518760c001516133bd565b93506134c785608001518561340a565b60075460025460608801516040808a015160a08b015182517fc83ec89d000000000000000000000000000000000000000000000000000000008152600160a060020a039586166004820152938516602485015290841660448401526064830152608482018590528051949750919092169263c83ec89d9260a48082019392918290030181600087803b15801561355c57600080fd5b505af1158015613570573d6000803e3d6000fd5b505050506040513d604081101561358657600080fd5b50805160209091015190925090508282106137a057600085610140015111156136425760025460408087015160055461014089015183517fbeabacc8000000000000000000000000000000000000000000000000000000008152600160a060020a03938416600482015291831660248301526044820152915192169163beabacc89160648082019260009290919082900301818387803b15801561362957600080fd5b505af115801561363d573d6000803e3d6000fd5b505050505b6004546040860151600254610140880151600160a060020a039384169363106689a5939216906136739087906133fa565b61368f613684888c608001516133fa565b8b61014001516133fa565b6040805160e060020a63ffffffff8816028152600160a060020a03958616600482015293909416602484015260448301919091526064820152600060848201819052915160a4808301939282900301818387803b1580156136ef57600080fd5b505af1158015613703573d6000803e3d6000fd5b505060025460608801518851604080517fbeabacc8000000000000000000000000000000000000000000000000000000008152600160a060020a0393841660048201529183166024830152604482018790525191909216935063beabacc89250606480830192600092919082900301818387803b15801561378357600080fd5b505af1158015613797573d6000803e3d6000fd5b505050506138f7565b82821080156137b3575084608001518210155b1561384a5760045460408601516002546080880151600160a060020a039384169363106689a59392169086906137ea9082906133fa565b6040805160e060020a63ffffffff8816028152600160a060020a03958616600482015293909416602484015260448301919091526064820152600060848201819052915160a4808301939282900301818387803b15801561378357600080fd5b60045460408601516002546080880151600160a060020a039384169363106689a593921690869060009061387e90836133fa565b6040805160e060020a63ffffffff8916028152600160a060020a039687166004820152949095166024850152604484019290925260648301526084820152905160a480830192600092919082900301818387803b1580156138de57600080fd5b505af11580156138f2573d6000803e3d6000fd5b505050505b5050505050565b613906613cf3565b61390e613cf3565b604080516101a0810182528551600160a060020a03908116825260208088015182168184015287840151821683850152606080890151909216828401528651608084015286015160a08301529185015160c0820152908401805160e08301525161010082019061397f90429061340a565b8152608080860151602083015260a08601516040830152426060830152600091015290506139ac81613c18565b6101808201529392505050565b8051600090600160a060020a031615806139de57506020820151600160a060020a0316155b806139f457506040820151600160a060020a0316155b80613a0a57506060820151600160a060020a0316155b80613a2e57508160400151600160a060020a03168260600151600160a060020a0316145b80613a3e57506000826080015111155b80613a4e575060008260a0015111155b80613a5e575060008260c0015111155b80613a73575081610160015182610100015111155b80613a845750600082610120015111155b15613a915750600061144d565b506001919050565b604080517f19457468657265756d205369676e6564204d6573736167653a0a333200000000602080830191909152603c80830185905283518084039091018152605c909201928390528151600093918291908401908083835b60208310613b115780518252601f199092019160209182019101613af2565b5181516020939093036101000a6000190180199091169216919091179052604051920182900390912095945050505050565b60008060008084516041141515613b5d5760009350613c0f565b50505060208201516040830151606084015160001a601b60ff82161015613b8257601b015b8060ff16601b14158015613b9a57508060ff16601c14155b15613ba85760009350613c0f565b60408051600080825260208083018085528a905260ff8516838501526060830187905260808301869052925160019360a0808501949193601f19840193928390039091019190865af1158015613c02573d6000803e3d6000fd5b5050506020604051035193505b50505092915050565b80516040808301516060840151608085015160a086015160c087015160e08801516101208901516101408a015188516c01000000000000000000000000308102602080840191909152600160a060020a039c8d1682026034840152998c16810260488301529a909716909902605c8701526070860194909452609085019290925260b084015260d083015260f0820152610110808201949094528251808203909401845261013001918290528251600093929182919084019080838360208310613b115780518252601f199092019160209182019101613af2565b6101a0604051908101604052806000600160a060020a031681526020016000600160a060020a031681526020016000600160a060020a031681526020016000600160a060020a03168152602001600081526020016000815260200160008152602001600081526020016000815260200160008152602001600081526020016000815260200160008019168152509056004b65726e656c3a3a7265706179000000000000000000000000000000000000004453417574683a3a5f2053454e4445525f4e4f545f415554484f52495a454400db0b341562703a7cbd47efa0b024b1ed2e3c68e2d313e46d276db9a46d8a6f804b65726e656c3a3a6372656174654f72646572000000000000000000000000005574696c733a3a5f20494e56414c49445f414444524553530000000000000000a165627a7a72305820df49bfe4c64229c7fde5e4f6bad7437a1fb048d7c198aa2322f1885aab21e3910029",
  "source": "pragma solidity 0.4.24;\n\nimport \"./lib/dappsys/DSThing.sol\";\nimport \"./lib/dappsys/DSStop.sol\";\nimport \"./lib/tokens/ERC20.sol\";\nimport \"./AccountFactory.sol\";\nimport \"./Account.sol\";\nimport \"./Escrow.sol\";\nimport \"./Reserve.sol\";\nimport \"./KyberConnector.sol\";\nimport \"./Utils.sol\";\nimport \"./Utils2.sol\";\nimport \"./ErrorUtils.sol\";\n\n\n/**\n * @author Rohit Soni (rohit@nuofox.com)\n */\ncontract Kernel is DSStop, DSThing, Utils, Utils2, ErrorUtils {\n\n    Escrow public escrow;\n    AccountFactory public accountFactory;\n    Reserve public reserve;\n    address public feeWallet;\n    Config public config;\n    KyberConnector public kyberConnector;\n\n    string constant public VERSION = \"1.0.0\";\n\n    constructor\n    (\n        Escrow _escrow,\n        AccountFactory _accountFactory,\n        Reserve _reserve,\n        address _feeWallet,\n        Config _config,\n        KyberConnector _kyberConnector\n    )\n    public\n    {\n        escrow = _escrow;\n        accountFactory = _accountFactory;\n        reserve = _reserve;\n        feeWallet = _feeWallet;\n        config = _config;\n        kyberConnector = _kyberConnector;\n    }\n\n    function setEscrow(Escrow _escrow)\n        public\n        note\n        auth\n        addressValid(_escrow)\n    {\n        escrow = _escrow;\n    }\n\n    function setAccountFactory(AccountFactory _accountFactory)\n        public\n        note\n        auth\n        addressValid(_accountFactory)\n    {\n        accountFactory = _accountFactory;\n    }\n\n    function setReserve(Reserve _reserve)\n        public\n        note\n        auth\n        addressValid(_reserve)\n    {\n        reserve = _reserve;\n    }\n\n    function setConfig(Config _config)\n        public\n        note\n        auth\n        addressValid(_config)\n    {\n        config = _config;\n    }\n\n    function setKyberConnector(KyberConnector _kyberConnector)\n        public\n        note\n        auth\n        addressValid(_kyberConnector)\n    {\n        kyberConnector = _kyberConnector;\n    }\n\n    function setFeeWallet(address _feeWallet)\n        public\n        note\n        auth\n        addressValid(_feeWallet)\n    {\n        feeWallet = _feeWallet;\n    }\n\n    event LogOrderCreated(\n        bytes32 indexed orderHash,\n        address indexed account,\n        address indexed principalToken,\n        address collateralToken,\n        address byUser,\n        uint principalAmount,\n        uint collateralAmount,\n        uint premium, // should be in wad?\n        uint expirationTimestamp,\n        uint fee\n    );\n\n    event LogOrderRepaid(\n        bytes32 indexed orderHash,\n        uint  valueRepaid\n    );\n\n    event LogOrderDefaulted(\n        bytes32 indexed orderHash,\n        string reason\n    );\n\n    struct Order {\n        address account;\n        address byUser;\n        address principalToken;\n        address collateralToken;\n        uint principalAmount;\n        uint collateralAmount;\n        uint premium;\n        uint duration;\n        uint expirationTimestamp;\n        uint salt;\n        uint fee;\n        uint createdTimestamp;\n        bytes32 orderHash;\n    }\n\n    bytes32[] public orders;\n    mapping (bytes32 => Order) public hashToOrder;\n    mapping (bytes32 => bool) public isOrder;\n    mapping (address => bytes32[]) public accountToOrders;\n\n    mapping (bytes32 => bool) public isRepaid;\n    mapping (bytes32 => bool) public isDefaulted;\n\n    modifier onlyAdmin() {\n        require(config.isAdminValid(msg.sender), \"Kernel::_ INVALID_ADMIN_ACCOUNT\");\n        _;\n    }\n\n    // add price to check collateralisation ratio?\n    function createOrder\n    (\n        address[4] _orderAddresses,\n        uint[6] _orderValues,\n        bytes _signature\n    )\n        external\n        note\n        onlyAdmin\n        whenNotStopped\n    {\n        Order memory order = _composeOrder(_orderAddresses, _orderValues);\n        address signer = _recoverSigner(order.orderHash, _signature);\n\n        if(signer != order.byUser) {\n            emit LogErrorWithHintBytes32(order.orderHash, \"Kernel::createOrder\",\"SIGNER_NOT_ORDER_CREATOR\");\n            return;\n        }\n\n        if(isOrder[order.orderHash]){\n            emit LogErrorWithHintBytes32(order.orderHash, \"Kernel::createOrder\",\"ORDER_ALREADY_EXISTS\");\n            return;\n        }\n\n        if(!accountFactory.isAccount(order.account)){\n            emit LogErrorWithHintBytes32(order.orderHash, \"Kernel::createOrder\",\"INVALID_ORDER_ACCOUNT\");\n            return;\n        }\n\n        if(!Account(order.account).isUser(signer)) {\n            emit LogErrorWithHintBytes32(order.orderHash, \"Kernel::createOrder\",\"SIGNER_NOT_AUTHORIZED_WITH_ACCOUNT\");\n            return;\n        }\n\n        if(!_isOrderValid(order)){\n            emit LogErrorWithHintBytes32(order.orderHash, \"Kernel::createOrder\",\"INVALID_ORDER_PARAMETERS\");\n            return;\n        }\n\n        if(ERC20(order.collateralToken).balanceOf(order.account) < order.collateralAmount){\n            emit LogErrorWithHintBytes32(order.orderHash, \"Kernel::createOrder\",\"INSUFFICIENT_COLLATERAL_IN_ACCOUNT\");\n            return;\n        }\n\n        if(ERC20(order.principalToken).balanceOf(reserve.escrow()) < order.principalAmount){\n            emit LogErrorWithHintBytes32(order.orderHash, \"Kernel::createOrder\",\"INSUFFICIENT_FUNDS_IN_RESERVE\");\n            return;\n        }\n\n        orders.push(order.orderHash);\n        hashToOrder[order.orderHash] = order;\n        isOrder[order.orderHash] = true;\n        accountToOrders[order.account].push(order.orderHash);\n\n        escrow.transferFromAccount(order.account, order.collateralToken, address(escrow), order.collateralAmount);\n        reserve.release(order.principalToken, order.account, order.principalAmount);\n\n        emit LogOrderCreated(\n            order.orderHash,\n            order.account,\n            order.principalToken,\n            order.collateralToken,\n            order.byUser,\n            order.principalAmount,\n            order.collateralAmount,\n            order.premium,\n            order.expirationTimestamp,\n            order.fee\n        );\n    }\n\n    function getExpectedRepayValue(bytes32 _orderHash)\n        public\n        view\n        returns (uint)\n    {\n        Order memory order = hashToOrder[_orderHash];\n        uint profits = sub(div(mul(order.principalAmount, order.premium), WAD), order.fee);\n        uint valueToRepay = add(order.principalAmount, profits);\n\n        return valueToRepay;\n    }\n\n    function repay\n    (\n        bytes32 _orderHash,\n        uint _value,\n        bytes _signature\n    )\n        external\n        note\n        onlyAdmin\n    {\n        if(!isOrder[_orderHash]){\n            emit LogErrorWithHintBytes32(_orderHash, \"Kernel::repay\",\"ORDER_DOES_NOT_EXIST\");\n            return;\n        }\n\n        if(isRepaid[_orderHash]){\n            emit LogErrorWithHintBytes32(_orderHash, \"Kernel::repay\",\"ORDER_ALREADY_REPAID\");\n            return;\n        }\n\n        if(isDefaulted[_orderHash]){\n            emit LogErrorWithHintBytes32(_orderHash, \"Kernel::repay\",\"ORDER_ALREADY_DEFAULTED\");\n            return;\n        }\n\n        bytes32 repayOrderHash = _generateRepayOrderHash(_orderHash, _value);\n        address signer = _recoverSigner(repayOrderHash, _signature);\n\n        Order memory order = hashToOrder[_orderHash];\n\n        if(!Account(order.account).isUser(signer)){\n            emit LogErrorWithHintBytes32(_orderHash, \"Kernel::repay\",\"SIGNER_NOT_AUTHORIZED_WITH_ACCOUNT\");\n            return;\n        }\n\n        if(ERC20(order.principalToken).balanceOf(order.account) < _value){\n            emit LogErrorWithHintBytes32(_orderHash, \"Kernel::repay\",\"INSUFFICIENT_BALANCE_IN_ACCOUNT\");\n            return;\n        }\n\n        uint profits = sub(div(mul(order.principalAmount, order.premium), WAD), order.fee);\n        uint valueToRepay = add(order.principalAmount, profits);\n\n        if(valueToRepay > _value){\n            emit LogErrorWithHintBytes32(_orderHash, \"Kernel::repay\",\"INSUFFICIENT_REPAYMENT\");\n            return;\n        }\n\n        if(order.fee > 0) {\n            escrow.transferFromAccount(order.account, order.principalToken, feeWallet, order.fee);\n        }\n\n        reserve.lock(order.principalToken, order.account, valueToRepay, profits, 0);\n        escrow.transfer(order.collateralToken, order.account, order.collateralAmount);\n\n        isRepaid[order.orderHash] = true;\n\n        emit LogOrderRepaid(\n            order.orderHash,\n            _value\n        );\n    }\n\n    function process\n    (\n        bytes32 _orderHash,\n        uint _principalPerCollateral // in WAD\n    )\n        external\n        note\n        onlyAdmin\n    {\n        if(!isOrder[_orderHash]){\n            emit LogErrorWithHintBytes32(_orderHash, \"Kernel::process\",\"ORDER_DOES_NOT_EXIST\");\n            return;\n        }\n\n        if(isRepaid[_orderHash]){\n            emit LogErrorWithHintBytes32(_orderHash, \"Kernel::process\",\"ORDER_ALREADY_REPAID\");\n            return;\n        }\n\n        if(isDefaulted[_orderHash]){\n            emit LogErrorWithHintBytes32(_orderHash, \"Kernel::process\",\"ORDER_ALREADY_DEFAULTED\");\n            return;\n        }\n\n        Order memory order = hashToOrder[_orderHash];\n\n        bool isDefault = false;\n        string memory reason = \"\";\n\n        if(now > order.expirationTimestamp) {\n            isDefault = true;\n            reason = \"DUE_DATE_PASSED\";\n        } else if (!_isCollateralizationSafe(order, _principalPerCollateral)) {\n            isDefault = true;\n            reason = \"COLLATERAL_UNSAFE\";\n        }\n\n        isDefaulted[_orderHash] = isDefault;\n\n        if(isDefault) {\n            _performLiquidation(order);\n            emit LogOrderDefaulted(order.orderHash, reason);\n        }\n\n    }\n\n    function _performLiquidation(Order _order)\n        internal\n    {\n        uint premiumValue = div(mul(_order.principalAmount, _order.premium), WAD);\n        uint valueToRepay = add(_order.principalAmount, premiumValue);\n\n        uint principalFromCollateral;\n        uint collateralLeft;\n\n        (principalFromCollateral, collateralLeft) = kyberConnector.tradeWithOutputFixed(\n            escrow,\n            ERC20(_order.collateralToken),\n            ERC20(_order.principalToken),\n            _order.collateralAmount,\n            valueToRepay\n        );\n\n        if (principalFromCollateral >= valueToRepay) {\n            if(_order.fee > 0) {\n                escrow.transfer(_order.principalToken, feeWallet, _order.fee);\n            }\n\n            reserve.lock(\n                _order.principalToken,\n                escrow,\n                sub(principalFromCollateral, _order.fee),\n                sub(sub(principalFromCollateral,_order.principalAmount), _order.fee),\n                0\n            );\n\n            escrow.transfer(_order.collateralToken, _order.account, collateralLeft);\n\n        } else if((principalFromCollateral < valueToRepay) && (principalFromCollateral >= _order.principalAmount)) {\n\n            reserve.lock(\n                _order.principalToken,\n                escrow,\n                principalFromCollateral,\n                sub(principalFromCollateral, _order.principalAmount),\n                0\n            );\n\n        } else {\n\n            reserve.lock(\n                _order.principalToken,\n                escrow,\n                principalFromCollateral,\n                0,\n                sub(_order.principalAmount, principalFromCollateral)\n            );\n\n        }\n    }\n\n    function _isCollateralizationSafe(Order _order, uint _principalPerCollateral)\n        internal\n        pure\n        returns (bool)\n    {\n        uint totalCollateralValueInPrincipal = div(\n            mul(_order.collateralAmount, _principalPerCollateral),\n            WAD);\n\n        uint premiumValue = div(mul(_order.principalAmount, _order.premium), WAD);\n        uint premiumValueBuffer = div(mul(premiumValue, 3), 100); // hardcoded -> can be passed through order?\n        uint valueToRepay = add(add(_order.principalAmount, premiumValue), premiumValueBuffer);\n\n        if (totalCollateralValueInPrincipal < valueToRepay) {\n            return false;\n        }\n\n        return true;\n    }\n\n    function _generateRepayOrderHash\n    (\n        bytes32 _orderHash,\n        uint _value\n    )\n        internal\n        view\n        returns (bytes32 _repayOrderHash)\n    {\n        return keccak256(\n            abi.encodePacked(\n                address(this),\n                _orderHash,\n                _value\n            )\n        );\n    }\n\n    function _isOrderValid(Order _order)\n        internal\n        pure\n        returns (bool)\n    {\n        if(_order.account == address(0) || _order.byUser == address(0)\n         || _order.principalToken == address(0) || _order.collateralToken == address(0)\n         || (_order.collateralToken == _order.principalToken)\n         || _order.principalAmount <= 0 || _order.collateralAmount <= 0\n         || _order.premium <= 0\n         || _order.expirationTimestamp <= _order.createdTimestamp || _order.salt <= 0) {\n            return false;\n        }\n\n        return true;\n    }\n\n    function _composeOrder\n    (\n        address[4] _orderAddresses,\n        uint[6] _orderValues\n    )\n        internal\n        view\n        returns (Order _order)\n    {\n        Order memory order = Order({\n            account: _orderAddresses[0],\n            byUser: _orderAddresses[1],\n            principalToken: _orderAddresses[2],\n            collateralToken: _orderAddresses[3],\n            principalAmount: _orderValues[0],\n            collateralAmount: _orderValues[1],\n            premium: _orderValues[2],\n            duration: _orderValues[3],\n            expirationTimestamp: add(now, _orderValues[3]),\n            salt: _orderValues[4],\n            fee: _orderValues[5],\n            createdTimestamp: now,\n            orderHash: bytes32(0)\n        });\n\n        order.orderHash = _generateOrderHash(order);\n\n        return order;\n    }\n\n    function _generateOrderHash(Order _order)\n        internal\n        view\n        returns (bytes32 _orderHash)\n    {\n        return keccak256(\n            abi.encodePacked(\n                address(this),\n                _order.account,\n                _order.principalToken,\n                _order.collateralToken,\n                _order.principalAmount,\n                _order.collateralAmount,\n                _order.premium,\n                _order.duration,\n                _order.salt,\n                _order.fee\n            )\n        );\n    }\n\n    function getAllOrders()\n        public\n        view\n        returns\n        (\n            bytes32[]\n        )\n    {\n        return orders;\n    }\n\n    function getOrder(bytes32 _orderHash)\n        public\n        view\n        returns\n        (\n            address _account,\n            address _byUser,\n            address _principalToken,\n            address _collateralToken,\n            uint _principalAmount,\n            uint _collateralAmount,\n            uint _premium,\n            uint _expirationTimestamp,\n            uint _salt,\n            uint _fee,\n            uint _createdTimestamp\n        )\n    {\n        Order memory order = hashToOrder[_orderHash];\n        return (\n            order.account,\n            order.byUser,\n            order.principalToken,\n            order.collateralToken,\n            order.principalAmount,\n            order.collateralAmount,\n            order.premium,\n            order.expirationTimestamp,\n            order.salt,\n            order.fee,\n            order.createdTimestamp\n        );\n    }\n\n    function getOrdersForAccount(address _account)\n        public\n        view\n        returns\n        (\n            bytes32[]\n        )\n    {\n        return accountToOrders[_account];\n    }\n\n}\n",
  "sourcePath": "/home/amxx/Work/subgraphs/nuo-audited-contracts/contracts/Kernel.sol",
  "compiler": {
    "name": "solc",
    "version": "0.4.24+commit.e67f0147.Emscripten.clang"
  },
  "schemaVersion": "2.0.1",
  "updatedAt": "2019-09-24T21:09:49.909Z"
}