{
  "contractName": "KernelEscrow",
  "abi": [
    {
      "constant": false,
      "inputs": [
        {
          "name": "owner_",
          "type": "address"
        }
      ],
      "name": "setOwner",
      "outputs": [],
      "payable": false,
      "stateMutability": "nonpayable",
      "type": "function"
    },
    {
      "constant": false,
      "inputs": [
        {
          "name": "_account",
          "type": "address"
        },
        {
          "name": "_token",
          "type": "address"
        },
        {
          "name": "_to",
          "type": "address"
        },
        {
          "name": "_value",
          "type": "uint256"
        }
      ],
      "name": "transferFromAccount",
      "outputs": [],
      "payable": false,
      "stateMutability": "nonpayable",
      "type": "function"
    },
    {
      "constant": false,
      "inputs": [
        {
          "name": "authority_",
          "type": "address"
        }
      ],
      "name": "setAuthority",
      "outputs": [],
      "payable": false,
      "stateMutability": "nonpayable",
      "type": "function"
    },
    {
      "constant": true,
      "inputs": [],
      "name": "owner",
      "outputs": [
        {
          "name": "",
          "type": "address"
        }
      ],
      "payable": false,
      "stateMutability": "view",
      "type": "function"
    },
    {
      "constant": false,
      "inputs": [
        {
          "name": "_token",
          "type": "address"
        },
        {
          "name": "_to",
          "type": "address"
        },
        {
          "name": "_value",
          "type": "uint256"
        }
      ],
      "name": "transfer",
      "outputs": [],
      "payable": false,
      "stateMutability": "nonpayable",
      "type": "function"
    },
    {
      "constant": true,
      "inputs": [],
      "name": "authority",
      "outputs": [
        {
          "name": "",
          "type": "address"
        }
      ],
      "payable": false,
      "stateMutability": "view",
      "type": "function"
    },
    {
      "anonymous": false,
      "inputs": [
        {
          "indexed": true,
          "name": "token",
          "type": "address"
        },
        {
          "indexed": true,
          "name": "to",
          "type": "address"
        },
        {
          "indexed": false,
          "name": "value",
          "type": "uint256"
        }
      ],
      "name": "LogTransfer",
      "type": "event"
    },
    {
      "anonymous": false,
      "inputs": [
        {
          "indexed": true,
          "name": "account",
          "type": "address"
        },
        {
          "indexed": true,
          "name": "token",
          "type": "address"
        },
        {
          "indexed": true,
          "name": "to",
          "type": "address"
        },
        {
          "indexed": false,
          "name": "value",
          "type": "uint256"
        }
      ],
      "name": "LogTransferFromAccount",
      "type": "event"
    },
    {
      "anonymous": false,
      "inputs": [
        {
          "indexed": true,
          "name": "authority",
          "type": "address"
        }
      ],
      "name": "LogSetAuthority",
      "type": "event"
    },
    {
      "anonymous": false,
      "inputs": [
        {
          "indexed": true,
          "name": "owner",
          "type": "address"
        }
      ],
      "name": "LogSetOwner",
      "type": "event"
    },
    {
      "anonymous": true,
      "inputs": [
        {
          "indexed": true,
          "name": "sig",
          "type": "bytes4"
        },
        {
          "indexed": true,
          "name": "guy",
          "type": "address"
        },
        {
          "indexed": true,
          "name": "foo",
          "type": "bytes32"
        },
        {
          "indexed": true,
          "name": "bar",
          "type": "bytes32"
        },
        {
          "indexed": false,
          "name": "wad",
          "type": "uint256"
        },
        {
          "indexed": false,
          "name": "fax",
          "type": "bytes"
        }
      ],
      "name": "LogNote",
      "type": "event"
    }
  ],
  "bytecode": "0x6080604081905260018054600160a060020a03191633908117909155907fce241d7ca1f669fee44b6fc00b8eba2df3bb514eed0f6f668f8f89096e81ed9490600090a26107f1806100516000396000f3006080604052600436106100775763ffffffff7c010000000000000000000000000000000000000000000000000000000060003504166313af4035811461007c5780635e61e1c81461009f5780637a9e5e4b146100cf5780638da5cb5b146100f0578063beabacc814610121578063bf7e214f1461014b575b600080fd5b34801561008857600080fd5b5061009d600160a060020a0360043516610160565b005b3480156100ab57600080fd5b5061009d600160a060020a0360043581169060243581169060443516606435610217565b3480156100db57600080fd5b5061009d600160a060020a03600435166103aa565b3480156100fc57600080fd5b5061010561045d565b60408051600160a060020a039092168252519081900360200190f35b34801561012d57600080fd5b5061009d600160a060020a036004358116906024351660443561046c565b34801561015757600080fd5b5061010561068d565b61017633600035600160e060020a03191661069c565b15156101ba576040805160e560020a62461bcd02815260206004820152601f60248201526000805160206107a6833981519152604482015290519081900360640190fd5b6001805473ffffffffffffffffffffffffffffffffffffffff1916600160a060020a0383811691909117918290556040519116907fce241d7ca1f669fee44b6fc00b8eba2df3bb514eed0f6f668f8f89096e81ed9490600090a250565b60408051348082526020820183815236938301849052600435936024359384938693339360008035600160e060020a031916949092606082018484808284376040519201829003965090945050505050a461027e33600035600160e060020a03191661069c565b15156102c2576040805160e560020a62461bcd02815260206004820152601f60248201526000805160206107a6833981519152604482015290519081900360640190fd5b604080517f93ef43df000000000000000000000000000000000000000000000000000000008152600160a060020a0387811660048301528681166024830152604482018690529151918816916393ef43df9160648082019260009290919082900301818387803b15801561033557600080fd5b505af1158015610349573d6000803e3d6000fd5b5050505083600160a060020a031685600160a060020a031687600160a060020a03167fcbdd82faf094a5648368f9a6b6b3d12e253510e5a4a93673a6d5d0699ef8f661866040518082815260200191505060405180910390a4505050505050565b6103c033600035600160e060020a03191661069c565b1515610404576040805160e560020a62461bcd02815260206004820152601f60248201526000805160206107a6833981519152604482015290519081900360640190fd5b6000805473ffffffffffffffffffffffffffffffffffffffff1916600160a060020a03838116919091178083556040519116917f1abebea81bfa2637f28358c371278fb15ede7ea8dd28d2e03b112ff6d936ada491a250565b600154600160a060020a031681565b60408051348082526020820183815236938301849052600435936024359384938693339360008035600160e060020a031916949092606082018484808284376040519201829003965090945050505050a46104d333600035600160e060020a03191661069c565b1515610517576040805160e560020a62461bcd02815260206004820152601f60248201526000805160206107a6833981519152604482015290519081900360640190fd5b84600160a060020a031663a9059cbb85856040518363ffffffff167c01000000000000000000000000000000000000000000000000000000000281526004018083600160a060020a0316600160a060020a0316815260200182815260200192505050602060405180830381600087803b15801561059357600080fd5b505af11580156105a7573d6000803e3d6000fd5b505050506040513d60208110156105bd57600080fd5b5051151561063b576040805160e560020a62461bcd02815260206004820152602660248201527f457363726f773a3a7472616e7366657220544f4b454e5f5452414e534645525f60448201527f4641494c45440000000000000000000000000000000000000000000000000000606482015290519081900360840190fd5b83600160a060020a031685600160a060020a03167f0a85107a334eae0d22d21cdf13af0f8e8125039ec60baaa843d2c4c5b0680174856040518082815260200191505060405180910390a35050505050565b600054600160a060020a031681565b6000600160a060020a0383163014156106b75750600161079f565b600154600160a060020a03848116911614156106d55750600161079f565b600054600160a060020a031615156106ef5750600061079f565b60008054604080517fb7009613000000000000000000000000000000000000000000000000000000008152600160a060020a038781166004830152306024830152600160e060020a0319871660448301529151919092169263b700961392606480820193602093909283900390910190829087803b15801561077057600080fd5b505af1158015610784573d6000803e3d6000fd5b505050506040513d602081101561079a57600080fd5b505190505b9291505056004453417574683a3a5f2053454e4445525f4e4f545f415554484f52495a454400a165627a7a72305820d82ffdc561dde85e613a3a8e53be0d43757d93efebbf4d5f04adbaaaa0f0bab10029",
  "source": "pragma solidity 0.4.24;\n\nimport \"./lib/tokens/ERC20.sol\";\nimport \"./lib/dappsys/DSThing.sol\";\nimport \"./Account.sol\";\n\n/**\n * @author Rohit Soni (rohit@nuofox.com)\n */\n\n// TDOD: check if account verification is needed using factory \ncontract Escrow is DSNote, DSAuth {\n\n    event LogTransfer(address indexed token, address indexed to, uint value);\n    event LogTransferFromAccount(address indexed account, address indexed token, address indexed to, uint value);\n\n    function transfer\n    (\n        address _token,\n        address _to,\n        uint _value\n    )\n        public\n        note\n        auth\n    {\n        require(ERC20(_token).transfer(_to, _value), \"Escrow::transfer TOKEN_TRANSFER_FAILED\");\n        emit LogTransfer(_token, _to, _value);\n    }\n\n    function transferFromAccount\n    (\n        address _account,\n        address _token,\n        address _to,\n        uint _value\n    )\n        public\n        note\n        auth\n    {   \n        Account(_account).transferBySystem(_token, _to, _value);\n        emit LogTransferFromAccount(_account, _token, _to, _value);\n    }\n\n}\n\n// issue with deploying multiple instances of same type in truffle, hence the following two contracts\ncontract KernelEscrow is Escrow {\n\n}\n\ncontract ReserveEscrow is Escrow {\n    \n}",
  "sourcePath": "/home/amxx/Work/subgraphs/nuo-audited-contracts/contracts/Escrow.sol",
  "compiler": {
    "name": "solc",
    "version": "0.4.24+commit.e67f0147.Emscripten.clang"
  },
  "schemaVersion": "2.0.1",
  "updatedAt": "2019-09-24T21:09:49.856Z"
}