{
  "contractName": "KyberConnector",
  "abi": [
    {
      "constant": false,
      "inputs": [
        {
          "name": "owner_",
          "type": "address"
        }
      ],
      "name": "setOwner",
      "outputs": [],
      "payable": false,
      "stateMutability": "nonpayable",
      "type": "function"
    },
    {
      "constant": false,
      "inputs": [
        {
          "name": "authority_",
          "type": "address"
        }
      ],
      "name": "setAuthority",
      "outputs": [],
      "payable": false,
      "stateMutability": "nonpayable",
      "type": "function"
    },
    {
      "constant": true,
      "inputs": [],
      "name": "owner",
      "outputs": [
        {
          "name": "",
          "type": "address"
        }
      ],
      "payable": false,
      "stateMutability": "view",
      "type": "function"
    },
    {
      "constant": true,
      "inputs": [],
      "name": "kyber",
      "outputs": [
        {
          "name": "",
          "type": "address"
        }
      ],
      "payable": false,
      "stateMutability": "view",
      "type": "function"
    },
    {
      "constant": true,
      "inputs": [],
      "name": "authority",
      "outputs": [
        {
          "name": "",
          "type": "address"
        }
      ],
      "payable": false,
      "stateMutability": "view",
      "type": "function"
    },
    {
      "constant": true,
      "inputs": [],
      "name": "feeWallet",
      "outputs": [
        {
          "name": "",
          "type": "address"
        }
      ],
      "payable": false,
      "stateMutability": "view",
      "type": "function"
    },
    {
      "inputs": [
        {
          "name": "_kyber",
          "type": "address"
        },
        {
          "name": "_feeWallet",
          "type": "address"
        }
      ],
      "payable": false,
      "stateMutability": "nonpayable",
      "type": "constructor"
    },
    {
      "anonymous": false,
      "inputs": [
        {
          "indexed": true,
          "name": "_from",
          "type": "address"
        },
        {
          "indexed": true,
          "name": "_srcToken",
          "type": "address"
        },
        {
          "indexed": true,
          "name": "_destToken",
          "type": "address"
        },
        {
          "indexed": false,
          "name": "_srcTokenValue",
          "type": "uint256"
        },
        {
          "indexed": false,
          "name": "_maxDestTokenValue",
          "type": "uint256"
        },
        {
          "indexed": false,
          "name": "_destTokenValue",
          "type": "uint256"
        },
        {
          "indexed": false,
          "name": "_srcTokenValueLeft",
          "type": "uint256"
        },
        {
          "indexed": false,
          "name": "_exchangeRate",
          "type": "uint256"
        }
      ],
      "name": "LogTrade",
      "type": "event"
    },
    {
      "anonymous": false,
      "inputs": [
        {
          "indexed": true,
          "name": "authority",
          "type": "address"
        }
      ],
      "name": "LogSetAuthority",
      "type": "event"
    },
    {
      "anonymous": false,
      "inputs": [
        {
          "indexed": true,
          "name": "owner",
          "type": "address"
        }
      ],
      "name": "LogSetOwner",
      "type": "event"
    },
    {
      "anonymous": true,
      "inputs": [
        {
          "indexed": true,
          "name": "sig",
          "type": "bytes4"
        },
        {
          "indexed": true,
          "name": "guy",
          "type": "address"
        },
        {
          "indexed": true,
          "name": "foo",
          "type": "bytes32"
        },
        {
          "indexed": true,
          "name": "bar",
          "type": "bytes32"
        },
        {
          "indexed": false,
          "name": "wad",
          "type": "uint256"
        },
        {
          "indexed": false,
          "name": "fax",
          "type": "bytes"
        }
      ],
      "name": "LogNote",
      "type": "event"
    },
    {
      "constant": false,
      "inputs": [
        {
          "name": "_kyber",
          "type": "address"
        }
      ],
      "name": "setKyber",
      "outputs": [],
      "payable": false,
      "stateMutability": "nonpayable",
      "type": "function"
    },
    {
      "constant": false,
      "inputs": [
        {
          "name": "_feeWallet",
          "type": "address"
        }
      ],
      "name": "setFeeWallet",
      "outputs": [],
      "payable": false,
      "stateMutability": "nonpayable",
      "type": "function"
    },
    {
      "constant": false,
      "inputs": [
        {
          "name": "_escrow",
          "type": "address"
        },
        {
          "name": "_srcToken",
          "type": "address"
        },
        {
          "name": "_destToken",
          "type": "address"
        },
        {
          "name": "_srcTokenValue",
          "type": "uint256"
        }
      ],
      "name": "tradeWithInputFixed",
      "outputs": [
        {
          "name": "_destTokenValue",
          "type": "uint256"
        },
        {
          "name": "_srcTokenValueLeft",
          "type": "uint256"
        }
      ],
      "payable": false,
      "stateMutability": "nonpayable",
      "type": "function"
    },
    {
      "constant": false,
      "inputs": [
        {
          "name": "_escrow",
          "type": "address"
        },
        {
          "name": "_srcToken",
          "type": "address"
        },
        {
          "name": "_destToken",
          "type": "address"
        },
        {
          "name": "_srcTokenValue",
          "type": "uint256"
        },
        {
          "name": "_maxDestTokenValue",
          "type": "uint256"
        }
      ],
      "name": "tradeWithOutputFixed",
      "outputs": [
        {
          "name": "_destTokenValue",
          "type": "uint256"
        },
        {
          "name": "_srcTokenValueLeft",
          "type": "uint256"
        }
      ],
      "payable": false,
      "stateMutability": "nonpayable",
      "type": "function"
    },
    {
      "constant": true,
      "inputs": [
        {
          "name": "_srcToken",
          "type": "address"
        },
        {
          "name": "_destToken",
          "type": "address"
        },
        {
          "name": "_srcTokenValue",
          "type": "uint256"
        }
      ],
      "name": "getExpectedRate",
      "outputs": [
        {
          "name": "_expectedRate",
          "type": "uint256"
        },
        {
          "name": "_slippageRate",
          "type": "uint256"
        }
      ],
      "payable": false,
      "stateMutability": "view",
      "type": "function"
    },
    {
      "constant": true,
      "inputs": [
        {
          "name": "_srcToken",
          "type": "address"
        },
        {
          "name": "_destToken",
          "type": "address"
        },
        {
          "name": "_srcTokenValue",
          "type": "uint256"
        }
      ],
      "name": "isTradeFeasible",
      "outputs": [
        {
          "name": "",
          "type": "bool"
        }
      ],
      "payable": false,
      "stateMutability": "view",
      "type": "function"
    }
  ],
  "bytecode": "0x608060405234801561001057600080fd5b5060405160408061141b833981016040819052815160209092015160018054600160a060020a0319163390811790915590917fce241d7ca1f669fee44b6fc00b8eba2df3bb514eed0f6f668f8f89096e81ed9490600090a260028054600160a060020a03938416600160a060020a03199182161790915560038054929093169116179055611378806100a36000396000f3006080604052600436106100b95763ffffffff7c010000000000000000000000000000000000000000000000000000000060003504166313af403581146100be57806317fd9cc5146100e1578063328a7e971461012a5780635d0b4e5c1461014b5780637a9e5e4b14610189578063809a9e55146101aa5780638da5cb5b146101d457806390d49b9d14610205578063a2d10ba514610226578063bf7e214f1461023b578063c83ec89d14610250578063f25f4b5614610283575b600080fd5b3480156100ca57600080fd5b506100df600160a060020a0360043516610298565b005b3480156100ed57600080fd5b50610111600160a060020a036004358116906024358116906044351660643561034f565b6040805192835260208301919091528051918290030190f35b34801561013657600080fd5b506100df600160a060020a0360043516610429565b34801561015757600080fd5b50610175600160a060020a0360043581169060243516604435610514565b604080519115158252519081900360200190f35b34801561019557600080fd5b506100df600160a060020a036004351661052e565b3480156101b657600080fd5b50610111600160a060020a03600435811690602435166044356105e1565b3480156101e057600080fd5b506101e9610696565b60408051600160a060020a039092168252519081900360200190f35b34801561021157600080fd5b506100df600160a060020a03600435166106a5565b34801561023257600080fd5b506101e96107e4565b34801561024757600080fd5b506101e96107f3565b34801561025c57600080fd5b50610111600160a060020a0360043581169060243581169060443516606435608435610802565b34801561028f57600080fd5b506101e9611144565b6102ae33600035600160e060020a031916611153565b15156102f2576040805160e560020a62461bcd02815260206004820152601f602482015260008051602061132d833981519152604482015290519081900360640190fd5b6001805473ffffffffffffffffffffffffffffffffffffffff1916600160a060020a0383811691909117918290556040519116907fce241d7ca1f669fee44b6fc00b8eba2df3bb514eed0f6f668f8f89096e81ed9490600090a250565b6040805134808252602082018381523693830184905260009384936004359360243593849386933393600160e060020a03198a35169390928a929091606082018484808284376040519201829003965090945050505050a46103bd33600035600160e060020a031916611153565b1515610401576040805160e560020a62461bcd02815260206004820152601f602482015260008051602061132d833981519152604482015290519081900360640190fd5b61041a888888886b204fce5e3e25026110000000610802565b93509350505094509492505050565b61043f33600035600160e060020a031916611153565b1515610483576040805160e560020a62461bcd02815260206004820152601f602482015260008051602061132d833981519152604482015290519081900360640190fd5b80600160a060020a03811615156104e4576040805160e560020a62461bcd02815260206004820152601860248201527f5574696c733a3a5f20494e56414c49445f414444524553530000000000000000604482015290519081900360640190fd5b506002805473ffffffffffffffffffffffffffffffffffffffff1916600160a060020a0392909216919091179055565b6000806105228585856105e1565b15159695505050505050565b61054433600035600160e060020a031916611153565b1515610588576040805160e560020a62461bcd02815260206004820152601f602482015260008051602061132d833981519152604482015290519081900360640190fd5b6000805473ffffffffffffffffffffffffffffffffffffffff1916600160a060020a03838116919091178083556040519116917f1abebea81bfa2637f28358c371278fb15ede7ea8dd28d2e03b112ff6d936ada491a250565b600254604080517f809a9e55000000000000000000000000000000000000000000000000000000008152600160a060020a0386811660048301528581166024830152604482018590528251600094859492169263809a9e5592606480830193919282900301818787803b15801561065757600080fd5b505af115801561066b573d6000803e3d6000fd5b505050506040513d604081101561068157600080fd5b50805160209091015190969095509350505050565b600154600160a060020a031681565b60408051348082526020820183815236938301849052600435936024359384938693339360008035600160e060020a031916949092606082018484808284376040519201829003965090945050505050a461070c33600035600160e060020a031916611153565b1515610750576040805160e560020a62461bcd02815260206004820152601f602482015260008051602061132d833981519152604482015290519081900360640190fd5b82600160a060020a03811615156107b1576040805160e560020a62461bcd02815260206004820152601860248201527f5574696c733a3a5f20494e56414c49445f414444524553530000000000000000604482015290519081900360640190fd5b50506003805473ffffffffffffffffffffffffffffffffffffffff1916600160a060020a03939093169290921790915550565b600254600160a060020a031681565b600054600160a060020a031681565b604080513480825260208201838152369383018490526000938493849384936004359360243593849386933393600160e060020a03198a3516938a92606082018484808284376040519201829003965090945050505050a461087033600035600160e060020a031916611153565b15156108b4576040805160e560020a62461bcd02815260206004820152601f602482015260008051602061132d833981519152604482015290519081900360640190fd5b600160a060020a038a8116908a161415610952576040805160e560020a62461bcd028152602060048201526041602482015260008051602061130d83398151915260448201527f6978656420544f4b454e5f41444452535f53484f554c445f4e4f545f4d41544360648201527f4800000000000000000000000000000000000000000000000000000000000000608482015290519081900360a40190fd5b61095d8a8a8a6105e1565b604080517f70a082310000000000000000000000000000000000000000000000000000000081523060048201529051919650600160a060020a038d1692506370a082319160248083019260209291908290030181600087803b1580156109c257600080fd5b505af11580156109d6573d6000803e3d6000fd5b505050506040513d60208110156109ec57600080fd5b5051604080517f70a08231000000000000000000000000000000000000000000000000000000008152600160a060020a038e8116600483015291519295508a92918d16916370a08231916024808201926020929091908290030181600087803b158015610a5857600080fd5b505af1158015610a6c573d6000803e3d6000fd5b505050506040513d6020811015610a8257600080fd5b50511015610b14576040805160e560020a62461bcd028152602060048201526043602482015260008051602061130d83398151915260448201527f6978656420494e53554646494349454e545f42414c414e43455f494e5f45534360648201527f524f570000000000000000000000000000000000000000000000000000000000608482015290519081900360a40190fd5b604080517fbeabacc8000000000000000000000000000000000000000000000000000000008152600160a060020a038c81166004830152306024830152604482018b90529151918d169163beabacc89160648082019260009290919082900301818387803b158015610b8557600080fd5b505af1158015610b99573d6000803e3d6000fd5b5050600254604080517f095ea7b3000000000000000000000000000000000000000000000000000000008152600160a060020a0392831660048201526000602482018190529151928f16945063095ea7b39350604480820193602093909283900390910190829087803b158015610c0f57600080fd5b505af1158015610c23573d6000803e3d6000fd5b505050506040513d6020811015610c3957600080fd5b50511515610ca5576040805160e560020a62461bcd028152602060048201526038602482015260008051602061130d83398151915260448201527f69786564205352435f415050524f56414c5f4641494c45440000000000000000606482015290519081900360840190fd5b600254604080517f095ea7b3000000000000000000000000000000000000000000000000000000008152600160a060020a039283166004820152602481018b90529051918c169163095ea7b3916044808201926020929091908290030181600087803b158015610d1457600080fd5b505af1158015610d28573d6000803e3d6000fd5b505050506040513d6020811015610d3e57600080fd5b50511515610daa576040805160e560020a62461bcd028152602060048201526038602482015260008051602061130d83398151915260448201527f69786564205352435f415050524f56414c5f4641494c45440000000000000000606482015290519081900360840190fd5b600260009054906101000a9004600160a060020a0316600160a060020a03166329589f618b8a8c308c8a600360009054906101000a9004600160a060020a031660006040519080825280601f01601f191660200182016040528015610e19578160200160208202803883390190505b506040517c010000000000000000000000000000000000000000000000000000000063ffffffff8b16028152600160a060020a03808a1660048301908152602483018a9052888216604484015287821660648401526084830187905260a4830186905290841660c483015261010060e48301908152835161010484015283519192909161012490910190602085019080838360005b83811015610ec6578181015183820152602001610eae565b50505050905090810190601f168015610ef35780820380516001836020036101000a031916815260200191505b509950505050505050505050602060405180830381600087803b158015610f1957600080fd5b505af1158015610f2d573d6000803e3d6000fd5b505050506040513d6020811015610f4357600080fd5b5051604080517f70a082310000000000000000000000000000000000000000000000000000000081523060048201529051919750610fdf91600160a060020a038d16916370a082319160248083019260209291908290030181600087803b158015610fad57600080fd5b505af1158015610fc1573d6000803e3d6000fd5b505050506040513d6020811015610fd757600080fd5b50518461125c565b9450610fec898c8861126c565b1515611056576040805160e560020a62461bcd02815260206004820152603f602482015260008051602061130d83398151915260448201527f6978656420444553545f544f4b454e5f5452414e534645525f4641494c454400606482015290519081900360840190fd5b60008511156110d45761106a8a8c8761126c565b15156110d4576040805160e560020a62461bcd02815260206004820152603e602482015260008051602061130d83398151915260448201527f69786564205352435f544f4b454e5f5452414e534645525f4641494c45440000606482015290519081900360840190fd5b604080518981526020810189905280820188905260608101879052608081018690529051600160a060020a03808c16928d821692918f16917fca2c35f41e3c93e960780ee310865b11d03fc119da35b1e769970a0189da71df9181900360a00190a4505050509550959350505050565b600354600160a060020a031681565b6000600160a060020a03831630141561116e57506001611256565b600154600160a060020a038481169116141561118c57506001611256565b600054600160a060020a031615156111a657506000611256565b60008054604080517fb7009613000000000000000000000000000000000000000000000000000000008152600160a060020a038781166004830152306024830152600160e060020a0319871660448301529151919092169263b700961392606480820193602093909283900390910190829087803b15801561122757600080fd5b505af115801561123b573d6000803e3d6000fd5b505050506040513d602081101561125157600080fd5b505190505b92915050565b8082038281111561125657600080fd5b604080517fa9059cbb000000000000000000000000000000000000000000000000000000008152600160a060020a03848116600483015260248201849052915160009286169163a9059cbb91604480830192602092919082900301818787803b1580156112d857600080fd5b505af11580156112ec573d6000803e3d6000fd5b505050506040513d602081101561130257600080fd5b505194935050505056004b79626572436f6e6e6563746f723a3a7472616465576974684f7574707574464453417574683a3a5f2053454e4445525f4e4f545f415554484f52495a454400a165627a7a723058202257db49d7a08534b01aee4871ae02c8c3608fb15f16f6d8c5557dd4ade279b00029",
  "source": "pragma solidity 0.4.24;\n\nimport \"./lib/kyber/KyberNetworkProxy.sol\";\nimport \"./lib/dappsys/DSThing.sol\";\nimport \"./lib/tokens/ERC20.sol\";\nimport \"./Escrow.sol\";\nimport \"./Utils.sol\";\nimport \"./ExchangeConnector.sol\";\n\n/**\n * @author Rohit Soni (rohit@nuofox.com)\n */\n \ncontract KyberConnector is ExchangeConnector, DSThing, Utils {\n    KyberNetworkProxy public kyber;\n    address public feeWallet;\n\n    uint constant internal KYBER_MAX_QTY = (10**28);\n\n    constructor(KyberNetworkProxy _kyber, address _feeWallet) public {\n        kyber = _kyber;\n        feeWallet = _feeWallet;\n    }\n\n    function setKyber(KyberNetworkProxy _kyber) \n        public\n        auth\n        addressValid(_kyber)\n    {\n        kyber = _kyber;\n    }\n\n    function setFeeWallet(address _feeWallet) \n        public \n        note \n        auth\n        addressValid(_feeWallet)\n    {\n        feeWallet = _feeWallet;\n    }\n    \n\n    event LogTrade\n    (\n        address indexed _from,\n        address indexed _srcToken,\n        address indexed _destToken,\n        uint _srcTokenValue,\n        uint _maxDestTokenValue,\n        uint _destTokenValue,\n        uint _srcTokenValueLeft,\n        uint _exchangeRate\n    );\n\n    function tradeWithInputFixed\n    (   \n        Escrow _escrow,\n        address _srcToken,\n        address _destToken,\n        uint _srcTokenValue\n    )\n        public    \n        note\n        auth\n        returns (uint _destTokenValue, uint _srcTokenValueLeft)\n    {\n        return tradeWithOutputFixed(_escrow, _srcToken, _destToken, _srcTokenValue, KYBER_MAX_QTY);\n    }\n\n    function tradeWithOutputFixed\n    (   \n        Escrow _escrow,\n        address _srcToken,\n        address _destToken,\n        uint _srcTokenValue,\n        uint _maxDestTokenValue\n    )\n        public\n        note\n        auth\n        returns (uint _destTokenValue, uint _srcTokenValueLeft)\n    {   \n        require(_srcToken != _destToken, \"KyberConnector::tradeWithOutputFixed TOKEN_ADDRS_SHOULD_NOT_MATCH\");\n\n        uint _slippageRate;\n        (, _slippageRate) = getExpectedRate(_srcToken, _destToken, _srcTokenValue);\n\n        uint initialSrcTokenBalance = ERC20(_srcToken).balanceOf(this);\n\n        require(ERC20(_srcToken).balanceOf(_escrow) >= _srcTokenValue, \"KyberConnector::tradeWithOutputFixed INSUFFICIENT_BALANCE_IN_ESCROW\");\n        _escrow.transfer(_srcToken, this, _srcTokenValue);\n\n        require(ERC20(_srcToken).approve(kyber, 0), \"KyberConnector::tradeWithOutputFixed SRC_APPROVAL_FAILED\");\n        require(ERC20(_srcToken).approve(kyber, _srcTokenValue), \"KyberConnector::tradeWithOutputFixed SRC_APPROVAL_FAILED\");\n        \n        _destTokenValue = kyber.tradeWithHint(\n            ERC20(_srcToken),\n            _srcTokenValue,\n            ERC20(_destToken),\n            this,\n            _maxDestTokenValue,\n            _slippageRate, // no min coversation rate\n            feeWallet, \n            new bytes(0)\n        );\n\n        _srcTokenValueLeft = sub(ERC20(_srcToken).balanceOf(this), initialSrcTokenBalance);\n\n        require(_transfer(_destToken, _escrow, _destTokenValue), \"KyberConnector::tradeWithOutputFixed DEST_TOKEN_TRANSFER_FAILED\");\n        \n        if(_srcTokenValueLeft > 0) {\n            require(_transfer(_srcToken, _escrow, _srcTokenValueLeft), \"KyberConnector::tradeWithOutputFixed SRC_TOKEN_TRANSFER_FAILED\");\n        }\n\n        emit LogTrade(_escrow, _srcToken, _destToken, _srcTokenValue, _maxDestTokenValue, _destTokenValue, _srcTokenValueLeft, _slippageRate);\n    } \n\n    function getExpectedRate(address _srcToken, address _destToken, uint _srcTokenValue) \n        public\n        view\n        returns(uint _expectedRate, uint _slippageRate)\n    {\n        (_expectedRate, _slippageRate) = kyber.getExpectedRate(ERC20(_srcToken), ERC20(_destToken), _srcTokenValue);\n    }\n\n    function isTradeFeasible(address _srcToken, address _destToken, uint _srcTokenValue) \n        public\n        view\n        returns(bool)\n    {\n        uint slippageRate; \n\n        (, slippageRate) = getExpectedRate(\n            _srcToken,\n            _destToken,\n            _srcTokenValue\n        );\n\n        return slippageRate != 0;\n    }\n\n    function _transfer\n    (\n        address _token,\n        address _to,\n        uint _value\n    )\n        internal\n        returns (bool)\n    {\n        return ERC20(_token).transfer(_to, _value);\n    }\n}",
  "sourcePath": "/home/amxx/Work/subgraphs/nuo-audited-contracts/contracts/KyberConnector.sol",
  "compiler": {
    "name": "solc",
    "version": "0.4.24+commit.e67f0147.Emscripten.clang"
  },
  "schemaVersion": "2.0.1",
  "updatedAt": "2019-09-24T21:09:49.881Z"
}