{
  "contractName": "MockAccountFactory",
  "abi": [
    {
      "constant": true,
      "inputs": [],
      "name": "isAccountValid",
      "outputs": [
        {
          "name": "",
          "type": "bool"
        }
      ],
      "payable": false,
      "stateMutability": "view",
      "type": "function"
    },
    {
      "constant": true,
      "inputs": [
        {
          "name": "_account",
          "type": "address"
        }
      ],
      "name": "isAccount",
      "outputs": [
        {
          "name": "",
          "type": "bool"
        }
      ],
      "payable": false,
      "stateMutability": "view",
      "type": "function"
    },
    {
      "constant": false,
      "inputs": [
        {
          "name": "_flag",
          "type": "bool"
        }
      ],
      "name": "setAccountValidity",
      "outputs": [],
      "payable": false,
      "stateMutability": "nonpayable",
      "type": "function"
    },
    {
      "constant": false,
      "inputs": [],
      "name": "useDefaults",
      "outputs": [],
      "payable": false,
      "stateMutability": "nonpayable",
      "type": "function"
    }
  ],
  "bytecode": "0x60806040526000805460ff1916600117905534801561001d57600080fd5b5061014f8061002d6000396000f3006080604052600436106100615763ffffffff7c010000000000000000000000000000000000000000000000000000000060003504166325ca4c9c81146100665780633d7c0c1f146100a85780635be01a12146100c4578063915789d4146100d9575b600080fd5b34801561007257600080fd5b5061009473ffffffffffffffffffffffffffffffffffffffff600435166100ee565b604080519115158252519081900360200190f35b3480156100b457600080fd5b506100c260043515156100f8565b005b3480156100d057600080fd5b5061009461010b565b3480156100e557600080fd5b506100c2610114565b5060005460ff1690565b6000805460ff1916911515919091179055565b60005460ff1681565b6000805460ff191660011790555600a165627a7a72305820307df88f67fd1caedf27b9e1151f5735001f408578679bcf96b39c55ffc346db0029",
  "source": "pragma solidity 0.4.24;\n\ncontract MockAccountFactory {\n\n    bool public isAccountValid = true;\n\n    function isAccount(address _account) public view returns (bool) \n    {\n        _account;\n        return isAccountValid;\n    }\n\n    function setAccountValidity(bool _flag) public {\n        isAccountValid = _flag;\n    }\n\n    function useDefaults() public {\n        isAccountValid = true;\n    }\n\n}",
  "sourcePath": "/home/amxx/Work/subgraphs/nuo-audited-contracts/contracts/mock/MockAccountFactory.sol",
  "compiler": {
    "name": "solc",
    "version": "0.4.24+commit.e67f0147.Emscripten.clang"
  },
  "schemaVersion": "2.0.1",
  "updatedAt": "2019-09-23T18:55:29.368Z"
}