{
  "contractName": "MockExchangeConnector",
  "abi": [
    {
      "constant": true,
      "inputs": [
        {
          "name": "",
          "type": "bytes32"
        }
      ],
      "name": "pairRate",
      "outputs": [
        {
          "name": "",
          "type": "uint256"
        }
      ],
      "payable": false,
      "stateMutability": "view",
      "type": "function"
    },
    {
      "constant": false,
      "inputs": [
        {
          "name": "src",
          "type": "address"
        },
        {
          "name": "dest",
          "type": "address"
        },
        {
          "name": "rate",
          "type": "uint256"
        }
      ],
      "name": "setPairRate",
      "outputs": [],
      "payable": false,
      "stateMutability": "nonpayable",
      "type": "function"
    },
    {
      "constant": false,
      "inputs": [
        {
          "name": "_escrow",
          "type": "address"
        },
        {
          "name": "_srcToken",
          "type": "address"
        },
        {
          "name": "_destToken",
          "type": "address"
        },
        {
          "name": "_srcTokenValue",
          "type": "uint256"
        }
      ],
      "name": "tradeWithInputFixed",
      "outputs": [
        {
          "name": "_destTokenValue",
          "type": "uint256"
        },
        {
          "name": "_srcTokenValueLeft",
          "type": "uint256"
        }
      ],
      "payable": false,
      "stateMutability": "nonpayable",
      "type": "function"
    },
    {
      "constant": false,
      "inputs": [
        {
          "name": "_escrow",
          "type": "address"
        },
        {
          "name": "_srcToken",
          "type": "address"
        },
        {
          "name": "_destToken",
          "type": "address"
        },
        {
          "name": "_srcTokenValue",
          "type": "uint256"
        },
        {
          "name": "_maxDestTokenValue",
          "type": "uint256"
        }
      ],
      "name": "tradeWithOutputFixed",
      "outputs": [
        {
          "name": "_destTokenValue",
          "type": "uint256"
        },
        {
          "name": "_srcTokenValueLeft",
          "type": "uint256"
        }
      ],
      "payable": false,
      "stateMutability": "nonpayable",
      "type": "function"
    },
    {
      "constant": true,
      "inputs": [
        {
          "name": "_srcToken",
          "type": "address"
        },
        {
          "name": "_destToken",
          "type": "address"
        },
        {
          "name": "_srcTokenValue",
          "type": "uint256"
        }
      ],
      "name": "getExpectedRate",
      "outputs": [
        {
          "name": "_expectedRate",
          "type": "uint256"
        },
        {
          "name": "_slippageRate",
          "type": "uint256"
        }
      ],
      "payable": false,
      "stateMutability": "view",
      "type": "function"
    },
    {
      "constant": true,
      "inputs": [
        {
          "name": "_srcToken",
          "type": "address"
        },
        {
          "name": "_destToken",
          "type": "address"
        },
        {
          "name": "_srcTokenValue",
          "type": "uint256"
        }
      ],
      "name": "isTradeFeasible",
      "outputs": [
        {
          "name": "",
          "type": "bool"
        }
      ],
      "payable": false,
      "stateMutability": "view",
      "type": "function"
    }
  ],
  "bytecode": "0x608060405234801561001057600080fd5b50610826806100206000396000f30060806040526004361061005e5763ffffffff60e060020a60003504166317fd9cc581146100635780635d0b4e5c146100ac578063809a9e55146100ea578063c5e64bbc14610114578063c83ec89d1461013e578063f9819fe914610171575b600080fd5b34801561006f57600080fd5b50610093600160a060020a036004358116906024358116906044351660643561019d565b6040805192835260208301919091528051918290030190f35b3480156100b857600080fd5b506100d6600160a060020a03600435811690602435166044356103b3565b604080519115158252519081900360200190f35b3480156100f657600080fd5b50610093600160a060020a03600435811690602435166044356103dd565b34801561012057600080fd5b5061012c6004356104c8565b60408051918252519081900360200190f35b34801561014a57600080fd5b50610093600160a060020a03600435811690602435811690604435166064356084356104da565b34801561017d57600080fd5b5061019b600160a060020a036004358116906024351660443561071a565b005b600080600080600087876040516020018083600160a060020a0316600160a060020a03166c0100000000000000000000000002815260140182600160a060020a0316600160a060020a03166c01000000000000000000000000028152601401925050506040516020818303038152906040526040518082805190602001908083835b6020831061023e5780518252601f19909201916020918201910161021f565b51815160209384036101000a60001901801990921691161790526040805192909401829003909120865285019590955292909201600020549350670de0b6b3a764000092505050848202604080517fbeabacc8000000000000000000000000000000000000000000000000000000008152600160a060020a038a8116600483015230602483015260448201899052915193909204955089169163beabacc89160648082019260009290919082900301818387803b1580156102fe57600080fd5b505af1158015610312573d6000803e3d6000fd5b5050505084600160a060020a031663a9059cbb88856040518363ffffffff1660e060020a0281526004018083600160a060020a0316600160a060020a0316815260200182815260200192505050602060405180830381600087803b15801561037957600080fd5b505af115801561038d573d6000803e3d6000fd5b505050506040513d60208110156103a357600080fd5b5092976000975095505050505050565b6000806103c18585856103dd565b91505080156103d15760016103d4565b60005b95945050505050565b60008060008086866040516020018083600160a060020a0316600160a060020a03166c0100000000000000000000000002815260140182600160a060020a0316600160a060020a03166c01000000000000000000000000028152601401925050506040516020818303038152906040526040518082805190602001908083835b6020831061047c5780518252601f19909201916020918201910161045d565b51815160209384036101000a600019018019909216911617905260408051929094018290039091208652850195909552929092016000205498606460618b020498509650505050505050565b60006020819052908152604090205481565b60008060008060008060008a8a6040516020018083600160a060020a0316600160a060020a03166c0100000000000000000000000002815260140182600160a060020a0316600160a060020a03166c01000000000000000000000000028152601401925050506040516020818303038152906040526040518082805190602001908083835b6020831061057e5780518252601f19909201916020918201910161055f565b51815160209384036101000a60001901801990921691161790526040805192909401829003909120865285019590955292909201600020549550670de0b6b3a764000092505050878402049150869050858211156105f25785915082670de0b6b3a764000087028115156105ee57fe5b0490505b604080517fbeabacc8000000000000000000000000000000000000000000000000000000008152600160a060020a038b81166004830152306024830152604482018490529151918c169163beabacc89160648082019260009290919082900301818387803b15801561066357600080fd5b505af1158015610677573d6000803e3d6000fd5b5050505087600160a060020a031663a9059cbb8b846040518363ffffffff1660e060020a0281526004018083600160a060020a0316600160a060020a0316815260200182815260200192505050602060405180830381600087803b1580156106de57600080fd5b505af11580156106f2573d6000803e3d6000fd5b505050506040513d602081101561070857600080fd5b50919a96039850949650505050505050565b8060008085856040516020018083600160a060020a0316600160a060020a03166c0100000000000000000000000002815260140182600160a060020a0316600160a060020a03166c01000000000000000000000000028152601401925050506040516020818303038152906040526040518082805190602001908083835b602083106107b75780518252601f199092019160209182019101610798565b51815160209384036101000a60001901801990921691161790526040805192909401829003909120865285019590955292909201600020939093555050505050505600a165627a7a7230582008ab3f60bcd4b2fd7a37f98ff7cf4c807a8ea35f864e971538e05646c54e4d560029",
  "source": "pragma solidity 0.4.24;\n\nimport \"../lib/tokens/ERC20.sol\";\nimport \"../ExchangeConnector.sol\";\n \ncontract MockExchangeConnector is ExchangeConnector {\n\n    mapping(bytes32=>uint) public pairRate;\n    uint constant PRECISION = 10 ** 18;\n\n    function setPairRate(ERC20 src, ERC20 dest, uint rate) public {\n        pairRate[keccak256(abi.encodePacked(src, dest))] = rate;\n    }\n\n    function tradeWithInputFixed\n    (   \n        Escrow _escrow,\n        address _srcToken,\n        address _destToken,\n        uint _srcTokenValue\n    )\n        public    \n        returns (uint _destTokenValue, uint _srcTokenValueLeft)\n    {\n        uint rate = pairRate[keccak256(abi.encodePacked(_srcToken, _destToken))];\n        _destTokenValue = _srcTokenValue * rate / PRECISION;\n\n        _escrow.transfer(_srcToken, this, _srcTokenValue);\n        ERC20(_destToken).transfer(_escrow, _destTokenValue);\n\n        _srcTokenValueLeft = 0;\n    }\n\n    function tradeWithOutputFixed\n    (   \n        Escrow _escrow,\n        address _srcToken,\n        address _destToken,\n        uint _srcTokenValue,\n        uint _maxDestTokenValue\n    )\n        public\n        returns (uint _destTokenValue, uint _srcTokenValueLeft)\n    {   \n        uint rate = pairRate[keccak256(abi.encodePacked(_srcToken, _destToken))];\n\n        uint destAmount = _srcTokenValue * rate / PRECISION;\n        uint actualSrcAmount = _srcTokenValue;\n\n        if (destAmount > _maxDestTokenValue) {\n            destAmount = _maxDestTokenValue;\n            actualSrcAmount = _maxDestTokenValue * PRECISION / rate;\n        }\n\n        _escrow.transfer(_srcToken, this, actualSrcAmount);\n        ERC20(_destToken).transfer(_escrow, destAmount);\n\n        _destTokenValue = destAmount;\n        _srcTokenValueLeft = _srcTokenValue - actualSrcAmount;\n    } \n\n    function getExpectedRate(address _srcToken, address _destToken, uint _srcTokenValue) \n        public\n        view\n        returns(uint _expectedRate, uint _slippageRate)\n    {\n        _srcTokenValue;\n\n        _expectedRate = pairRate[keccak256(abi.encodePacked(_srcToken, _destToken))];\n        _slippageRate = _expectedRate * 97 / 100;\n    }\n\n    function isTradeFeasible(address _srcToken, address _destToken, uint _srcTokenValue) \n        public\n        view\n        returns(bool)\n    {\n        uint slippageRate; \n\n        (, slippageRate) = getExpectedRate(\n            _srcToken,\n            _destToken,\n            _srcTokenValue\n        );\n\n        return slippageRate == 0 ? false : true;\n    }\n\n}",
  "sourcePath": "/home/amxx/Work/subgraphs/nuo-audited-contracts/contracts/mock/MockExchangeConnector.sol",
  "compiler": {
    "name": "solc",
    "version": "0.4.24+commit.e67f0147.Emscripten.clang"
  },
  "schemaVersion": "2.0.1",
  "updatedAt": "2019-09-23T18:55:29.370Z"
}