{
  "contractName": "MockConfig",
  "abi": [
    {
      "constant": true,
      "inputs": [
        {
          "name": "_admin",
          "type": "address"
        }
      ],
      "name": "isAdminValid",
      "outputs": [
        {
          "name": "",
          "type": "bool"
        }
      ],
      "payable": false,
      "stateMutability": "pure",
      "type": "function"
    }
  ],
  "bytecode": "0x608060405234801561001057600080fd5b5060b48061001f6000396000f300608060405260043610603e5763ffffffff7c01000000000000000000000000000000000000000000000000000000006000350416639c14ee2981146043575b600080fd5b348015604e57600080fd5b50606e73ffffffffffffffffffffffffffffffffffffffff600435166082565b604080519115158252519081900360200190f35b506001905600a165627a7a72305820aaba9e80a16d3410109d9fecd2558ada1c5013d1b66007767911609176710a970029",
  "source": "pragma solidity 0.4.24;\n\n/**\n * @author Rohit Soni (rohit@nuofox.com)\n */\n\ncontract MockConfig  {\n\n    function isAdminValid(address _admin)\n        public\n        pure\n        returns (bool)\n    {\n        _admin;\n        return true;\n    }\n\n}",
  "sourcePath": "/home/amxx/Work/subgraphs/nuo-audited-contracts/contracts/mock/MockConfig.sol",
  "compiler": {
    "name": "solc",
    "version": "0.4.24+commit.e67f0147.Emscripten.clang"
  },
  "schemaVersion": "2.0.1",
  "updatedAt": "2019-09-23T18:55:29.370Z"
}