{
  "contractName": "MockAccount",
  "abi": [
    {
      "constant": true,
      "inputs": [
        {
          "name": "_user",
          "type": "address"
        }
      ],
      "name": "isUser",
      "outputs": [
        {
          "name": "",
          "type": "bool"
        }
      ],
      "payable": false,
      "stateMutability": "pure",
      "type": "function"
    },
    {
      "constant": false,
      "inputs": [
        {
          "name": "_token",
          "type": "address"
        },
        {
          "name": "_to",
          "type": "address"
        },
        {
          "name": "_value",
          "type": "uint256"
        }
      ],
      "name": "transferBySystem",
      "outputs": [],
      "payable": false,
      "stateMutability": "nonpayable",
      "type": "function"
    }
  ],
  "bytecode": "0x608060405234801561001057600080fd5b506101d1806100206000396000f30060806040526004361061004b5763ffffffff7c01000000000000000000000000000000000000000000000000000000006000350416634209fff1811461005057806393ef43df14610092575b600080fd5b34801561005c57600080fd5b5061007e73ffffffffffffffffffffffffffffffffffffffff600435166100cb565b604080519115158252519081900360200190f35b34801561009e57600080fd5b506100c973ffffffffffffffffffffffffffffffffffffffff600435811690602435166044356100d1565b005b50600190565b8273ffffffffffffffffffffffffffffffffffffffff1663a9059cbb83836040518363ffffffff167c0100000000000000000000000000000000000000000000000000000000028152600401808373ffffffffffffffffffffffffffffffffffffffff1673ffffffffffffffffffffffffffffffffffffffff16815260200182815260200192505050602060405180830381600087803b15801561017457600080fd5b505af1158015610188573d6000803e3d6000fd5b505050506040513d602081101561019e57600080fd5b50505050505600a165627a7a72305820c1418fb56340236c616443b14029758f6367b984432754c75ed1e01e53e4b84c0029",
  "source": "pragma solidity 0.4.24;\n\nimport \"../lib/tokens/ERC20.sol\";\n\n\ncontract MockAccount  {\n\n\n    function isUser(address _user) public pure returns (bool) {\n        _user;\n        return true;\n    }\n    \n    function transferBySystem\n    (   \n        address _token,\n        address _to,\n        uint _value\n    ) \n        external \n    {\n        ERC20(_token).transfer(_to, _value);\n    }\n    \n}",
  "sourcePath": "/home/amxx/Work/subgraphs/nuo-audited-contracts/contracts/mock/MockAccount.sol",
  "compiler": {
    "name": "solc",
    "version": "0.4.24+commit.e67f0147.Emscripten.clang"
  },
  "schemaVersion": "2.0.1",
  "updatedAt": "2019-09-23T18:55:29.368Z"
}