{
  "contractName": "MockReserve",
  "abi": [
    {
      "constant": true,
      "inputs": [],
      "name": "shouldLockPullFromAccount",
      "outputs": [
        {
          "name": "",
          "type": "bool"
        }
      ],
      "payable": false,
      "stateMutability": "view",
      "type": "function"
    },
    {
      "constant": true,
      "inputs": [],
      "name": "accountFactory",
      "outputs": [
        {
          "name": "",
          "type": "address"
        }
      ],
      "payable": false,
      "stateMutability": "view",
      "type": "function"
    },
    {
      "constant": true,
      "inputs": [],
      "name": "shouldLockPullFromEscrow",
      "outputs": [
        {
          "name": "",
          "type": "bool"
        }
      ],
      "payable": false,
      "stateMutability": "view",
      "type": "function"
    },
    {
      "constant": true,
      "inputs": [],
      "name": "escrow",
      "outputs": [
        {
          "name": "",
          "type": "address"
        }
      ],
      "payable": false,
      "stateMutability": "view",
      "type": "function"
    },
    {
      "inputs": [
        {
          "name": "_escrow",
          "type": "address"
        },
        {
          "name": "_accountFactory",
          "type": "address"
        }
      ],
      "payable": false,
      "stateMutability": "nonpayable",
      "type": "constructor"
    },
    {
      "constant": false,
      "inputs": [],
      "name": "allowLockPullFromAccount",
      "outputs": [],
      "payable": false,
      "stateMutability": "nonpayable",
      "type": "function"
    },
    {
      "constant": false,
      "inputs": [],
      "name": "allowLockPullFromEscrow",
      "outputs": [],
      "payable": false,
      "stateMutability": "nonpayable",
      "type": "function"
    },
    {
      "constant": false,
      "inputs": [
        {
          "name": "_token",
          "type": "address"
        },
        {
          "name": "_to",
          "type": "address"
        },
        {
          "name": "_value",
          "type": "uint256"
        }
      ],
      "name": "release",
      "outputs": [],
      "payable": false,
      "stateMutability": "nonpayable",
      "type": "function"
    },
    {
      "constant": false,
      "inputs": [
        {
          "name": "_token",
          "type": "address"
        },
        {
          "name": "_from",
          "type": "address"
        },
        {
          "name": "_value",
          "type": "uint256"
        },
        {
          "name": "_profit",
          "type": "uint256"
        },
        {
          "name": "_loss",
          "type": "uint256"
        }
      ],
      "name": "lock",
      "outputs": [],
      "payable": false,
      "stateMutability": "nonpayable",
      "type": "function"
    },
    {
      "constant": false,
      "inputs": [
        {
          "name": "_from",
          "type": "address"
        },
        {
          "name": "_forToken",
          "type": "address"
        },
        {
          "name": "_token",
          "type": "address"
        },
        {
          "name": "_value",
          "type": "uint256"
        }
      ],
      "name": "lockSurplus",
      "outputs": [],
      "payable": false,
      "stateMutability": "nonpayable",
      "type": "function"
    }
  ],
  "bytecode": "0x60806040526001805460a860020a60ff021960a060020a60ff0219909116740100000000000000000000000000000000000000001716905534801561004357600080fd5b506040516040806105fe83398101604052805160209091015160008054600160a060020a03938416600160a060020a031991821617909155600180549390921692169190911790556105648061009a6000396000f3006080604052600436106100985763ffffffff7c01000000000000000000000000000000000000000000000000000000006000350416630e2fa5a7811461009d578063106689a5146100c65780633679e4ef146100f857806342bb43dd1461010d578063687cd9c11461013d57806380d7bff01461016e5780638bfb07c914610183578063bb5bc55b146101ad578063e2fdcc17146101c2575b600080fd5b3480156100a957600080fd5b506100b26101d7565b604080519115158252519081900360200190f35b3480156100d257600080fd5b506100f6600160a060020a03600435811690602435166044356064356084356101f8565b005b34801561010457600080fd5b506100f661034e565b34801561011957600080fd5b506100f6600160a060020a0360043581169060243581169060443516606435610387565b34801561014957600080fd5b50610152610416565b60408051600160a060020a039092168252519081900360200190f35b34801561017a57600080fd5b506100f6610425565b34801561018f57600080fd5b506100f6600160a060020a0360043581169060243516604435610477565b3480156101b957600080fd5b506100b2610507565b3480156101ce57600080fd5b50610152610529565b60015474010000000000000000000000000000000000000000900460ff1681565b60015474010000000000000000000000000000000000000000900460ff16156102b25760008054604080517f5e61e1c8000000000000000000000000000000000000000000000000000000008152600160a060020a0388811660048301528981166024830152909216604483018190526064830187905290519092635e61e1c8926084808201939182900301818387803b15801561029557600080fd5b505af11580156102a9573d6000803e3d6000fd5b50505050610347565b6001547501000000000000000000000000000000000000000000900460ff16156100985760008054604080517fbeabacc8000000000000000000000000000000000000000000000000000000008152600160a060020a03898116600483015292831660248201526044810187905290519187169263beabacc89260648084019382900301818387803b15801561029557600080fd5b5050505050565b6001805475ffff000000000000000000000000000000000000000019167501000000000000000000000000000000000000000000179055565b60008054604080517fbeabacc8000000000000000000000000000000000000000000000000000000008152600160a060020a03868116600483015292831660248201526044810185905290519187169263beabacc89260648084019382900301818387803b1580156103f857600080fd5b505af115801561040c573d6000803e3d6000fd5b5050505050505050565b600154600160a060020a031681565b6001805475ff0000000000000000000000000000000000000000001974ff0000000000000000000000000000000000000000199091167401000000000000000000000000000000000000000017169055565b60008054604080517fbeabacc8000000000000000000000000000000000000000000000000000000008152600160a060020a0387811660048301528681166024830152604482018690529151919092169263beabacc8926064808201939182900301818387803b1580156104ea57600080fd5b505af11580156104fe573d6000803e3d6000fd5b50505050505050565b6001547501000000000000000000000000000000000000000000900460ff1681565b600054600160a060020a0316815600a165627a7a72305820fa63eae92c719bf3edff6dadbee8eb09565579bf55d5ad901fd1a102cd5fd6510029",
  "source": "pragma solidity 0.4.24;\n\nimport \"./MockEscrow.sol\";\nimport \"./MockAccountFactory.sol\";\n\ncontract MockReserve {\n\n    MockEscrow public escrow;\n    MockAccountFactory public accountFactory;\n\n    bool public shouldLockPullFromAccount = true;\n    bool public shouldLockPullFromEscrow = false;\n\n    constructor(MockEscrow _escrow, MockAccountFactory _accountFactory) public {\n        escrow = _escrow;\n        accountFactory = _accountFactory;\n    }\n\n    function allowLockPullFromAccount() public {\n        shouldLockPullFromAccount = true;\n        shouldLockPullFromEscrow = false;\n    }\n\n    function allowLockPullFromEscrow() public {\n        shouldLockPullFromAccount = false;\n        shouldLockPullFromEscrow = true;\n    }\n\n\n    function release(address _token, address _to, uint _value) \n        public\n    {   \n        escrow.transfer(_token, _to, _value);\n    }\n\n    function lock(address _token, address _from, uint _value, uint _profit, uint _loss)\n        public\n    {               \n        _profit;\n        _loss;\n\n        if(shouldLockPullFromAccount) {\n            escrow.transferFromAccount(_from, _token, address(escrow), _value);\n        } else if (shouldLockPullFromEscrow) {\n            MockEscrow(_from).transfer(_token, address(escrow), _value);\n        } else {\n            revert();\n        }\n    }\n\n    \n    function lockSurplus(address _from, address _forToken, address _token, uint _value) \n        public\n    {\n        _forToken;\n        \n        MockEscrow(_from).transfer(_token, address(escrow), _value);\n    }\n\n}",
  "sourcePath": "/home/amxx/Work/subgraphs/nuo-audited-contracts/contracts/mock/MockReserve.sol",
  "compiler": {
    "name": "solc",
    "version": "0.4.24+commit.e67f0147.Emscripten.clang"
  },
  "schemaVersion": "2.0.1",
  "updatedAt": "2019-09-23T18:55:29.371Z"
}