{
  "contractName": "MockEscrow",
  "abi": [
    {
      "constant": false,
      "inputs": [
        {
          "name": "_token",
          "type": "address"
        },
        {
          "name": "_to",
          "type": "address"
        },
        {
          "name": "_value",
          "type": "uint256"
        }
      ],
      "name": "transfer",
      "outputs": [],
      "payable": false,
      "stateMutability": "nonpayable",
      "type": "function"
    },
    {
      "constant": false,
      "inputs": [
        {
          "name": "_account",
          "type": "address"
        },
        {
          "name": "_token",
          "type": "address"
        },
        {
          "name": "_to",
          "type": "address"
        },
        {
          "name": "_value",
          "type": "uint256"
        }
      ],
      "name": "transferFromAccount",
      "outputs": [],
      "payable": false,
      "stateMutability": "nonpayable",
      "type": "function"
    }
  ],
  "bytecode": "0x608060405234801561001057600080fd5b50610264806100206000396000f30060806040526004361061004b5763ffffffff7c01000000000000000000000000000000000000000000000000000000006000350416635e61e1c88114610050578063beabacc81461008f575b600080fd5b34801561005c57600080fd5b5061008d73ffffffffffffffffffffffffffffffffffffffff600435811690602435811690604435166064356100c6565b005b34801561009b57600080fd5b5061008d73ffffffffffffffffffffffffffffffffffffffff60043581169060243516604435610164565b604080517f93ef43df00000000000000000000000000000000000000000000000000000000815273ffffffffffffffffffffffffffffffffffffffff85811660048301528481166024830152604482018490529151918616916393ef43df9160648082019260009290919082900301818387803b15801561014657600080fd5b505af115801561015a573d6000803e3d6000fd5b5050505050505050565b8273ffffffffffffffffffffffffffffffffffffffff1663a9059cbb83836040518363ffffffff167c0100000000000000000000000000000000000000000000000000000000028152600401808373ffffffffffffffffffffffffffffffffffffffff1673ffffffffffffffffffffffffffffffffffffffff16815260200182815260200192505050602060405180830381600087803b15801561020757600080fd5b505af115801561021b573d6000803e3d6000fd5b505050506040513d602081101561023157600080fd5b50505050505600a165627a7a7230582071bc1fa36661c986c164b734c0b7e433f935f4ee75507464e700fee61459bb760029",
  "source": "pragma solidity 0.4.24;\n\nimport \"../lib/tokens/ERC20.sol\";\nimport \"./MockAccount.sol\";\n\n/**\n * @author Rohit Soni (rohit@nuofox.com)\n */\n\ncontract MockEscrow {\n\n    function transfer\n    (\n        address _token,\n        address _to,\n        uint _value\n    )\n        public\n    {\n        ERC20(_token).transfer(_to, _value);\n    }\n\n    function transferFromAccount\n    (\n        address _account,\n        address _token,\n        address _to,\n        uint _value\n    )\n        public\n    {   \n        MockAccount(_account).transferBySystem(_token, _to, _value);\n    }\n\n}",
  "sourcePath": "/home/amxx/Work/subgraphs/nuo-audited-contracts/contracts/mock/MockEscrow.sol",
  "compiler": {
    "name": "solc",
    "version": "0.4.24+commit.e67f0147.Emscripten.clang"
  },
  "schemaVersion": "2.0.1",
  "updatedAt": "2019-09-23T18:55:29.370Z"
}