{
  "contractName": "Proxy",
  "abi": [
    {
      "inputs": [
        {
          "name": "_masterCopy",
          "type": "address"
        }
      ],
      "payable": false,
      "stateMutability": "nonpayable",
      "type": "constructor"
    },
    {
      "payable": true,
      "stateMutability": "payable",
      "type": "fallback"
    },
    {
      "constant": true,
      "inputs": [],
      "name": "implementation",
      "outputs": [
        {
          "name": "",
          "type": "address"
        }
      ],
      "payable": false,
      "stateMutability": "view",
      "type": "function"
    },
    {
      "constant": true,
      "inputs": [],
      "name": "proxyType",
      "outputs": [
        {
          "name": "",
          "type": "uint256"
        }
      ],
      "payable": false,
      "stateMutability": "pure",
      "type": "function"
    }
  ],
  "bytecode": "0x608060405234801561001057600080fd5b506040516020806102288339810160405251600160a060020a03811615156100be57604080517f08c379a0000000000000000000000000000000000000000000000000000000008152602060048201526024808201527f496e76616c6964206d617374657220636f707920616464726573732070726f7660448201527f6964656400000000000000000000000000000000000000000000000000000000606482015290519081900360840190fd5b60008054600160a060020a03909216600160a060020a031990921691909117905561013a806100ee6000396000f30060806040526004361061004b5763ffffffff7c01000000000000000000000000000000000000000000000000000000006000350416634555d5c981146100885780635c60da1b146100af575b73ffffffffffffffffffffffffffffffffffffffff600054163660008037600080366000845af43d6000803e801515610083573d6000fd5b3d6000f35b34801561009457600080fd5b5061009d6100ed565b60408051918252519081900360200190f35b3480156100bb57600080fd5b506100c46100f2565b6040805173ffffffffffffffffffffffffffffffffffffffff9092168252519081900360200190f35b600290565b60005473ffffffffffffffffffffffffffffffffffffffff16905600a165627a7a72305820f42a17be35438b26ef32c8c2a2ca39168cd924450b023add17f63f1883d933670029",
  "source": "pragma solidity 0.4.24;\n\n\n/// @title Proxy - Generic proxy contract allows to execute all transactions applying the code of a master contract.\n/// @author Stefan George - <stefan@gnosis.pm>\ncontract Proxy {\n\n    // masterCopy always needs to be first declared variable, to ensure that it is at the same location in the contracts to which calls are delegated.\n    address masterCopy;\n\n    /// @dev Constructor function sets address of master copy contract.\n    /// @param _masterCopy Master copy address.\n    constructor(address _masterCopy)\n        public\n    {\n        require(_masterCopy != 0, \"Invalid master copy address provided\");\n        masterCopy = _masterCopy;\n    }\n\n    /// @dev Fallback function forwards all transactions and returns all received return data.\n    function ()\n        external\n        payable\n    {\n        // solium-disable-next-line security/no-inline-assembly\n        assembly {\n            let masterCopy := and(sload(0), 0xffffffffffffffffffffffffffffffffffffffff)\n            calldatacopy(0, 0, calldatasize())\n            let success := delegatecall(gas, masterCopy, 0, calldatasize(), 0, 0)\n            returndatacopy(0, 0, returndatasize())\n            if eq(success, 0) { revert(0, returndatasize()) }\n            return(0, returndatasize())\n        }\n    }\n\n    function implementation()\n        public\n        view\n        returns (address)\n    {\n        return masterCopy;\n    }\n\n    function proxyType()\n        public\n        pure\n        returns (uint256)\n    {\n        return 2;\n    }\n}\n",
  "sourcePath": "/home/amxx/Work/subgraphs/nuo-audited-contracts/contracts/lib/utils/Proxy.sol",
  "compiler": {
    "name": "solc",
    "version": "0.4.24+commit.e67f0147.Emscripten.clang"
  },
  "schemaVersion": "2.0.1",
  "updatedAt": "2019-09-24T21:09:49.852Z"
}