{
  "contractName": "Reserve",
  "abi": [
    {
      "constant": false,
      "inputs": [],
      "name": "stop",
      "outputs": [],
      "payable": false,
      "stateMutability": "nonpayable",
      "type": "function"
    },
    {
      "constant": false,
      "inputs": [
        {
          "name": "owner_",
          "type": "address"
        }
      ],
      "name": "setOwner",
      "outputs": [],
      "payable": false,
      "stateMutability": "nonpayable",
      "type": "function"
    },
    {
      "constant": true,
      "inputs": [
        {
          "name": "",
          "type": "uint256"
        },
        {
          "name": "",
          "type": "address"
        }
      ],
      "name": "losses",
      "outputs": [
        {
          "name": "",
          "type": "uint256"
        }
      ],
      "payable": false,
      "stateMutability": "view",
      "type": "function"
    },
    {
      "constant": true,
      "inputs": [
        {
          "name": "",
          "type": "uint256"
        },
        {
          "name": "",
          "type": "address"
        }
      ],
      "name": "reserves",
      "outputs": [
        {
          "name": "",
          "type": "uint256"
        }
      ],
      "payable": false,
      "stateMutability": "view",
      "type": "function"
    },
    {
      "constant": true,
      "inputs": [
        {
          "name": "",
          "type": "uint256"
        },
        {
          "name": "",
          "type": "address"
        }
      ],
      "name": "profits",
      "outputs": [
        {
          "name": "",
          "type": "uint256"
        }
      ],
      "payable": false,
      "stateMutability": "view",
      "type": "function"
    },
    {
      "constant": true,
      "inputs": [
        {
          "name": "",
          "type": "bytes32"
        }
      ],
      "name": "orderToCumulative",
      "outputs": [
        {
          "name": "timestamp",
          "type": "uint256"
        },
        {
          "name": "value",
          "type": "uint256"
        }
      ],
      "payable": false,
      "stateMutability": "view",
      "type": "function"
    },
    {
      "constant": true,
      "inputs": [],
      "name": "dateTime",
      "outputs": [
        {
          "name": "",
          "type": "address"
        }
      ],
      "payable": false,
      "stateMutability": "view",
      "type": "function"
    },
    {
      "constant": true,
      "inputs": [
        {
          "name": "",
          "type": "uint256"
        },
        {
          "name": "",
          "type": "address"
        }
      ],
      "name": "deposits",
      "outputs": [
        {
          "name": "",
          "type": "uint256"
        }
      ],
      "payable": false,
      "stateMutability": "view",
      "type": "function"
    },
    {
      "constant": true,
      "inputs": [],
      "name": "deployTimestamp",
      "outputs": [
        {
          "name": "",
          "type": "uint256"
        }
      ],
      "payable": false,
      "stateMutability": "view",
      "type": "function"
    },
    {
      "constant": true,
      "inputs": [],
      "name": "accountFactory",
      "outputs": [
        {
          "name": "",
          "type": "address"
        }
      ],
      "payable": false,
      "stateMutability": "view",
      "type": "function"
    },
    {
      "constant": true,
      "inputs": [
        {
          "name": "",
          "type": "uint256"
        },
        {
          "name": "",
          "type": "address"
        }
      ],
      "name": "withdrawals",
      "outputs": [
        {
          "name": "",
          "type": "uint256"
        }
      ],
      "payable": false,
      "stateMutability": "view",
      "type": "function"
    },
    {
      "constant": true,
      "inputs": [
        {
          "name": "",
          "type": "address"
        },
        {
          "name": "",
          "type": "uint256"
        }
      ],
      "name": "accountToOrders",
      "outputs": [
        {
          "name": "",
          "type": "bytes32"
        }
      ],
      "payable": false,
      "stateMutability": "view",
      "type": "function"
    },
    {
      "constant": true,
      "inputs": [],
      "name": "stopped",
      "outputs": [
        {
          "name": "",
          "type": "bool"
        }
      ],
      "payable": false,
      "stateMutability": "view",
      "type": "function"
    },
    {
      "constant": true,
      "inputs": [],
      "name": "config",
      "outputs": [
        {
          "name": "",
          "type": "address"
        }
      ],
      "payable": false,
      "stateMutability": "view",
      "type": "function"
    },
    {
      "constant": false,
      "inputs": [
        {
          "name": "authority_",
          "type": "address"
        }
      ],
      "name": "setAuthority",
      "outputs": [],
      "payable": false,
      "stateMutability": "nonpayable",
      "type": "function"
    },
    {
      "constant": true,
      "inputs": [
        {
          "name": "",
          "type": "address"
        },
        {
          "name": "",
          "type": "address"
        }
      ],
      "name": "surplus",
      "outputs": [
        {
          "name": "",
          "type": "uint256"
        }
      ],
      "payable": false,
      "stateMutability": "view",
      "type": "function"
    },
    {
      "constant": true,
      "inputs": [
        {
          "name": "",
          "type": "bytes32"
        }
      ],
      "name": "isOrder",
      "outputs": [
        {
          "name": "",
          "type": "bool"
        }
      ],
      "payable": false,
      "stateMutability": "view",
      "type": "function"
    },
    {
      "constant": true,
      "inputs": [],
      "name": "owner",
      "outputs": [
        {
          "name": "",
          "type": "address"
        }
      ],
      "payable": false,
      "stateMutability": "view",
      "type": "function"
    },
    {
      "constant": true,
      "inputs": [
        {
          "name": "",
          "type": "address"
        }
      ],
      "name": "lastReserveRuns",
      "outputs": [
        {
          "name": "",
          "type": "uint256"
        }
      ],
      "payable": false,
      "stateMutability": "view",
      "type": "function"
    },
    {
      "constant": true,
      "inputs": [
        {
          "name": "",
          "type": "bytes32"
        }
      ],
      "name": "cancelledOrders",
      "outputs": [
        {
          "name": "",
          "type": "bool"
        }
      ],
      "payable": false,
      "stateMutability": "view",
      "type": "function"
    },
    {
      "constant": true,
      "inputs": [
        {
          "name": "",
          "type": "uint256"
        }
      ],
      "name": "orders",
      "outputs": [
        {
          "name": "",
          "type": "bytes32"
        }
      ],
      "payable": false,
      "stateMutability": "view",
      "type": "function"
    },
    {
      "constant": false,
      "inputs": [],
      "name": "start",
      "outputs": [],
      "payable": false,
      "stateMutability": "nonpayable",
      "type": "function"
    },
    {
      "constant": true,
      "inputs": [],
      "name": "authority",
      "outputs": [
        {
          "name": "",
          "type": "address"
        }
      ],
      "payable": false,
      "stateMutability": "view",
      "type": "function"
    },
    {
      "constant": true,
      "inputs": [
        {
          "name": "",
          "type": "bytes32"
        }
      ],
      "name": "hashToOrder",
      "outputs": [
        {
          "name": "account",
          "type": "address"
        },
        {
          "name": "token",
          "type": "address"
        },
        {
          "name": "byUser",
          "type": "address"
        },
        {
          "name": "value",
          "type": "uint256"
        },
        {
          "name": "duration",
          "type": "uint256"
        },
        {
          "name": "expirationTimestamp",
          "type": "uint256"
        },
        {
          "name": "salt",
          "type": "uint256"
        },
        {
          "name": "createdTimestamp",
          "type": "uint256"
        },
        {
          "name": "orderHash",
          "type": "bytes32"
        }
      ],
      "payable": false,
      "stateMutability": "view",
      "type": "function"
    },
    {
      "constant": true,
      "inputs": [],
      "name": "escrow",
      "outputs": [
        {
          "name": "",
          "type": "address"
        }
      ],
      "payable": false,
      "stateMutability": "view",
      "type": "function"
    },
    {
      "constant": true,
      "inputs": [],
      "name": "TIME_INTERVAL",
      "outputs": [
        {
          "name": "",
          "type": "uint256"
        }
      ],
      "payable": false,
      "stateMutability": "view",
      "type": "function"
    },
    {
      "constant": true,
      "inputs": [],
      "name": "VERSION",
      "outputs": [
        {
          "name": "",
          "type": "string"
        }
      ],
      "payable": false,
      "stateMutability": "view",
      "type": "function"
    },
    {
      "inputs": [
        {
          "name": "_escrow",
          "type": "address"
        },
        {
          "name": "_accountFactory",
          "type": "address"
        },
        {
          "name": "_dateTime",
          "type": "address"
        },
        {
          "name": "_config",
          "type": "address"
        }
      ],
      "payable": false,
      "stateMutability": "nonpayable",
      "type": "constructor"
    },
    {
      "anonymous": false,
      "inputs": [
        {
          "indexed": true,
          "name": "orderHash",
          "type": "bytes32"
        },
        {
          "indexed": true,
          "name": "account",
          "type": "address"
        },
        {
          "indexed": true,
          "name": "token",
          "type": "address"
        },
        {
          "indexed": false,
          "name": "byUser",
          "type": "address"
        },
        {
          "indexed": false,
          "name": "value",
          "type": "uint256"
        },
        {
          "indexed": false,
          "name": "expirationTimestamp",
          "type": "uint256"
        }
      ],
      "name": "LogOrderCreated",
      "type": "event"
    },
    {
      "anonymous": false,
      "inputs": [
        {
          "indexed": true,
          "name": "orderHash",
          "type": "bytes32"
        },
        {
          "indexed": true,
          "name": "by",
          "type": "address"
        }
      ],
      "name": "LogOrderCancelled",
      "type": "event"
    },
    {
      "anonymous": false,
      "inputs": [
        {
          "indexed": true,
          "name": "token",
          "type": "address"
        },
        {
          "indexed": true,
          "name": "updatedTill",
          "type": "uint256"
        },
        {
          "indexed": false,
          "name": "reserve",
          "type": "uint256"
        },
        {
          "indexed": false,
          "name": "profit",
          "type": "uint256"
        },
        {
          "indexed": false,
          "name": "loss",
          "type": "uint256"
        }
      ],
      "name": "LogReserveValuesUpdated",
      "type": "event"
    },
    {
      "anonymous": false,
      "inputs": [
        {
          "indexed": true,
          "name": "orderHash",
          "type": "bytes32"
        },
        {
          "indexed": false,
          "name": "updatedTill",
          "type": "uint256"
        },
        {
          "indexed": false,
          "name": "value",
          "type": "uint256"
        }
      ],
      "name": "LogOrderCumulativeUpdated",
      "type": "event"
    },
    {
      "anonymous": false,
      "inputs": [
        {
          "indexed": true,
          "name": "token",
          "type": "address"
        },
        {
          "indexed": true,
          "name": "to",
          "type": "address"
        },
        {
          "indexed": false,
          "name": "value",
          "type": "uint256"
        },
        {
          "indexed": false,
          "name": "by",
          "type": "address"
        }
      ],
      "name": "LogRelease",
      "type": "event"
    },
    {
      "anonymous": false,
      "inputs": [
        {
          "indexed": true,
          "name": "token",
          "type": "address"
        },
        {
          "indexed": true,
          "name": "from",
          "type": "address"
        },
        {
          "indexed": false,
          "name": "value",
          "type": "uint256"
        },
        {
          "indexed": false,
          "name": "profit",
          "type": "uint256"
        },
        {
          "indexed": false,
          "name": "loss",
          "type": "uint256"
        },
        {
          "indexed": false,
          "name": "by",
          "type": "address"
        }
      ],
      "name": "LogLock",
      "type": "event"
    },
    {
      "anonymous": false,
      "inputs": [
        {
          "indexed": true,
          "name": "forToken",
          "type": "address"
        },
        {
          "indexed": true,
          "name": "token",
          "type": "address"
        },
        {
          "indexed": false,
          "name": "from",
          "type": "address"
        },
        {
          "indexed": false,
          "name": "value",
          "type": "uint256"
        }
      ],
      "name": "LogLockSurplus",
      "type": "event"
    },
    {
      "anonymous": false,
      "inputs": [
        {
          "indexed": true,
          "name": "forToken",
          "type": "address"
        },
        {
          "indexed": true,
          "name": "token",
          "type": "address"
        },
        {
          "indexed": false,
          "name": "to",
          "type": "address"
        },
        {
          "indexed": false,
          "name": "value",
          "type": "uint256"
        }
      ],
      "name": "LogTransferSurplus",
      "type": "event"
    },
    {
      "anonymous": false,
      "inputs": [
        {
          "indexed": false,
          "name": "methodSig",
          "type": "string"
        },
        {
          "indexed": false,
          "name": "errMsg",
          "type": "string"
        }
      ],
      "name": "LogError",
      "type": "event"
    },
    {
      "anonymous": false,
      "inputs": [
        {
          "indexed": true,
          "name": "bytes32Value",
          "type": "bytes32"
        },
        {
          "indexed": false,
          "name": "methodSig",
          "type": "string"
        },
        {
          "indexed": false,
          "name": "errMsg",
          "type": "string"
        }
      ],
      "name": "LogErrorWithHintBytes32",
      "type": "event"
    },
    {
      "anonymous": false,
      "inputs": [
        {
          "indexed": true,
          "name": "addressValue",
          "type": "address"
        },
        {
          "indexed": false,
          "name": "methodSig",
          "type": "string"
        },
        {
          "indexed": false,
          "name": "errMsg",
          "type": "string"
        }
      ],
      "name": "LogErrorWithHintAddress",
      "type": "event"
    },
    {
      "anonymous": false,
      "inputs": [
        {
          "indexed": true,
          "name": "authority",
          "type": "address"
        }
      ],
      "name": "LogSetAuthority",
      "type": "event"
    },
    {
      "anonymous": false,
      "inputs": [
        {
          "indexed": true,
          "name": "owner",
          "type": "address"
        }
      ],
      "name": "LogSetOwner",
      "type": "event"
    },
    {
      "anonymous": true,
      "inputs": [
        {
          "indexed": true,
          "name": "sig",
          "type": "bytes4"
        },
        {
          "indexed": true,
          "name": "guy",
          "type": "address"
        },
        {
          "indexed": true,
          "name": "foo",
          "type": "bytes32"
        },
        {
          "indexed": true,
          "name": "bar",
          "type": "bytes32"
        },
        {
          "indexed": false,
          "name": "wad",
          "type": "uint256"
        },
        {
          "indexed": false,
          "name": "fax",
          "type": "bytes"
        }
      ],
      "name": "LogNote",
      "type": "event"
    },
    {
      "constant": false,
      "inputs": [
        {
          "name": "_escrow",
          "type": "address"
        }
      ],
      "name": "setEscrow",
      "outputs": [],
      "payable": false,
      "stateMutability": "nonpayable",
      "type": "function"
    },
    {
      "constant": false,
      "inputs": [
        {
          "name": "_accountFactory",
          "type": "address"
        }
      ],
      "name": "setAccountFactory",
      "outputs": [],
      "payable": false,
      "stateMutability": "nonpayable",
      "type": "function"
    },
    {
      "constant": false,
      "inputs": [
        {
          "name": "_dateTime",
          "type": "address"
        }
      ],
      "name": "setDateTime",
      "outputs": [],
      "payable": false,
      "stateMutability": "nonpayable",
      "type": "function"
    },
    {
      "constant": false,
      "inputs": [
        {
          "name": "_config",
          "type": "address"
        }
      ],
      "name": "setConfig",
      "outputs": [],
      "payable": false,
      "stateMutability": "nonpayable",
      "type": "function"
    },
    {
      "constant": false,
      "inputs": [
        {
          "name": "_orderAddresses",
          "type": "address[3]"
        },
        {
          "name": "_orderValues",
          "type": "uint256[3]"
        },
        {
          "name": "_signature",
          "type": "bytes"
        }
      ],
      "name": "createOrder",
      "outputs": [],
      "payable": false,
      "stateMutability": "nonpayable",
      "type": "function"
    },
    {
      "constant": false,
      "inputs": [
        {
          "name": "_orderHash",
          "type": "bytes32"
        },
        {
          "name": "_signature",
          "type": "bytes"
        }
      ],
      "name": "cancelOrder",
      "outputs": [],
      "payable": false,
      "stateMutability": "nonpayable",
      "type": "function"
    },
    {
      "constant": false,
      "inputs": [
        {
          "name": "_orderHash",
          "type": "bytes32"
        }
      ],
      "name": "processOrder",
      "outputs": [],
      "payable": false,
      "stateMutability": "nonpayable",
      "type": "function"
    },
    {
      "constant": false,
      "inputs": [
        {
          "name": "_token",
          "type": "address"
        },
        {
          "name": "_to",
          "type": "address"
        },
        {
          "name": "_value",
          "type": "uint256"
        }
      ],
      "name": "release",
      "outputs": [],
      "payable": false,
      "stateMutability": "nonpayable",
      "type": "function"
    },
    {
      "constant": false,
      "inputs": [
        {
          "name": "_token",
          "type": "address"
        },
        {
          "name": "_from",
          "type": "address"
        },
        {
          "name": "_value",
          "type": "uint256"
        },
        {
          "name": "_profit",
          "type": "uint256"
        },
        {
          "name": "_loss",
          "type": "uint256"
        }
      ],
      "name": "lock",
      "outputs": [],
      "payable": false,
      "stateMutability": "nonpayable",
      "type": "function"
    },
    {
      "constant": false,
      "inputs": [
        {
          "name": "_from",
          "type": "address"
        },
        {
          "name": "_forToken",
          "type": "address"
        },
        {
          "name": "_token",
          "type": "address"
        },
        {
          "name": "_value",
          "type": "uint256"
        }
      ],
      "name": "lockSurplus",
      "outputs": [],
      "payable": false,
      "stateMutability": "nonpayable",
      "type": "function"
    },
    {
      "constant": false,
      "inputs": [
        {
          "name": "_to",
          "type": "address"
        },
        {
          "name": "_forToken",
          "type": "address"
        },
        {
          "name": "_token",
          "type": "address"
        },
        {
          "name": "_value",
          "type": "uint256"
        }
      ],
      "name": "transferSurplus",
      "outputs": [],
      "payable": false,
      "stateMutability": "nonpayable",
      "type": "function"
    },
    {
      "constant": false,
      "inputs": [
        {
          "name": "_token",
          "type": "address"
        },
        {
          "name": "_forDays",
          "type": "uint256"
        }
      ],
      "name": "updateReserveValues",
      "outputs": [],
      "payable": false,
      "stateMutability": "nonpayable",
      "type": "function"
    },
    {
      "constant": false,
      "inputs": [
        {
          "name": "_orderHashes",
          "type": "bytes32[]"
        },
        {
          "name": "_forDays",
          "type": "uint256[]"
        }
      ],
      "name": "updateOrderCumulativeValueBatch",
      "outputs": [],
      "payable": false,
      "stateMutability": "nonpayable",
      "type": "function"
    },
    {
      "constant": false,
      "inputs": [
        {
          "name": "_orderHash",
          "type": "bytes32"
        },
        {
          "name": "_forDays",
          "type": "uint256"
        }
      ],
      "name": "updateOrderCumulativeValue",
      "outputs": [],
      "payable": false,
      "stateMutability": "nonpayable",
      "type": "function"
    },
    {
      "constant": true,
      "inputs": [],
      "name": "getAllOrders",
      "outputs": [
        {
          "name": "",
          "type": "bytes32[]"
        }
      ],
      "payable": false,
      "stateMutability": "view",
      "type": "function"
    },
    {
      "constant": true,
      "inputs": [
        {
          "name": "_account",
          "type": "address"
        }
      ],
      "name": "getOrdersForAccount",
      "outputs": [
        {
          "name": "",
          "type": "bytes32[]"
        }
      ],
      "payable": false,
      "stateMutability": "view",
      "type": "function"
    },
    {
      "constant": true,
      "inputs": [
        {
          "name": "_orderHash",
          "type": "bytes32"
        }
      ],
      "name": "getOrder",
      "outputs": [
        {
          "name": "_account",
          "type": "address"
        },
        {
          "name": "_token",
          "type": "address"
        },
        {
          "name": "_byUser",
          "type": "address"
        },
        {
          "name": "_value",
          "type": "uint256"
        },
        {
          "name": "_expirationTimestamp",
          "type": "uint256"
        },
        {
          "name": "_salt",
          "type": "uint256"
        },
        {
          "name": "_createdTimestamp",
          "type": "uint256"
        }
      ],
      "payable": false,
      "stateMutability": "view",
      "type": "function"
    }
  ],
  "bytecode": "0x60806040526001805460a060020a60ff02191690556201518060075534801561002757600080fd5b50604051608080614ed0833981016040818152825160208401519184015160609094015160018054600160a060020a03191633908117909155919492939091907fce241d7ca1f669fee44b6fc00b8eba2df3bb514eed0f6f668f8f89096e81ed9490600090a260028054600160a060020a0319908116600160a060020a039687161790915560038054821694861694909417909355600480548416928516929092178255600580549093169316929092179055600754024203600655614dde806100f26000396000f3006080604052600436106102005763ffffffff60e060020a60003504166307da68f58114610205578063106689a51461021c57806313af40351461024c57806313b94ac81461026d57806314b0b16e146102a357806320e3dbd4146102c457806325c005a7146102e55780632c35a9e014610309578063359abaed146103b05780633d58e5c41461042157806342bb43dd1461044557806347c313a21461047557806348c8cd41146104a657806353a58de1146104d757806353c79658146104fb5780635778472a14610516578063607ad0d714610575578063687cd9c11461058a578063691c6d831461059f5780636dec3260146105c357806375f12b21146105e75780637713fb181461061057806379502c55146106345780637a9e5e4b146106495780637bea0d1c1461066a57806383610c671461067f5780638723555e146106a65780638bfb07c9146106be5780638da5cb5b146106e85780638daa8fac146106fd5780638f13f48e1461071e57806393d18e9214610736578063a85c38ef1461074e578063addc1a7614610766578063b5fbd96014610787578063be9a655514610815578063bf7e214f1461082a578063c10c35461461083f578063c559f68614610860578063cfbaa152146108ce578063e2fdcc17146108fe578063e9bb37a014610913578063f4821dd014610928578063ffa1ad741461094c575b600080fd5b34801561021157600080fd5b5061021a6109d6565b005b34801561022857600080fd5b5061021a600160a060020a0360043581169060243516604435606435608435610aba565b34801561025857600080fd5b5061021a600160a060020a0360043516610fc3565b34801561027957600080fd5b50610291600435600160a060020a036024351661106d565b60408051918252519081900360200190f35b3480156102af57600080fd5b5061021a600160a060020a036004351661108a565b3480156102d057600080fd5b5061021a600160a060020a03600435166111aa565b3480156102f157600080fd5b50610291600435600160a060020a03602435166112ca565b34801561031557600080fd5b5060408051606081810190925261021a913691600491606491908390600390839083908082843750506040805160608181019092529497969581810195945092506003915083908390808284375050604080516020601f88358a018035918201839004830284018301909452808352969998978101969195509182019350915081908401838280828437509497506112e79650505050505050565b3480156103bc57600080fd5b506103d1600160a060020a0360043516611c54565b60408051602080825283518183015283519192839290830191858101910280838360005b8381101561040d5781810151838201526020016103f5565b505050509050019250505060405180910390f35b34801561042d57600080fd5b50610291600435600160a060020a0360243516611cc2565b34801561045157600080fd5b5061021a600160a060020a0360043581169060243581169060443516606435611cdf565b34801561048157600080fd5b5061048d600435611fa6565b6040805192835260208301919091528051918290030190f35b3480156104b257600080fd5b506104bb611fbf565b60408051600160a060020a039092168252519081900360200190f35b3480156104e357600080fd5b50610291600435600160a060020a0360243516611fce565b34801561050757600080fd5b5061021a600435602435611feb565b34801561052257600080fd5b5061052e6004356126b3565b60408051600160a060020a039889168152968816602088015294909616858501526060850192909252608084015260a083015260c082019290925290519081900360e00190f35b34801561058157600080fd5b50610291612768565b34801561059657600080fd5b506104bb61276e565b3480156105ab57600080fd5b50610291600435600160a060020a036024351661277d565b3480156105cf57600080fd5b50610291600160a060020a036004351660243561279a565b3480156105f357600080fd5b506105fc6127ca565b604080519115158252519081900360200190f35b34801561061c57600080fd5b5061021a6004803590602480359081019101356127eb565b34801561064057600080fd5b506104bb612c5d565b34801561065557600080fd5b5061021a600160a060020a0360043516612c6c565b34801561067657600080fd5b506103d1612d12565b34801561068b57600080fd5b50610291600160a060020a0360043581169060243516612d6b565b3480156106b257600080fd5b506105fc600435612d88565b3480156106ca57600080fd5b5061021a600160a060020a0360043581169060243516604435612d9d565b3480156106f457600080fd5b506104bb61300a565b34801561070957600080fd5b50610291600160a060020a0360043516613019565b34801561072a57600080fd5b506105fc60043561302b565b34801561074257600080fd5b5061021a600435613040565b34801561075a57600080fd5b506102916004356133d2565b34801561077257600080fd5b5061021a600160a060020a03600435166133f1565b34801561079357600080fd5b506040805160206004803580820135838102808601850190965280855261021a95369593946024949385019291829185019084908082843750506040805187358901803560208181028481018201909552818452989b9a9989019892975090820195509350839250850190849080828437509497506135119650505050505050565b34801561082157600080fd5b5061021a613734565b34801561083657600080fd5b506104bb613801565b34801561084b57600080fd5b5061021a600160a060020a0360043516613810565b34801561086c57600080fd5b50610878600435613930565b60408051600160a060020a039a8b168152988a1660208a015296909816878701526060870194909452608086019290925260a085015260c084015260e08301526101008201929092529051908190036101200190f35b3480156108da57600080fd5b5061021a600160a060020a0360043581169060243581169060443516606435613989565b34801561090a57600080fd5b506104bb613cec565b34801561091f57600080fd5b50610291613cfb565b34801561093457600080fd5b5061021a600160a060020a0360043516602435613d01565b34801561095857600080fd5b506109616141e3565b6040805160208082528351818301528351919283929083019185019080838360005b8381101561099b578181015183820152602001610983565b50505050905090810190601f1680156109c85780820380516001836020036101000a031916815260200191505b509250505060405180910390f35b6109ec33600035600160e060020a03191661421a565b1515610a30576040805160e560020a62461bcd02815260206004820152601f6024820152600080516020614d13833981519152604482015290519081900360640190fd5b60408051348082526020820183815236938301849052600435936024359384938693339360008035600160e060020a031916949092606082018484808284376040519201829003965090945050505050a450506001805474ff0000000000000000000000000000000000000000191674010000000000000000000000000000000000000000179055565b604080513480825260208201838152369383018490526000936004359360243593849386933393600160e060020a03198a351693928a929190606082018484808284376040519201829003965090945050505050a4610b2533600035600160e060020a03191661421a565b1515610b69576040805160e560020a62461bcd02815260206004820152601f6024820152600080516020614d13833981519152604482015290519081900360640190fd5b84158015610b75575083155b15610bf0576040805160e560020a62461bcd02815260206004820152602860248201527f526573657276653a3a6c6f636b20494e56414c49445f50524f4649545f4c4f5360448201527f535f56414c554553000000000000000000000000000000000000000000000000606482015290519081900360840190fd5b8588600160a060020a03166370a08231896040518263ffffffff1660e060020a0281526004018082600160a060020a0316600160a060020a03168152602001915050602060405180830381600087803b158015610c4c57600080fd5b505af1158015610c60573d6000803e3d6000fd5b505050506040513d6020811015610c7657600080fd5b50511015610cf4576040805160e560020a62461bcd02815260206004820152602260248201527f526573657276653a3a6c6f636b20494e53554646494349454e545f42414c414e60448201527f4345000000000000000000000000000000000000000000000000000000000000606482015290519081900360840190fd5b600354604080517f25ca4c9c000000000000000000000000000000000000000000000000000000008152600160a060020a038a81166004830152915191909216916325ca4c9c9160248083019260209291908290030181600087803b158015610d5c57600080fd5b505af1158015610d70573d6000803e3d6000fd5b505050506040513d6020811015610d8657600080fd5b505115610e2757600254604080517f5e61e1c8000000000000000000000000000000000000000000000000000000008152600160a060020a038a811660048301528b81166024830152909216604483018190526064830189905290519091635e61e1c891608480830192600092919082900301818387803b158015610e0a57600080fd5b505af1158015610e1e573d6000803e3d6000fd5b50505050610ea0565b6002546040805160e360020a6317d57599028152600160a060020a038b8116600483015292831660248201526044810189905290519189169163beabacc89160648082019260009290919082900301818387803b158015610e8757600080fd5b505af1158015610e9b573d6000803e3d6000fd5b505050505b610ea942614323565b92506000851115610f09576000838152600f60209081526040808320600160a060020a038c168452909152902054610ee19086614563565b6000848152600f60209081526040808320600160a060020a038d168452909152902055610f63565b6000841115610f63576000838152601060209081526040808320600160a060020a038c168452909152902054610f3f9085614563565b6000848152601060209081526040808320600160a060020a038d1684529091529020555b60408051878152602081018790528082018690523360608201529051600160a060020a03808a1692908b16917f91ed91fe7e161a91f172567d1c134b0aa11abfbb0d770b6a68f2860969103f599181900360800190a35050505050505050565b610fd933600035600160e060020a03191661421a565b151561101d576040805160e560020a62461bcd02815260206004820152601f6024820152600080516020614d13833981519152604482015290519081900360640190fd5b60018054600160a060020a031916600160a060020a0383811691909117918290556040519116907fce241d7ca1f669fee44b6fc00b8eba2df3bb514eed0f6f668f8f89096e81ed9490600090a250565b601060209081526000928352604080842090915290825290205481565b60408051348082526020820183815236938301849052600435936024359384938693339360008035600160e060020a031916949092606082018484808284376040519201829003965090945050505050a46110f133600035600160e060020a03191661421a565b1515611135576040805160e560020a62461bcd02815260206004820152601f6024820152600080516020614d13833981519152604482015290519081900360640190fd5b82600160a060020a0381161515611184576040805160e560020a62461bcd0281526020600482015260186024820152600080516020614d73833981519152604482015290519081900360640190fd5b505060048054600160a060020a031916600160a060020a03939093169290921790915550565b60408051348082526020820183815236938301849052600435936024359384938693339360008035600160e060020a031916949092606082018484808284376040519201829003965090945050505050a461121133600035600160e060020a03191661421a565b1515611255576040805160e560020a62461bcd02815260206004820152601f6024820152600080516020614d13833981519152604482015290519081900360640190fd5b82600160a060020a03811615156112a4576040805160e560020a62461bcd0281526020600482015260186024820152600080516020614d73833981519152604482015290519081900360640190fd5b505060058054600160a060020a031916600160a060020a03939093169290921790915550565b601160209081526000928352604080842090915290825290205481565b6112ef614ca6565b6040805134808252602082018381523693830184905260009384936004359360243593849386933393600160e060020a03198a35169390928a929091606082018484808284376040519201829003965090945050505050a46005546040805160e060020a639c14ee290281523360048201529051600160a060020a0390921691639c14ee29916024808201926020929091908290030181600087803b15801561139757600080fd5b505af11580156113ab573d6000803e3d6000fd5b505050506040513d60208110156113c157600080fd5b50511515611407576040805160e560020a62461bcd0281526020600482018190526024820152600080516020614d93833981519152604482015290519081900360640190fd5b60015474010000000000000000000000000000000000000000900460ff161561147a576040805160e560020a62461bcd02815260206004820152601960248201527f445353746f703a3a5f20464541545552455f53544f5050454400000000000000604482015290519081900360640190fd5b6114848888614573565b94506114958561010001518761460b565b93508460400151600160a060020a031684600160a060020a03161415156115315761010085015160408051818152601481830152600080516020614d5383398151915260608201526080602082018190526018908201527f5349474e45525f4e4f545f4f524445525f43524541544f52000000000000000060a08201529051600080516020614d338339815191529181900360c00190a2611c4a565b6101008501516000908152600a602052604090205460ff16156115c857610100850151604080518181526014818301819052600080516020614d5383398151915260608301526080602083018190528201527f4f524445525f414c52454144595f45584953545300000000000000000000000060a08201529051600080516020614d338339815191529181900360c00190a2611c4a565b6003548551604080517f25ca4c9c000000000000000000000000000000000000000000000000000000008152600160a060020a039283166004820152905191909216916325ca4c9c9160248083019260209291908290030181600087803b15801561163257600080fd5b505af1158015611646573d6000803e3d6000fd5b505050506040513d602081101561165c57600080fd5b505115156116df5761010085015160408051818152601481830152600080516020614d5383398151915260608201526080602082018190526015908201527f494e56414c49445f4f524445525f4143434f554e54000000000000000000000060a08201529051600080516020614d338339815191529181900360c00190a2611c4a565b8460000151600160a060020a0316634209fff1856040518263ffffffff1660e060020a0281526004018082600160a060020a0316600160a060020a03168152602001915050602060405180830381600087803b15801561173e57600080fd5b505af1158015611752573d6000803e3d6000fd5b505050506040513d602081101561176857600080fd5b505115156118115761010085015160408051818152601481830152600080516020614d5383398151915260608201526080602082018190526022908201527f5349474e45525f4e4f545f415554484f52495a45445f574954485f4143434f5560a08201527f4e5400000000000000000000000000000000000000000000000000000000000060c08201529051600080516020614d338339815191529181900360e00190a2611c4a565b61181a8561462d565b151561189b5761010085015160408051818152601481830152600080516020614d5383398151915260608201526080602082018190526018908201527f494e56414c49445f4f524445525f504152414d4554455253000000000000000060a08201529051600080516020614d338339815191529181900360c00190a2611c4a565b606085015160208087015187516040805160e060020a6370a08231028152600160a060020a039283166004820152905191909216926370a0823192602480820193918290030181600087803b1580156118f357600080fd5b505af1158015611907573d6000803e3d6000fd5b505050506040513d602081101561191d57600080fd5b505110156119a05761010085015160408051818152601481830152600080516020614d538339815191526060820152608060208201819052601f908201527f494e53554646494349454e545f42414c414e43455f494e5f4143434f554e540060a08201529051600080516020614d338339815191529181900360c00190a2611c4a565b600254855160208701516060880151604080517f5e61e1c8000000000000000000000000000000000000000000000000000000008152600160a060020a0394851660048201529284166024840152929093166044820181905260648201939093529051635e61e1c89160848082019260009290919082900301818387803b158015611a2a57600080fd5b505af1158015611a3e573d6000803e3d6000fd5b5050505061010085018051600880546001808201835560008381527ff3f7a9fe364faab93b216da50a3214154f22a0a2b415b23a84c8169e8b636ee390920193909355835181526009602090815260408083208b518154600160a060020a0319908116600160a060020a03928316178355848e015183890180548316918416919091179055838e015160028401805490921690831617905560608d0151600383015560808d0151600483015560a08d0151600583015560c08d0151600683015560e08d015160078301558751919095018190558352600a8252808320805460ff1916861790558a519093168252600b8152918120935184549384018555938152200155611b4a42614323565b6000818152600d6020908152604080832089830151600160a060020a031684529091529020546060870151919450611b8191614563565b6000848152600d6020908152604080832089830151600160a060020a0316845290915290205560e0850151611bb590614323565b610100860180516000908152601460209081526040808320949094556060808a018051855185529386902060010193909355818a01518a519451868c0151945160a08d01518851600160a060020a039788168152958601919091528488015295519084169593909416937f834d75a0597d192b3f101fe9b1359c508d60d6cee19ed2bb92abc38577070bbe9281900390910190a45b5050505050505050565b600160a060020a0381166000908152600b6020908152604091829020805483518184028101840190945280845260609392830182828015611cb557602002820191906000526020600020905b81548152600190910190602001808311611ca0575b505050505090505b919050565b600f60209081526000928352604080842090915290825290205481565b60408051348082526020820183815236938301849052600435936024359384938693339360008035600160e060020a031916949092606082018484808284376040519201829003965090945050505050a4611d4633600035600160e060020a03191661421a565b1515611d8a576040805160e560020a62461bcd02815260206004820152601f6024820152600080516020614d13833981519152604482015290519081900360640190fd5b8284600160a060020a03166370a08231886040518263ffffffff1660e060020a0281526004018082600160a060020a0316600160a060020a03168152602001915050602060405180830381600087803b158015611de657600080fd5b505af1158015611dfa573d6000803e3d6000fd5b505050506040513d6020811015611e1057600080fd5b50511015611e8e576040805160e560020a62461bcd02815260206004820152603360248201527f526573657276653a3a6c6f636b537572706c757320494e53554646494349454e60448201527f545f42414c414e43455f494e5f455343524f5700000000000000000000000000606482015290519081900360840190fd5b6002546040805160e360020a6317d57599028152600160a060020a03878116600483015292831660248201526044810186905290519188169163beabacc89160648082019260009290919082900301818387803b158015611eee57600080fd5b505af1158015611f02573d6000803e3d6000fd5b505050600160a060020a03808716600090815260136020908152604080832093891683529290522054611f36915084614563565b600160a060020a0380871660008181526013602090815260408083208a861680855290835292819020959095558451938b16845283018790528351909391927f3cd14e6c25a4045e824c67cc1a677d916fb4ddd9c02341e79d7b3fa8af9e1e4292908290030190a3505050505050565b6014602052600090815260409020805460019091015482565b600454600160a060020a031681565b600d60209081526000928352604080842090915290825290205481565b611ff3614ca6565b60408051348082526020820183815236938301849052600093849384938493849384938493849384936004359360243593849386933393600160e060020a03198a351693928a929190606082018484808284376040519201829003965090945050505050a46005546040805160e060020a639c14ee290281523360048201529051600160a060020a0390921691639c14ee29916024808201926020929091908290030181600087803b1580156120a857600080fd5b505af11580156120bc573d6000803e3d6000fd5b505050506040513d60208110156120d257600080fd5b50511515612118576040805160e560020a62461bcd0281526020600482018190526024820152600080516020614d93833981519152604482015290519081900360640190fd5b60008e8152600a602052604090205460ff1615156121b75760408051818152602381830152600080516020614cf3833981519152606082015260e860020a626c756502608082015260a0602082018190526014908201527f4f524445525f444f45535f4e4f545f455849535400000000000000000000000060c082015290518f91600080516020614d33833981519152919081900360e00190a26126a3565b60008e8152600c602052604090205460ff16156122555760408051818152602381830152600080516020614cf3833981519152606082015260e860020a626c756502608082015260a0602082018190526017908201527f4f524445525f414c52454144595f43414e43454c4c454400000000000000000060c082015290518f91600080516020614d33833981519152919081900360e00190a26126a3565b600960008f6000191660001916815260200190815260200160002061012060405190810160405290816000820160009054906101000a9004600160a060020a0316600160a060020a0316600160a060020a031681526020016001820160009054906101000a9004600160a060020a0316600160a060020a0316600160a060020a031681526020016002820160009054906101000a9004600160a060020a0316600160a060020a0316600160a060020a03168152602001600382015481526020016004820154815260200160058201548152602001600682015481526020016007820154815260200160088201546000191660001916815250509b50601460008f600019166000191681526020019081526020016000209a50600099506000985060009750600096508a60000154955061238d42614323565b9450600754866007548703038115156123a257fe5b0493508315156124335760408051818152602381830152600080516020614cf3833981519152606082015260e860020a626c756502608082015260a0602082018190526017908201527f4f524445525f56414c5545535f55505f544f5f4441544500000000000000000060c082015290518f91600080516020614d33833981519152919081900360e00190a26126a3565b8396508c84118015612445575060008d115b1561244e578c96505b600092505b868310156126565760018b01548b546020808f0151600160a060020a0316600090815260129091526040902054919950965086111561255f5760408051818152602381830152600080516020614cf3833981519152606082015260e860020a626c756502608082015260a060208201819052601a908201527f524553455256455f56414c5545535f4e4f545f5550444154454400000000000060c082015290518f91600080516020614d33833981519152919081900360e00190a28d600019167f8112042441a61447b0714a1eab7239c950388b1ac112f9ab2ad747cc6871a0c48c600001548d60010154604051808381526020018281526020019250505060405180910390a26126a3565b60075486016000908152600f602090815260408083208f830151600160a060020a031684529091529020546125d890612598908a6146e4565b6011600089815260200190815260200160002060008f60200151600160a060020a0316600160a060020a031681526020019081526020016000205461470c565b9950612625612598601060006007548a01815260200190815260200160002060008f60200151600160a060020a0316600160a060020a03168152602001908152602001600020548a6146e4565b985061263a612634898c614563565b8a614721565b60075487018c556001808d018290559098509290920191612453565b8d600019167f8112042441a61447b0714a1eab7239c950388b1ac112f9ab2ad747cc6871a0c48c600001548d60010154604051808381526020018281526020019250505060405180910390a25b5050505050505050505050505050565b60008060008060008060006126c6614ca6565b50505060009586525050600960209081526040948590208551610120810187528154600160a060020a0390811680835260018401548216948301859052600284015490911697820188905260038301546060830181905260048401546080840152600584015460a08401819052600685015460c08501819052600786015460e08601819052600890960154610100909501949094529199949897509550935091565b60065481565b600354600160a060020a031681565b600e60209081526000928352604080842090915290825290205481565b600b602052816000526040600020818154811015156127b557fe5b90600052602060002001600091509150505481565b60015474010000000000000000000000000000000000000000900460ff1681565b6127f3614ca6565b6040805134808252602082018381523693830184905260009384936004359360243593849386933393600160e060020a03198a35169390928a929091606082018484808284376040519201829003965090945050505050a46005546040805160e060020a639c14ee290281523360048201529051600160a060020a0390921691639c14ee29916024808201926020929091908290030181600087803b15801561289b57600080fd5b505af11580156128af573d6000803e3d6000fd5b505050506040513d60208110156128c557600080fd5b5051151561290b576040805160e560020a62461bcd0281526020600482018190526024820152600080516020614d93833981519152604482015290519081900360640190fd5b6000888152600a602052604090205460ff16151561299a57604080518181526014818301819052600080516020614d5383398151915260608301526080602083018190528201527f4f524445525f444f45535f4e4f545f455849535400000000000000000000000060a082015290518991600080516020614d33833981519152919081900360c00190a2611c4a565b6000888152600c602052604090205460ff1615612a295760408051818152601481830152600080516020614d5383398151915260608201526080602082018190526017908201527f4f524445525f414c52454144595f43414e43454c4c454400000000000000000060a082015290518991600080516020614d33833981519152919081900360c00190a2611c4a565b6000888152600960209081526040918290208251610120810184528154600160a060020a0390811682526001830154811682850152600283015416818501526003820154606082015260048201546080820152600582015460a0820152600682015460c0820152600782015460e08201526008909101546101008201528251808401909352601483527f43414e43454c5f524553455256455f4f52444552000000000000000000000000918301919091529550612ae7908990614731565b9350612b238488888080601f0160208091040260200160405190810160405280939291908181526020018383808284375061460b945050505050565b92508460000151600160a060020a0316634209fff1846040518263ffffffff1660e060020a0281526004018082600160a060020a0316600160a060020a03168152602001915050602060405180830381600087803b158015612b8457600080fd5b505af1158015612b98573d6000803e3d6000fd5b505050506040513d6020811015612bae57600080fd5b50511515612c545760408051818152601481830152600080516020614d5383398151915260608201526080602082018190526022908201527f5349474e45525f4e4f545f415554484f52495a45445f574954485f4143434f5560a08201527f4e5400000000000000000000000000000000000000000000000000000000000060c082015290518991600080516020614d33833981519152919081900360e00190a2611c4a565b611c4a85614807565b600554600160a060020a031681565b612c8233600035600160e060020a03191661421a565b1515612cc6576040805160e560020a62461bcd02815260206004820152601f6024820152600080516020614d13833981519152604482015290519081900360640190fd5b60008054600160a060020a031916600160a060020a03838116919091178083556040519116917f1abebea81bfa2637f28358c371278fb15ede7ea8dd28d2e03b112ff6d936ada491a250565b60606008805480602002602001604051908101604052809291908181526020018280548015612d6157602002820191906000526020600020905b81548152600190910190602001808311612d4c575b5050505050905090565b601360209081526000928352604080842090915290825290205481565b600a6020526000908152604090205460ff1681565b60408051348082526020820183815236938301849052600435936024359384938693339360008035600160e060020a031916949092606082018484808284376040519201829003965090945050505050a4612e0433600035600160e060020a03191661421a565b1515612e48576040805160e560020a62461bcd02815260206004820152601f6024820152600080516020614d13833981519152604482015290519081900360640190fd5b6002546040805160e060020a6370a08231028152600160a060020a039283166004820152905185928816916370a082319160248083019260209291908290030181600087803b158015612e9a57600080fd5b505af1158015612eae573d6000803e3d6000fd5b505050506040513d6020811015612ec457600080fd5b50511015612f42576040805160e560020a62461bcd02815260206004820152602f60248201527f526573657276653a3a72656c6561736520494e53554646494349454e545f424160448201527f4c414e43455f494e5f455343524f570000000000000000000000000000000000606482015290519081900360840190fd5b6002546040805160e360020a6317d57599028152600160a060020a0388811660048301528781166024830152604482018790529151919092169163beabacc891606480830192600092919082900301818387803b158015612fa257600080fd5b505af1158015612fb6573d6000803e3d6000fd5b5050604080518681523360208201528151600160a060020a03808a1695508a1693507fbf1b6ae7a36d0297dd5394ce701da7f598a84156b2b8338d0240b03dbea74ef6929181900390910190a35050505050565b600154600160a060020a031681565b60126020526000908152604090205481565b600c6020526000908152604090205460ff1681565b613048614ca6565b60408051348082526020820183815236938301849052600435936024359384938693339360008035600160e060020a031916949092606082018484808284376040519201829003965090945050505050a46005546040805160e060020a639c14ee290281523360048201529051600160a060020a0390921691639c14ee29916024808201926020929091908290030181600087803b1580156130e957600080fd5b505af11580156130fd573d6000803e3d6000fd5b505050506040513d602081101561311357600080fd5b50511515613159576040805160e560020a62461bcd0281526020600482018190526024820152600080516020614d93833981519152604482015290519081900360640190fd5b6000848152600a602052604090205460ff1615156131fb57604080518181526015818301527f526573657276653a3a70726f636573734f72646572000000000000000000000060608201526080602082018190526014908201527f4f524445525f444f45535f4e4f545f455849535400000000000000000000000060a082015290518591600080516020614d33833981519152919081900360c00190a26133cc565b6000848152600c602052604090205460ff161561329c57604080518181526015818301527f526573657276653a3a70726f636573734f72646572000000000000000000000060608201526080602082018190526017908201527f4f524445525f414c52454144595f43414e43454c4c454400000000000000000060a082015290518591600080516020614d33833981519152919081900360c00190a26133cc565b6000848152600960209081526040918290208251610120810184528154600160a060020a03908116825260018301548116938201939093526002820154909216928201929092526003820154606082015260048201546080820152600582015460a08201819052600683015460c0830152600783015460e0830152600890920154610100820152935061332e90614323565b4211156133435761333e83614807565b6133cc565b610100830151604080518181526015818301527f526573657276653a3a70726f636573734f72646572000000000000000000000060608201526080602082018190526011908201527f4f524445525f4e4f545f4558504952454400000000000000000000000000000060a08201529051600080516020614d338339815191529181900360c00190a25b50505050565b60088054829081106133e057fe5b600091825260209091200154905081565b60408051348082526020820183815236938301849052600435936024359384938693339360008035600160e060020a031916949092606082018484808284376040519201829003965090945050505050a461345833600035600160e060020a03191661421a565b151561349c576040805160e560020a62461bcd02815260206004820152601f6024820152600080516020614d13833981519152604482015290519081900360640190fd5b82600160a060020a03811615156134eb576040805160e560020a62461bcd0281526020600482015260186024820152600080516020614d73833981519152604482015290519081900360640190fd5b505060038054600160a060020a031916600160a060020a03939093169290921790915550565b604080513480825260208201838152369383018490526000936004359360243593849386933393600160e060020a03198a351693928a929190606082018484808284376040519201829003965090945050505050a46005546040805160e060020a639c14ee290281523360048201529051600160a060020a0390921691639c14ee29916024808201926020929091908290030181600087803b1580156135b657600080fd5b505af11580156135ca573d6000803e3d6000fd5b505050506040513d60208110156135e057600080fd5b50511515613626576040805160e560020a62461bcd0281526020600482018190526024820152600080516020614d93833981519152604482015290519081900360640190fd5b83518551146136dc5760408051818152602881830152600080516020614cf383398151915260608201527f6c75654261746368000000000000000000000000000000000000000000000000608082015260a0602082018190526019908201527f415247535f41525241594c454e4754485f4d49534d415443480000000000000060c082015290517fb070cb3e4fef70e12d8e599444f6395a8ff59f4db70ac633f9d5c5db734a4d379181900360e00190a161372d565b600092505b845183101561372d5761372285848151811015156136fb57fe5b90602001906020020151858581518110151561371357fe5b90602001906020020151611feb565b6001909201916136e1565b5050505050565b61374a33600035600160e060020a03191661421a565b151561378e576040805160e560020a62461bcd02815260206004820152601f6024820152600080516020614d13833981519152604482015290519081900360640190fd5b60408051348082526020820183815236938301849052600435936024359384938693339360008035600160e060020a031916949092606082018484808284376040519201829003965090945050505050a450506001805474ff000000000000000000000000000000000000000019169055565b600054600160a060020a031681565b60408051348082526020820183815236938301849052600435936024359384938693339360008035600160e060020a031916949092606082018484808284376040519201829003965090945050505050a461387733600035600160e060020a03191661421a565b15156138bb576040805160e560020a62461bcd02815260206004820152601f6024820152600080516020614d13833981519152604482015290519081900360640190fd5b82600160a060020a038116151561390a576040805160e560020a62461bcd0281526020600482015260186024820152600080516020614d73833981519152604482015290519081900360640190fd5b505060028054600160a060020a031916600160a060020a03939093169290921790915550565b600960205260009081526040902080546001820154600283015460038401546004850154600586015460068701546007880154600890980154600160a060020a0397881698968816979095169593949293919290919089565b60408051348082526020820183815236938301849052600435936024359384938693339360008035600160e060020a031916949092606082018484808284376040519201829003965090945050505050a46139f033600035600160e060020a03191661421a565b1515613a34576040805160e560020a62461bcd02815260206004820152601f6024820152600080516020614d13833981519152604482015290519081900360640190fd5b6002546040805160e060020a6370a08231028152600160a060020a039283166004820152905185928716916370a082319160248083019260209291908290030181600087803b158015613a8657600080fd5b505af1158015613a9a573d6000803e3d6000fd5b505050506040513d6020811015613ab057600080fd5b50511015613b2e576040805160e560020a62461bcd02815260206004820152603760248201527f526573657276653a3a7472616e73666572537572706c757320494e535546464960448201527f4349454e545f42414c414e43455f494e5f455343524f57000000000000000000606482015290519081900360840190fd5b600160a060020a03808616600090815260136020908152604080832093881683529290522054831115613bd1576040805160e560020a62461bcd02815260206004820152602d60248201527f526573657276653a3a7472616e73666572537572706c757320494e535546464960448201527f4349454e545f535552504c555300000000000000000000000000000000000000606482015290519081900360840190fd5b600160a060020a03808616600090815260136020908152604080832093881683529290522054613c019084614721565b600160a060020a038087166000908152601360209081526040808320898516808552925280832094909455600254845160e360020a6317d5759902815260048101929092528a84166024830152604482018890529351939092169263beabacc892606480820193929182900301818387803b158015613c7f57600080fd5b505af1158015613c93573d6000803e3d6000fd5b505060408051600160a060020a038a81168252602082018890528251818a169550908a1693507f153a1cc0a2eb857ff6de279caae2817ea5165cd070f41500f5af61bca82775e1929181900390910190a3505050505050565b600254600160a060020a031681565b60075481565b6040805134808252602082018381523693830184905260009384938493849384936004359360243593849386933393600160e060020a03198a351693928a929190606082018484808284376040519201829003965090945050505050a46005546040805160e060020a639c14ee290281523360048201529051600160a060020a0390921691639c14ee29916024808201926020929091908290030181600087803b158015613dae57600080fd5b505af1158015613dc2573d6000803e3d6000fd5b505050506040513d6020811015613dd857600080fd5b50511515613e1e576040805160e560020a62461bcd0281526020600482018190526024820152600080516020614d93833981519152604482015290519081900360640190fd5b600160a060020a0389166000908152601260205260409020549650861515613e5257600754613e4e600654614323565b0396505b613e5b42614323565b955060075487600754880303811515613e7057fe5b049450841515613f1f5760408051818152601c818301527f526573657276653a3a7570646174655265736572766556616c7565730000000060608201526080602082018190526019908201527f524553455256455f56414c5545535f55505f544f5f444154450000000000000060a08201529051600160a060020a038b16917f19e7927406d07c8b02d655f4363169282f8d3015b8731900c3e9255e08caaca5919081900360c00190a26141d8565b8493508785118015613f315750600088115b15613f3a578793505b600092505b838310156141d8576000878152601160209081526040808320600160a060020a038d16808552908352818420546007548c018552600d84528285209185529252909120546140459161401891613fd891613f9891614563565b600f60006007548d01815260200190815260200160002060008e600160a060020a0316600160a060020a0316815260200190815260200160002054614563565b601060006007548c01815260200190815260200160002060008d600160a060020a0316600160a060020a0316815260200190815260200160002054614721565b60075489016000908152600e60209081526040808320600160a060020a038f168452909152902054614721565b601160006007548a01815260200190815260200160002060008b600160a060020a0316600160a060020a03168152602001908152602001600020819055506007548701601260008b600160a060020a0316600160a060020a0316815260200190815260200160002081905550601260008a600160a060020a0316600160a060020a031681526020019081526020016000205496508689600160a060020a03167f122d6284ba74ce103caf5f0c5c8aef6b3ce928cd483891e7fc507b5efa199c1e601160008b815260200190815260200160002060008d600160a060020a0316600160a060020a0316815260200190815260200160002054600f60008c815260200190815260200160002060008e600160a060020a0316600160a060020a0316815260200190815260200160002054601060008d815260200190815260200160002060008f600160a060020a0316600160a060020a031681526020019081526020016000205460405180848152602001838152602001828152602001935050505060405180910390a3600190920191613f3f565b505050505050505050565b60408051808201909152600581527f312e302e30000000000000000000000000000000000000000000000000000000602082015281565b6000600160a060020a0383163014156142355750600161431d565b600154600160a060020a03848116911614156142535750600161431d565b600054600160a060020a0316151561426d5750600061431d565b60008054604080517fb7009613000000000000000000000000000000000000000000000000000000008152600160a060020a038781166004830152306024830152600160e060020a0319871660448301529151919092169263b700961392606480820193602093909283900390910190829087803b1580156142ee57600080fd5b505af1158015614302573d6000803e3d6000fd5b505050506040513d602081101561431857600080fd5b505190505b92915050565b60048054604080517f92d6631300000000000000000000000000000000000000000000000000000000815292830184905251600092600160a060020a0390921691638c8d98a09183916392d6631391602480830192602092919082900301818987803b15801561439257600080fd5b505af11580156143a6573d6000803e3d6000fd5b505050506040513d60208110156143bc57600080fd5b505160048054604080517fa324ad2400000000000000000000000000000000000000000000000000000000815292830188905251600160a060020a039091169163a324ad249160248083019260209291908290030181600087803b15801561442357600080fd5b505af1158015614437573d6000803e3d6000fd5b505050506040513d602081101561444d57600080fd5b505160048054604080517f65c7284000000000000000000000000000000000000000000000000000000000815292830189905251600160a060020a03909116916365c728409160248083019260209291908290030181600087803b1580156144b457600080fd5b505af11580156144c8573d6000803e3d6000fd5b505050506040513d60208110156144de57600080fd5b50516040805160e060020a63ffffffff871602815261ffff909416600485015260ff9283166024850152911660448301525160648083019260209291908290030181600087803b15801561453157600080fd5b505af1158015614545573d6000803e3d6000fd5b505050506040513d602081101561455b57600080fd5b505192915050565b8082018281101561431d57600080fd5b61457b614ca6565b614583614ca6565b60408051610120810182528551600160a060020a039081168252602080880151821681840152878401519091169282019290925284516060820152908401805160808301525160a08201906145d9904290614563565b815260408086015160208301524290820152600060609091015290506145fe81614a61565b6101008201529392505050565b60006146268261461a85614b5a565b9063ffffffff614bd116565b9392505050565b8051600090600160a060020a0316158061465257506040820151600160a060020a0316155b8061466257506000826060015111155b8061467557508160e001518260a0015111155b80614685575060008260c0015111155b1561469257506000611cbd565b6101008201516000908152600a602052604090205460ff16156146b757506000611cbd565b6101008201516000908152600c602052604090205460ff16156146dc57506000611cbd565b506001919050565b60008115806147015750508082028282828115156146fe57fe5b04145b151561431d57600080fd5b6000818381151561471957fe5b049392505050565b8082038281111561431d57600080fd5b604080516020808201858152845160009487948794910191908401908083835b602083106147705780518252601f199092019160209182019101614751565b6001836020036101000a038019825116818451168082178552505050505050905001925050506040516020818303038152906040526040518082805190602001908083835b602083106147d45780518252601f1990920191602091820191016147b5565b5181516020939093036101000a600019018019909116921691909117905260405192018290039091209695505050505050565b61010081015160009081526014602090815260408083206001015482850151600254835160e060020a6370a08231028152600160a060020a0391821660048201529351929594869491909216926370a082319260248084019391929182900301818887803b15801561487857600080fd5b505af115801561488c573d6000803e3d6000fd5b505050506040513d60208110156148a257600080fd5b5051101561493757610100830151604080518181526011818301527f526573657276653a3a646f43616e63656c0000000000000000000000000000006060820152608060208201819052601e908201527f494e53554646494349454e545f42414c414e43455f494e5f455343524f57000060a08201529051600080516020614d338339815191529181900360c00190a2614a5c565b61494042614323565b6101008401516000908152600c60209081526040808320805460ff19166001179055838352600e825280832082880151600160a060020a0316845290915290205490915061498e9083614563565b6000828152600e602090815260408083208783018051600160a060020a039081168652919093528184209490945560025491518751825160e360020a6317d57599028152918616600483015285166024820152604481018790529051919093169263beabacc892606480830193919282900301818387803b158015614a1257600080fd5b505af1158015614a26573d6000803e3d6000fd5b5050506101008401516040513392507fc33d7d88eb78e97bc80ecde0d0ae0937fb0d6ba75fc859759df74126850741a390600090a35b505050565b600081600001518260200151836060015184608001518560c001516040516020018086600160a060020a0316600160a060020a03166c0100000000000000000000000002815260140185600160a060020a0316600160a060020a03166c01000000000000000000000000028152601401848152602001838152602001828152602001955050505050506040516020818303038152906040526040518082805190602001908083835b60208310614b285780518252601f199092019160209182019101614b09565b5181516020939093036101000a6000190180199091169216919091179052604051920182900390912095945050505050565b604080517f19457468657265756d205369676e6564204d6573736167653a0a333200000000602080830191909152603c80830185905283518084039091018152605c9092019283905281516000939182919084019080838360208310614b285780518252601f199092019160209182019101614b09565b60008060008084516041141515614beb5760009350614c9d565b50505060208201516040830151606084015160001a601b60ff82161015614c1057601b015b8060ff16601b14158015614c2857508060ff16601c14155b15614c365760009350614c9d565b60408051600080825260208083018085528a905260ff8516838501526060830187905260808301869052925160019360a0808501949193601f19840193928390039091019190865af1158015614c90573d6000803e3d6000fd5b5050506020604051035193505b50505092915050565b6040805161012081018252600080825260208201819052918101829052606081018290526080810182905260a0810182905260c0810182905260e08101829052610100810191909152905600526573657276653a3a7570646174654f7264657243756d756c617469766556614453417574683a3a5f2053454e4445525f4e4f545f415554484f52495a454400db0b341562703a7cbd47efa0b024b1ed2e3c68e2d313e46d276db9a46d8a6f80526573657276653a3a6372656174654f726465720000000000000000000000005574696c733a3a5f20494e56414c49445f414444524553530000000000000000526573657276653a3a5f20494e56414c49445f41444d494e5f4143434f554e54a165627a7a72305820aa69529b24ca1c9fe5c01a7dd493684a22a73605adf8dbce4faad114efa5da310029",
  "source": "pragma solidity 0.4.24;\n\nimport \"./lib/dappsys/DSThing.sol\";\nimport \"./lib/dappsys/DSStop.sol\";\nimport \"./lib/tokens/ERC20.sol\";\nimport \"./lib/utils/DateTime.sol\";\nimport \"./Account.sol\";\nimport \"./AccountFactory.sol\";\nimport \"./Escrow.sol\";\nimport \"./Utils.sol\";\nimport \"./Utils2.sol\";\nimport \"./ErrorUtils.sol\";\n\n/**\n * @author Rohit Soni (rohit@nuofox.com)\n */\n// TODO: handling decimals and rounding factors\n// TODO: add contract address to hash\ncontract Reserve is DSStop, DSThing, Utils, Utils2, ErrorUtils {\n\n    Escrow public escrow;\n    AccountFactory public accountFactory;\n    DateTime public dateTime;\n    Config public config;\n    uint public deployTimestamp;\n\n    string constant public VERSION = \"1.0.0\";\n\n    uint public TIME_INTERVAL = 1 days;\n    //uint public TIME_INTERVAL = 1 hours;\n    \n    constructor\n    (\n        Escrow _escrow,\n        AccountFactory _accountFactory,\n        DateTime _dateTime,\n        Config _config\n    ) \n    public \n    {\n        escrow = _escrow;\n        accountFactory = _accountFactory;\n        dateTime = _dateTime;\n        config = _config;\n        deployTimestamp = now - (4 * TIME_INTERVAL);\n    }\n\n    function setEscrow(Escrow _escrow) \n        public \n        note \n        auth\n        addressValid(_escrow)\n    {\n        escrow = _escrow;\n    }\n\n    function setAccountFactory(AccountFactory _accountFactory) \n        public \n        note \n        auth\n        addressValid(_accountFactory)\n    {\n        accountFactory = _accountFactory;\n    }\n\n    function setDateTime(DateTime _dateTime) \n        public \n        note \n        auth\n        addressValid(_dateTime)\n    {\n        dateTime = _dateTime;\n    }\n\n    function setConfig(Config _config) \n        public \n        note \n        auth\n        addressValid(_config)\n    {\n        config = _config;\n    }\n\n    struct Order {\n        address account;\n        address token;\n        address byUser;\n        uint value;\n        uint duration;\n        uint expirationTimestamp;\n        uint salt;\n        uint createdTimestamp;\n        bytes32 orderHash;\n    }\n\n    bytes32[] public orders;\n    mapping (bytes32 => Order) public hashToOrder;\n    mapping (bytes32 => bool) public isOrder;\n    mapping (address => bytes32[]) public accountToOrders;\n    mapping (bytes32 => bool) public cancelledOrders;\n\n    // per day\n    mapping (uint => mapping(address => uint)) public deposits;\n    mapping (uint => mapping(address => uint)) public withdrawals;\n    mapping (uint => mapping(address => uint)) public profits;\n    mapping (uint => mapping(address => uint)) public losses;\n\n    mapping (uint => mapping(address => uint)) public reserves;\n    mapping (address => uint) public lastReserveRuns;\n\n    mapping (address => mapping(address => uint)) public surplus;\n\n    mapping (bytes32 => CumulativeRun) public orderToCumulative;\n\n    struct CumulativeRun {\n        uint timestamp;\n        uint value;\n    }\n\n    modifier onlyAdmin() {\n        require(config.isAdminValid(msg.sender), \"Reserve::_ INVALID_ADMIN_ACCOUNT\");\n        _;\n    }\n\n    event LogOrderCreated(\n        bytes32 indexed orderHash,\n        address indexed account,\n        address indexed token,\n        address byUser,\n        uint value,\n        uint expirationTimestamp\n    );\n\n    event LogOrderCancelled(\n        bytes32 indexed orderHash,\n        address indexed by\n    );\n\n    event LogReserveValuesUpdated(\n        address indexed token, \n        uint indexed updatedTill,\n        uint reserve,\n        uint profit,\n        uint loss\n    );\n\n    event LogOrderCumulativeUpdated(\n        bytes32 indexed orderHash,\n        uint updatedTill,\n        uint value\n    );\n\n    event LogRelease(\n        address indexed token,\n        address indexed to,\n        uint value,\n        address by\n    );\n\n    event LogLock(\n        address indexed token,\n        address indexed from,\n        uint value,\n        uint profit,\n        uint loss,\n        address by\n    );\n\n    event LogLockSurplus(\n        address indexed forToken, \n        address indexed token,\n        address from,\n        uint value\n    );\n\n    event LogTransferSurplus(\n        address indexed forToken,\n        address indexed token,\n        address to, \n        uint value\n    );\n    \n    function createOrder\n    (\n        address[3] _orderAddresses,\n        uint[3] _orderValues,\n        bytes _signature\n    ) \n        public\n        note\n        onlyAdmin\n        whenNotStopped\n    {\n        Order memory order = _composeOrder(_orderAddresses, _orderValues);\n        address signer = _recoverSigner(order.orderHash, _signature);\n\n        if(signer != order.byUser){\n            emit LogErrorWithHintBytes32(order.orderHash, \"Reserve::createOrder\", \"SIGNER_NOT_ORDER_CREATOR\");\n            return;\n        }\n        \n        if(isOrder[order.orderHash]){\n            emit LogErrorWithHintBytes32(order.orderHash, \"Reserve::createOrder\", \"ORDER_ALREADY_EXISTS\");\n            return;\n        }\n\n        if(!accountFactory.isAccount(order.account)){\n            emit LogErrorWithHintBytes32(order.orderHash, \"Reserve::createOrder\", \"INVALID_ORDER_ACCOUNT\");\n            return;\n        }\n\n        if(!Account(order.account).isUser(signer)){\n            emit LogErrorWithHintBytes32(order.orderHash, \"Reserve::createOrder\", \"SIGNER_NOT_AUTHORIZED_WITH_ACCOUNT\");\n            return;\n        }\n                \n        if(!_isOrderValid(order)) {\n            emit LogErrorWithHintBytes32(order.orderHash, \"Reserve::createOrder\", \"INVALID_ORDER_PARAMETERS\");\n            return;\n        }\n\n        if(ERC20(order.token).balanceOf(order.account) < order.value){\n            emit LogErrorWithHintBytes32(order.orderHash, \"Reserve::createOrder\", \"INSUFFICIENT_BALANCE_IN_ACCOUNT\");\n            return;\n        }\n\n        escrow.transferFromAccount(order.account, order.token, address(escrow), order.value);\n        \n        orders.push(order.orderHash);\n        hashToOrder[order.orderHash] = order;\n        isOrder[order.orderHash] = true;\n        accountToOrders[order.account].push(order.orderHash);\n\n        uint dateTimestamp = _getDateTimestamp(now);\n\n        deposits[dateTimestamp][order.token] = add(deposits[dateTimestamp][order.token], order.value);\n        \n        orderToCumulative[order.orderHash].timestamp = _getDateTimestamp(order.createdTimestamp);\n        orderToCumulative[order.orderHash].value = order.value;\n\n        emit LogOrderCreated(\n            order.orderHash,\n            order.account,\n            order.token,\n            order.byUser,\n            order.value,\n            order.expirationTimestamp\n        );\n    }\n\n    function cancelOrder\n    (\n        bytes32 _orderHash,\n        bytes _signature\n    )\n        external\n        note\n        onlyAdmin\n    {   \n        if(!isOrder[_orderHash]) {\n            emit LogErrorWithHintBytes32(_orderHash,\"Reserve::createOrder\", \"ORDER_DOES_NOT_EXIST\");\n            return;\n        }\n\n        if(cancelledOrders[_orderHash]){\n            emit LogErrorWithHintBytes32(_orderHash,\"Reserve::createOrder\", \"ORDER_ALREADY_CANCELLED\");\n            return;\n        }\n\n        Order memory order = hashToOrder[_orderHash];\n\n        bytes32 cancelOrderHash = _generateActionOrderHash(_orderHash, \"CANCEL_RESERVE_ORDER\");\n        address signer = _recoverSigner(cancelOrderHash, _signature);\n        \n        if(!Account(order.account).isUser(signer)){\n            emit LogErrorWithHintBytes32(_orderHash,\"Reserve::createOrder\", \"SIGNER_NOT_AUTHORIZED_WITH_ACCOUNT\");\n            return;\n        }\n        \n        doCancelOrder(order);\n    }\n    \n    function processOrder\n    (\n        bytes32 _orderHash\n    ) \n        external \n        note\n        onlyAdmin\n    {\n        if(!isOrder[_orderHash]) {\n            emit LogErrorWithHintBytes32(_orderHash,\"Reserve::processOrder\", \"ORDER_DOES_NOT_EXIST\");\n            return;\n        }\n\n        if(cancelledOrders[_orderHash]){\n            emit LogErrorWithHintBytes32(_orderHash,\"Reserve::processOrder\", \"ORDER_ALREADY_CANCELLED\");\n            return;\n        }\n\n        Order memory order = hashToOrder[_orderHash];\n\n        if(now > _getDateTimestamp(order.expirationTimestamp)) {\n            doCancelOrder(order);\n        } else {\n            emit LogErrorWithHintBytes32(order.orderHash, \"Reserve::processOrder\", \"ORDER_NOT_EXPIRED\");\n        }\n    }\n\n    function doCancelOrder(Order _order) \n        internal\n    {   \n        uint valueToTransfer = orderToCumulative[_order.orderHash].value;\n\n        if(ERC20(_order.token).balanceOf(escrow) < valueToTransfer){\n            emit LogErrorWithHintBytes32(_order.orderHash, \"Reserve::doCancel\", \"INSUFFICIENT_BALANCE_IN_ESCROW\");\n            return;\n        }\n\n        uint nowDateTimestamp = _getDateTimestamp(now);\n        cancelledOrders[_order.orderHash] = true;\n        withdrawals[nowDateTimestamp][_order.token] = add(withdrawals[nowDateTimestamp][_order.token], valueToTransfer);\n\n        escrow.transfer(_order.token, _order.account, valueToTransfer);\n        emit LogOrderCancelled(_order.orderHash, msg.sender);\n    }\n\n    function release(address _token, address _to, uint _value) \n        external\n        note\n        auth\n    {   \n        require(ERC20(_token).balanceOf(escrow) >= _value, \"Reserve::release INSUFFICIENT_BALANCE_IN_ESCROW\");\n        escrow.transfer(_token, _to, _value);\n        emit LogRelease(_token, _to, _value, msg.sender);\n    }\n\n    // _value includes profit/loss as well\n    function lock(address _token, address _from, uint _value, uint _profit, uint _loss)\n        external\n        note\n        auth\n    {   \n        require(!(_profit == 0 && _loss == 0), \"Reserve::lock INVALID_PROFIT_LOSS_VALUES\");\n        require(ERC20(_token).balanceOf(_from) >= _value, \"Reserve::lock INSUFFICIENT_BALANCE\");\n            \n        if(accountFactory.isAccount(_from)) {\n            escrow.transferFromAccount(_from, _token, address(escrow), _value);\n        } else {\n            Escrow(_from).transfer(_token, address(escrow), _value);\n        }\n        \n        uint dateTimestamp = _getDateTimestamp(now);\n\n        if (_profit > 0){\n            profits[dateTimestamp][_token] = add(profits[dateTimestamp][_token], _profit);\n        } else if (_loss > 0) {\n            losses[dateTimestamp][_token] = add(losses[dateTimestamp][_token], _loss);\n        }\n\n        emit LogLock(_token, _from, _value, _profit, _loss, msg.sender);\n    }\n\n    // NO LONGER SHOULD BE USED\n    // This is a legacy method used by version 1 of the mkernel and kernel contracts. \n    // As the liquidity is pooled and calculations are performed accordingly, we kept the reserve as is while deploying version 2 of the kernel contracts. \n    // This method should no longer be needed when the all the orders in the original mkernels/kernels expire and/or become processed.\n\n    // to lock collateral if cannot be liquidated e.g. not enough reserves in kyber\n    function lockSurplus(address _from, address _forToken, address _token, uint _value) \n        external\n        note\n        auth\n    {\n        require(ERC20(_token).balanceOf(_from) >= _value, \"Reserve::lockSurplus INSUFFICIENT_BALANCE_IN_ESCROW\");\n\n        Escrow(_from).transfer(_token, address(escrow), _value);\n        surplus[_forToken][_token] = add(surplus[_forToken][_token], _value);\n\n        emit LogLockSurplus(_forToken, _token, _from, _value);\n    }\n\n    // to transfer surplus collateral out of the system to trade on other platforms and put back in terms of \n    // principal to reserve manually using an account or surplus escrow\n    // should work in tandem with lock method when transferring back principal\n    function transferSurplus(address _to, address _forToken, address _token, uint _value) \n        external\n        note\n        auth\n    {\n        require(ERC20(_token).balanceOf(escrow) >= _value, \"Reserve::transferSurplus INSUFFICIENT_BALANCE_IN_ESCROW\");\n        require(surplus[_forToken][_token] >= _value, \"Reserve::transferSurplus INSUFFICIENT_SURPLUS\");\n\n        surplus[_forToken][_token] = sub(surplus[_forToken][_token], _value);\n        escrow.transfer(_token, _to, _value);\n\n        emit LogTransferSurplus(_forToken, _token, _to, _value);\n    }\n\n    function updateReserveValues(address _token, uint _forDays)\n        public\n        note\n        onlyAdmin\n    {   \n        uint lastReserveRun = lastReserveRuns[_token];\n\n        if (lastReserveRun == 0) {\n            lastReserveRun = _getDateTimestamp(deployTimestamp) - TIME_INTERVAL;\n        }\n\n        uint nowDateTimestamp = _getDateTimestamp(now);\n        uint updatesLeft = ((nowDateTimestamp - TIME_INTERVAL) - lastReserveRun) / TIME_INTERVAL;\n\n        if(updatesLeft == 0) {\n            emit LogErrorWithHintAddress(_token, \"Reserve::updateReserveValues\", \"RESERVE_VALUES_UP_TO_DATE\");\n            return;\n        }\n\n        uint counter = updatesLeft;\n\n        if(updatesLeft > _forDays && _forDays > 0) {\n            counter = _forDays;\n        }\n\n        for (uint i = 0; i < counter; i++) {\n            reserves[lastReserveRun + TIME_INTERVAL][_token] = sub(\n                sub(\n                    add(\n                        add(\n                            reserves[lastReserveRun][_token],\n                            deposits[lastReserveRun + TIME_INTERVAL][_token]\n                        ),\n                        profits[lastReserveRun + TIME_INTERVAL][_token]\n                    ),\n                    losses[lastReserveRun + TIME_INTERVAL][_token]\n                ),\n                withdrawals[lastReserveRun + TIME_INTERVAL][_token]\n            );\n            lastReserveRuns[_token] = lastReserveRun + TIME_INTERVAL;\n            lastReserveRun = lastReserveRuns[_token];\n            \n            emit LogReserveValuesUpdated(\n                _token,\n                lastReserveRun,\n                reserves[lastReserveRun][_token],\n                profits[lastReserveRun][_token],\n                losses[lastReserveRun][_token]\n            );\n            \n        }\n    }\n\n    function updateOrderCumulativeValueBatch(bytes32[] _orderHashes, uint[] _forDays) \n        public\n        note\n        onlyAdmin\n    {   \n        if(_orderHashes.length != _forDays.length) {\n            emit LogError(\"Reserve::updateOrderCumulativeValueBatch\", \"ARGS_ARRAYLENGTH_MISMATCH\");\n            return;\n        }\n\n        for(uint i = 0; i < _orderHashes.length; i++) {\n            updateOrderCumulativeValue(_orderHashes[i], _forDays[i]);\n        }\n    }\n\n    function updateOrderCumulativeValue\n    (\n        bytes32 _orderHash, \n        uint _forDays\n    ) \n        public\n        note\n        onlyAdmin \n    {\n        if(!isOrder[_orderHash]) {\n            emit LogErrorWithHintBytes32(_orderHash, \"Reserve::updateOrderCumulativeValue\", \"ORDER_DOES_NOT_EXIST\");\n            return;\n        }\n\n        if(cancelledOrders[_orderHash]) {\n            emit LogErrorWithHintBytes32(_orderHash, \"Reserve::updateOrderCumulativeValue\", \"ORDER_ALREADY_CANCELLED\");\n            return;\n        }\n        \n        Order memory order = hashToOrder[_orderHash];\n        CumulativeRun storage cumulativeRun = orderToCumulative[_orderHash];\n        \n        uint profitsAccrued = 0;\n        uint lossesAccrued = 0;\n        uint cumulativeValue = 0;\n        uint counter = 0;\n\n        uint lastOrderRun = cumulativeRun.timestamp;\n        uint nowDateTimestamp = _getDateTimestamp(now);\n\n        uint updatesLeft = ((nowDateTimestamp - TIME_INTERVAL) - lastOrderRun) / TIME_INTERVAL;\n\n        if(updatesLeft == 0) {\n            emit LogErrorWithHintBytes32(_orderHash, \"Reserve::updateOrderCumulativeValue\", \"ORDER_VALUES_UP_TO_DATE\");\n            return;\n        }\n\n        counter = updatesLeft;\n\n        if(updatesLeft > _forDays && _forDays > 0) {\n            counter = _forDays;\n        }\n\n        for (uint i = 0; i < counter; i++){\n            cumulativeValue = cumulativeRun.value;\n            lastOrderRun = cumulativeRun.timestamp;\n\n            if(lastReserveRuns[order.token] < lastOrderRun) {\n                emit LogErrorWithHintBytes32(_orderHash, \"Reserve::updateOrderCumulativeValue\", \"RESERVE_VALUES_NOT_UPDATED\");\n                emit LogOrderCumulativeUpdated(_orderHash, cumulativeRun.timestamp, cumulativeRun.value);\n                return;\n            }\n\n            profitsAccrued = div(\n                mul(profits[lastOrderRun + TIME_INTERVAL][order.token], cumulativeValue),\n                reserves[lastOrderRun][order.token]\n            );\n                \n            lossesAccrued = div(\n                mul(losses[lastOrderRun + TIME_INTERVAL][order.token], cumulativeValue),\n                reserves[lastOrderRun][order.token]\n            );\n\n            cumulativeValue = sub(add(cumulativeValue, profitsAccrued), lossesAccrued);\n\n            cumulativeRun.timestamp = lastOrderRun + TIME_INTERVAL;\n            cumulativeRun.value = cumulativeValue;\n        }\n        \n        emit LogOrderCumulativeUpdated(_orderHash, cumulativeRun.timestamp, cumulativeRun.value);\n    }\n\n    function getAllOrders() \n        public\n        view \n        returns \n        (\n            bytes32[]\n        ) \n    {\n        return orders;\n    }\n\n    function getOrdersForAccount(address _account) \n        public\n        view \n        returns \n        (\n            bytes32[]\n        )\n    {\n        return accountToOrders[_account];\n    }\n\n    function getOrder(bytes32 _orderHash)\n        public \n        view \n        returns \n        (\n            address _account,\n            address _token,\n            address _byUser,\n            uint _value,\n            uint _expirationTimestamp,\n            uint _salt,\n            uint _createdTimestamp\n        )\n    {   \n        Order memory order = hashToOrder[_orderHash];\n        return (\n            order.account,\n            order.token,\n            order.byUser,\n            order.value,\n            order.expirationTimestamp,\n            order.salt,\n            order.createdTimestamp\n        );\n    }\n\n    function _isOrderValid(Order _order)\n        internal\n        view\n        returns (bool)\n    {\n        if(_order.account == address(0) || _order.byUser == address(0)\n         || _order.value <= 0\n         || _order.expirationTimestamp <= _order.createdTimestamp || _order.salt <= 0) {\n            return false;\n        }\n\n        if(isOrder[_order.orderHash]) {\n            return false;\n        }\n\n        if(cancelledOrders[_order.orderHash]) {\n            return false;\n        }\n\n        return true;\n    }\n\n    function _composeOrder(address[3] _orderAddresses, uint[3] _orderValues)\n        internal\n        view\n        returns (Order _order)\n    {\n        Order memory order = Order({\n            account: _orderAddresses[0],\n            token: _orderAddresses[1],\n            byUser: _orderAddresses[2],\n            value: _orderValues[0],\n            createdTimestamp: now,\n            duration: _orderValues[1],\n            expirationTimestamp: add(now, _orderValues[1]),\n            salt: _orderValues[2],\n            orderHash: bytes32(0)\n        });\n\n        order.orderHash = _generateCreateOrderHash(order);\n\n        return order;\n    }\n\n    function _generateCreateOrderHash(Order _order)\n        internal\n        pure //view\n        returns (bytes32 _orderHash)\n    {\n        return keccak256(\n            abi.encodePacked(\n //              address(this),\n                _order.account,\n                _order.token,\n                _order.value,\n                _order.duration,\n                _order.salt\n            )\n        );\n    }\n\n    function _generateActionOrderHash\n    (\n        bytes32 _orderHash,\n        string _action\n    )\n        internal\n        pure //view\n        returns (bytes32 _repayOrderHash)\n    {\n        return keccak256(\n            abi.encodePacked(\n//                address(this),\n                _orderHash,\n                _action\n            )\n        );\n    }\n\n    function _getDateTimestamp(uint _timestamp) \n        internal\n        view\n        returns (uint)\n    {\n        // 1 day\n        return dateTime.toTimestamp(dateTime.getYear(_timestamp), dateTime.getMonth(_timestamp), dateTime.getDay(_timestamp));\n        // 1 hour\n        //return dateTime.toTimestamp(dateTime.getYear(_timestamp), dateTime.getMonth(_timestamp), dateTime.getDay(_timestamp), dateTime.getHour(_timestamp));\n    } \n\n}",
  "sourcePath": "/home/amxx/Work/subgraphs/nuo-audited-contracts/contracts/Reserve.sol",
  "compiler": {
    "name": "solc",
    "version": "0.4.24+commit.e67f0147.Emscripten.clang"
  },
  "schemaVersion": "2.0.1",
  "updatedAt": "2019-09-23T18:55:29.342Z"
}