{
  "contractName": "UniswapConnector",
  "abi": [
    {
      "constant": false,
      "inputs": [
        {
          "name": "owner_",
          "type": "address"
        }
      ],
      "name": "setOwner",
      "outputs": [],
      "payable": false,
      "stateMutability": "nonpayable",
      "type": "function"
    },
    {
      "constant": false,
      "inputs": [
        {
          "name": "authority_",
          "type": "address"
        }
      ],
      "name": "setAuthority",
      "outputs": [],
      "payable": false,
      "stateMutability": "nonpayable",
      "type": "function"
    },
    {
      "constant": true,
      "inputs": [],
      "name": "uniswapFactory",
      "outputs": [
        {
          "name": "",
          "type": "address"
        }
      ],
      "payable": false,
      "stateMutability": "view",
      "type": "function"
    },
    {
      "constant": true,
      "inputs": [],
      "name": "owner",
      "outputs": [
        {
          "name": "",
          "type": "address"
        }
      ],
      "payable": false,
      "stateMutability": "view",
      "type": "function"
    },
    {
      "constant": true,
      "inputs": [],
      "name": "authority",
      "outputs": [
        {
          "name": "",
          "type": "address"
        }
      ],
      "payable": false,
      "stateMutability": "view",
      "type": "function"
    },
    {
      "inputs": [
        {
          "name": "_uniswapFactory",
          "type": "address"
        }
      ],
      "payable": false,
      "stateMutability": "nonpayable",
      "type": "constructor"
    },
    {
      "anonymous": false,
      "inputs": [
        {
          "indexed": true,
          "name": "_from",
          "type": "address"
        },
        {
          "indexed": true,
          "name": "_srcToken",
          "type": "address"
        },
        {
          "indexed": true,
          "name": "_destToken",
          "type": "address"
        },
        {
          "indexed": false,
          "name": "_srcTokenValue",
          "type": "uint256"
        },
        {
          "indexed": false,
          "name": "_maxDestTokenValue",
          "type": "uint256"
        },
        {
          "indexed": false,
          "name": "_destTokenValue",
          "type": "uint256"
        },
        {
          "indexed": false,
          "name": "_srcTokenValueLeft",
          "type": "uint256"
        },
        {
          "indexed": false,
          "name": "_exchangeRate",
          "type": "uint256"
        }
      ],
      "name": "LogTrade",
      "type": "event"
    },
    {
      "anonymous": false,
      "inputs": [
        {
          "indexed": true,
          "name": "authority",
          "type": "address"
        }
      ],
      "name": "LogSetAuthority",
      "type": "event"
    },
    {
      "anonymous": false,
      "inputs": [
        {
          "indexed": true,
          "name": "owner",
          "type": "address"
        }
      ],
      "name": "LogSetOwner",
      "type": "event"
    },
    {
      "anonymous": true,
      "inputs": [
        {
          "indexed": true,
          "name": "sig",
          "type": "bytes4"
        },
        {
          "indexed": true,
          "name": "guy",
          "type": "address"
        },
        {
          "indexed": true,
          "name": "foo",
          "type": "bytes32"
        },
        {
          "indexed": true,
          "name": "bar",
          "type": "bytes32"
        },
        {
          "indexed": false,
          "name": "wad",
          "type": "uint256"
        },
        {
          "indexed": false,
          "name": "fax",
          "type": "bytes"
        }
      ],
      "name": "LogNote",
      "type": "event"
    },
    {
      "constant": false,
      "inputs": [
        {
          "name": "_uniswapFactory",
          "type": "address"
        }
      ],
      "name": "setUniswapFactory",
      "outputs": [],
      "payable": false,
      "stateMutability": "nonpayable",
      "type": "function"
    },
    {
      "constant": false,
      "inputs": [
        {
          "name": "_escrow",
          "type": "address"
        },
        {
          "name": "_srcToken",
          "type": "address"
        },
        {
          "name": "_destToken",
          "type": "address"
        },
        {
          "name": "_srcTokenValue",
          "type": "uint256"
        }
      ],
      "name": "tradeWithInputFixed",
      "outputs": [
        {
          "name": "_destTokenValue",
          "type": "uint256"
        },
        {
          "name": "_srcTokenValueLeft",
          "type": "uint256"
        }
      ],
      "payable": false,
      "stateMutability": "nonpayable",
      "type": "function"
    },
    {
      "constant": false,
      "inputs": [
        {
          "name": "_escrow",
          "type": "address"
        },
        {
          "name": "_srcToken",
          "type": "address"
        },
        {
          "name": "_destToken",
          "type": "address"
        },
        {
          "name": "_srcTokenValue",
          "type": "uint256"
        },
        {
          "name": "_maxDestTokenValue",
          "type": "uint256"
        }
      ],
      "name": "tradeWithOutputFixed",
      "outputs": [
        {
          "name": "_destTokenValue",
          "type": "uint256"
        },
        {
          "name": "_srcTokenValueLeft",
          "type": "uint256"
        }
      ],
      "payable": false,
      "stateMutability": "nonpayable",
      "type": "function"
    },
    {
      "constant": true,
      "inputs": [
        {
          "name": "_srcToken",
          "type": "address"
        },
        {
          "name": "_destToken",
          "type": "address"
        },
        {
          "name": "_srcTokenValue",
          "type": "uint256"
        }
      ],
      "name": "getExpectedRate",
      "outputs": [
        {
          "name": "_expectedRate",
          "type": "uint256"
        },
        {
          "name": "_slippageRate",
          "type": "uint256"
        }
      ],
      "payable": false,
      "stateMutability": "view",
      "type": "function"
    },
    {
      "constant": true,
      "inputs": [
        {
          "name": "_srcToken",
          "type": "address"
        },
        {
          "name": "_destToken",
          "type": "address"
        },
        {
          "name": "_srcTokenValue",
          "type": "uint256"
        }
      ],
      "name": "isTradeFeasible",
      "outputs": [
        {
          "name": "",
          "type": "bool"
        }
      ],
      "payable": false,
      "stateMutability": "view",
      "type": "function"
    }
  ],
  "bytecode": "0x608060405234801561001057600080fd5b506040516020806122ad833981016040819052905160018054600160a060020a0319163390811790915590917fce241d7ca1f669fee44b6fc00b8eba2df3bb514eed0f6f668f8f89096e81ed9490600090a260028054600160a060020a031916600160a060020a039290921691909117905561221c806100916000396000f30060806040526004361061008a5763ffffffff60e060020a60003504166313af4035811461008f57806317fd9cc5146100b25780635d0b4e5c146100fb5780637a9e5e4b14610139578063809a9e551461015a5780638bdb2afa146101845780638da5cb5b146101b5578063bf7e214f146101ca578063c83ec89d146101df578063e04b677f14610212575b600080fd5b34801561009b57600080fd5b506100b0600160a060020a0360043516610233565b005b3480156100be57600080fd5b506100e2600160a060020a03600435811690602435811690604435166064356102ea565b6040805192835260208301919091528051918290030190f35b34801561010757600080fd5b50610125600160a060020a0360043581169060243516604435610b97565b604080519115158252519081900360200190f35b34801561014557600080fd5b506100b0600160a060020a0360043516610bb1565b34801561016657600080fd5b506100e2600160a060020a0360043581169060243516604435610c64565b34801561019057600080fd5b50610199610d14565b60408051600160a060020a039092168252519081900360200190f35b3480156101c157600080fd5b50610199610d23565b3480156101d657600080fd5b50610199610d32565b3480156101eb57600080fd5b506100e2600160a060020a0360043581169060243581169060443516606435608435610d41565b34801561021e57600080fd5b506100b0600160a060020a036004351661174c565b61024933600035600160e060020a031916611837565b151561028d576040805160e560020a62461bcd02815260206004820152601f60248201526000805160206121b1833981519152604482015290519081900360640190fd5b6001805473ffffffffffffffffffffffffffffffffffffffff1916600160a060020a0383811691909117918290556040519116907fce241d7ca1f669fee44b6fc00b8eba2df3bb514eed0f6f668f8f89096e81ed9490600090a250565b60408051348082526020820183815236938301849052600093849384938493849384936004359360243593849386933393600160e060020a03198a35169390928a929091606082018484808284376040519201829003965090945050505050a461036033600035600160e060020a031916611837565b15156103a4576040805160e560020a62461bcd02815260206004820152601f60248201526000805160206121b1833981519152604482015290519081900360640190fd5b600160a060020a038b8116908b161415610442576040805160e560020a62461bcd02815260206004820152604360248201526000805160206121d183398151915260448201527f496e7075747320544f4b454e5f41444452535f53484f554c445f4e4f545f4d4160648201527f5443480000000000000000000000000000000000000000000000000000000000608482015290519081900360a40190fd5b61044b8b611940565b15156104db576040805160e560020a62461bcd02815260206004820152604360248201526000805160206121d183398151915260448201527f496e70757473204e4f5f455843484e4147455f464f554e445f464f525f534f5560648201527f5243450000000000000000000000000000000000000000000000000000000000608482015290519081900360a40190fd5b6104e48a611940565b1515610574576040805160e560020a62461bcd02815260206004820152604160248201526000805160206121d183398151915260448201527f496e70757473204e4f5f455843484e4147455f464f554e445f464f525f44455360648201527f5400000000000000000000000000000000000000000000000000000000000000608482015290519081900360a40190fd5b888b600160a060020a03166370a082318e6040518263ffffffff1660e060020a0281526004018082600160a060020a0316600160a060020a03168152602001915050602060405180830381600087803b1580156105d057600080fd5b505af11580156105e4573d6000803e3d6000fd5b505050506040513d60208110156105fa57600080fd5b5051101561068c576040805160e560020a62461bcd02815260206004820152604560248201526000805160206121d183398151915260448201527f496e7075747320494e53554646494349454e545f42414c414e43455f494e5f4560648201527f5343524f57000000000000000000000000000000000000000000000000000000608482015290519081900360a40190fd5b6040805160e060020a6370a082310281523060048201529051600160a060020a038d16916370a082319160248083019260209291908290030181600087803b1580156106d757600080fd5b505af11580156106eb573d6000803e3d6000fd5b505050506040513d602081101561070157600080fd5b50516040805160e060020a6370a082310281523060048201529051919750600160a060020a038c16916370a08231916024808201926020929091908290030181600087803b15801561075257600080fd5b505af1158015610766573d6000803e3d6000fd5b505050506040513d602081101561077c57600080fd5b5051604080517fbeabacc8000000000000000000000000000000000000000000000000000000008152600160a060020a038e81166004830152306024830152604482018d90529151929750908e169163beabacc89160648082019260009290919082900301818387803b1580156107f257600080fd5b505af1158015610806573d6000803e3d6000fd5b50505050600260009054906101000a9004600160a060020a0316600160a060020a03166306f2bf628c6040518263ffffffff1660e060020a0281526004018082600160a060020a0316600160a060020a03168152602001915050602060405180830381600087803b15801561087a57600080fd5b505af115801561088e573d6000803e3d6000fd5b505050506040513d60208110156108a457600080fd5b5051604080517f095ea7b3000000000000000000000000000000000000000000000000000000008152600160a060020a03808416600483015260006024830181905292519397508e169263095ea7b392604480840193602093929083900390910190829087803b15801561091757600080fd5b505af115801561092b573d6000803e3d6000fd5b505050506040513d602081101561094157600080fd5b5050604080517f095ea7b3000000000000000000000000000000000000000000000000000000008152600160a060020a038681166004830152602482018c90529151918d169163095ea7b3916044808201926020929091908290030181600087803b1580156109af57600080fd5b505af11580156109c3573d6000803e3d6000fd5b505050506040513d60208110156109d957600080fd5b506109e790508b8b8b6119d1565b6040805160e060020a6370a082310281523060048201529051919450610a6b91600160a060020a038e16916370a082319160248083019260209291908290030181600087803b158015610a3957600080fd5b505af1158015610a4d573d6000803e3d6000fd5b505050506040513d6020811015610a6357600080fd5b505187611b4f565b6040805160e060020a6370a082310281523060048201529051919850610aef91600160a060020a038d16916370a082319160248083019260209291908290030181600087803b158015610abd57600080fd5b505af1158015610ad1573d6000803e3d6000fd5b505050506040513d6020811015610ae757600080fd5b505186611b4f565b9750610afc8a8d8a611b5f565b506000871115610b1357610b118b8d89611b5f565b505b89600160a060020a03168b600160a060020a03168d600160a060020a03167fca2c35f41e3c93e960780ee310865b11d03fc119da35b1e769970a0189da71df8c8c8d8d8a604051808681526020018581526020018481526020018381526020018281526020019550505050505060405180910390a450505050505094509492505050565b600080610ba5858585610c64565b15159695505050505050565b610bc733600035600160e060020a031916611837565b1515610c0b576040805160e560020a62461bcd02815260206004820152601f60248201526000805160206121b1833981519152604482015290519081900360640190fd5b6000805473ffffffffffffffffffffffffffffffffffffffff1916600160a060020a03838116919091178083556040519116917f1abebea81bfa2637f28358c371278fb15ede7ea8dd28d2e03b112ff6d936ada491a250565b600080600080600086600160a060020a031688600160a060020a03161415610c925760009450849350610d09565b610c9b88611940565b1580610cad5750610cab87611940565b155b15610cbe5760009450849350610d09565b859250610ccc888885611bff565b95509150849050610d06610cf882610cf3670de0b6b3a7640000668e1bc9bf040000611b4f565b611c78565b670de0b6b3a7640000611ca0565b93505b505050935093915050565b600254600160a060020a031681565b600154600160a060020a031681565b600054600160a060020a031681565b60408051348082526020820183815236938301849052600093849384938493849384936004359360243593849386933393600160e060020a03198a35169390928a929091606082018484808284376040519201829003965090945050505050a4610db733600035600160e060020a031916611837565b1515610dfb576040805160e560020a62461bcd02815260206004820152601f60248201526000805160206121b1833981519152604482015290519081900360640190fd5b600160a060020a038c8116908c161415610e99576040805160e560020a62461bcd02815260206004820152604360248201526000805160206121d183398151915260448201527f496e7075747320544f4b454e5f41444452535f53484f554c445f4e4f545f4d4160648201527f5443480000000000000000000000000000000000000000000000000000000000608482015290519081900360a40190fd5b610ea28c611940565b1515610f32576040805160e560020a62461bcd02815260206004820152604360248201526000805160206121d183398151915260448201527f496e70757473204e4f5f455843484e4147455f464f554e445f464f525f534f5560648201527f5243450000000000000000000000000000000000000000000000000000000000608482015290519081900360a40190fd5b610f3b8b611940565b1515610fcb576040805160e560020a62461bcd02815260206004820152604160248201526000805160206121d183398151915260448201527f496e70757473204e4f5f455843484e4147455f464f554e445f464f525f44455360648201527f5400000000000000000000000000000000000000000000000000000000000000608482015290519081900360a40190fd5b898c600160a060020a03166370a082318f6040518263ffffffff1660e060020a0281526004018082600160a060020a0316600160a060020a03168152602001915050602060405180830381600087803b15801561102757600080fd5b505af115801561103b573d6000803e3d6000fd5b505050506040513d602081101561105157600080fd5b505110156110e3576040805160e560020a62461bcd02815260206004820152604560248201526000805160206121d183398151915260448201527f496e7075747320494e53554646494349454e545f42414c414e43455f494e5f4560648201527f5343524f57000000000000000000000000000000000000000000000000000000608482015290519081900360a40190fd5b6040805160e060020a6370a082310281523060048201529051600160a060020a038e16916370a082319160248083019260209291908290030181600087803b15801561112e57600080fd5b505af1158015611142573d6000803e3d6000fd5b505050506040513d602081101561115857600080fd5b50516040805160e060020a6370a082310281523060048201529051919750600160a060020a038d16916370a08231916024808201926020929091908290030181600087803b1580156111a957600080fd5b505af11580156111bd573d6000803e3d6000fd5b505050506040513d60208110156111d357600080fd5b5051604080517fbeabacc8000000000000000000000000000000000000000000000000000000008152600160a060020a038f81166004830152306024830152604482018e90529151929750908f169163beabacc89160648082019260009290919082900301818387803b15801561124957600080fd5b505af115801561125d573d6000803e3d6000fd5b50505050600260009054906101000a9004600160a060020a0316600160a060020a03166306f2bf628d6040518263ffffffff1660e060020a0281526004018082600160a060020a0316600160a060020a03168152602001915050602060405180830381600087803b1580156112d157600080fd5b505af11580156112e5573d6000803e3d6000fd5b505050506040513d60208110156112fb57600080fd5b5051604080517f095ea7b3000000000000000000000000000000000000000000000000000000008152600160a060020a03808416600483015260006024830181905292519397508f169263095ea7b392604480840193602093929083900390910190829087803b15801561136e57600080fd5b505af1158015611382573d6000803e3d6000fd5b505050506040513d602081101561139857600080fd5b50511515611404576040805160e560020a62461bcd02815260206004820152603a602482015260008051602061219183398151915260448201527f744669786564205352435f415050524f56414c5f4641494c4544000000000000606482015290519081900360840190fd5b8b600160a060020a031663095ea7b3858c6040518363ffffffff1660e060020a0281526004018083600160a060020a0316600160a060020a0316815260200182815260200192505050602060405180830381600087803b15801561146757600080fd5b505af115801561147b573d6000803e3d6000fd5b505050506040513d602081101561149157600080fd5b505115156114fd576040805160e560020a62461bcd02815260206004820152603a602482015260008051602061219183398151915260448201527f744669786564205352435f415050524f56414c5f4641494c4544000000000000606482015290519081900360840190fd5b6115088c8c8b611cb5565b6040805160e060020a6370a08231028152306004820152905191945061155a91600160a060020a038f16916370a082319160248083019260209291908290030181600087803b158015610a3957600080fd5b6040805160e060020a6370a0823102815230600482015290519198506115ac91600160a060020a038e16916370a082319160248083019260209291908290030181600087803b158015610abd57600080fd5b97506115b98b8e8a611b5f565b1515611649576040805160e560020a62461bcd028152602060048201526041602482015260008051602061219183398151915260448201527f74466978656420444553545f544f4b454e5f5452414e534645525f4641494c4560648201527f4400000000000000000000000000000000000000000000000000000000000000608482015290519081900360a40190fd5b60008711156116c75761165d8c8e89611b5f565b15156116c7576040805160e560020a62461bcd028152602060048201526024810182905260008051602061219183398151915260448201527f744669786564205352435f544f4b454e5f5452414e534645525f4641494c4544606482015290519081900360840190fd5b8a600160a060020a03168c600160a060020a03168e600160a060020a03167fca2c35f41e3c93e960780ee310865b11d03fc119da35b1e769970a0189da71df8d8d8d8d8a604051808681526020018581526020018481526020018381526020018281526020019550505050505060405180910390a45050505050509550959350505050565b61176233600035600160e060020a031916611837565b15156117a6576040805160e560020a62461bcd02815260206004820152601f60248201526000805160206121b1833981519152604482015290519081900360640190fd5b80600160a060020a0381161515611807576040805160e560020a62461bcd02815260206004820152601860248201527f5574696c733a3a5f20494e56414c49445f414444524553530000000000000000604482015290519081900360640190fd5b506002805473ffffffffffffffffffffffffffffffffffffffff1916600160a060020a0392909216919091179055565b6000600160a060020a0383163014156118525750600161193a565b600154600160a060020a03848116911614156118705750600161193a565b600054600160a060020a0316151561188a5750600061193a565b60008054604080517fb7009613000000000000000000000000000000000000000000000000000000008152600160a060020a038781166004830152306024830152600160e060020a0319871660448301529151919092169263b700961392606480820193602093909283900390910190829087803b15801561190b57600080fd5b505af115801561191f573d6000803e3d6000fd5b505050506040513d602081101561193557600080fd5b505190505b92915050565b6002546040805160e160020a6303795fb1028152600160a060020a0384811660048301529151600093849316916306f2bf6291602480830192602092919082900301818787803b15801561199357600080fd5b505af11580156119a7573d6000803e3d6000fd5b505050506040513d60208110156119bd57600080fd5b5051600160a060020a031615159392505050565b6002546040805160e160020a6303795fb1028152600160a060020a0386811660048301529151600093849384938493849392909216916306f2bf629160248082019260209290919082900301818787803b158015611a2e57600080fd5b505af1158015611a42573d6000803e3d6000fd5b505050506040513d6020811015611a5857600080fd5b50519350839250859150611a6d888884611bff565b95509050600160a060020a03831663ddf7e1a783611aa1610cf885610cf3670de0b6b3a7640000668e1bc9bf040000611b4f565b6001611aaf42611c20611e55565b8c6040518663ffffffff1660e060020a0281526004018086815260200185815260200184815260200183815260200182600160a060020a0316600160a060020a0316815260200195505050505050602060405180830381600087803b158015611b1757600080fd5b505af1158015611b2b573d6000803e3d6000fd5b505050506040513d6020811015611b4157600080fd5b509498975050505050505050565b8082038281111561193a57600080fd5b604080517fa9059cbb000000000000000000000000000000000000000000000000000000008152600160a060020a03848116600483015260248201849052915160009286169163a9059cbb91604480830192602092919082900301818787803b158015611bcb57600080fd5b505af1158015611bdf573d6000803e3d6000fd5b505050506040513d6020811015611bf557600080fd5b5051949350505050565b6000806000806000806000806000806000611c1a8e8e611e65565b929b50909950975095508b9450849350611c35848a8a612081565b9250829150611c45828888612081565b9050809a50611c65611c5f8c670de0b6b3a7640000611c78565b86611ca0565b9950505050505050505050935093915050565b6000811580611c95575050808202828282811515611c9257fe5b04145b151561193a57600080fd5b60008183811515611cad57fe5b049392505050565b6002546040805160e160020a6303795fb1028152600160a060020a03868116600483015291516000938493849384938493849316916306f2bf6291602480830192602092919082900301818787803b158015611d1057600080fd5b505af1158015611d24573d6000803e3d6000fd5b505050506040513d6020811015611d3a57600080fd5b50519450849350869250611d4f8989856120d3565b9097509092509050600160a060020a03841663b040d54584611d87610cf886610cf3670de0b6b3a7640000668e1bc9bf040000611e55565b611da8610cf886610cf3670de0b6b3a76400006702c68af0bb140000611e55565b611db442611c20611e55565b8d6040518663ffffffff1660e060020a0281526004018086815260200185815260200184815260200183815260200182600160a060020a0316600160a060020a0316815260200195505050505050602060405180830381600087803b158015611e1c57600080fd5b505af1158015611e30573d6000803e3d6000fd5b505050506040513d6020811015611e4657600080fd5b50959998505050505050505050565b8082018281101561193a57600080fd5b6002546040805160e160020a6303795fb1028152600160a060020a03858116600483015291516000938493849384938493849316916306f2bf6291602480830192602092919082900301818787803b158015611ec057600080fd5b505af1158015611ed4573d6000803e3d6000fd5b505050506040513d6020811015611eea57600080fd5b50516002546040805160e160020a6303795fb1028152600160a060020a038b8116600483015291519395509116916306f2bf62916024808201926020929091908290030181600087803b158015611f4057600080fd5b505af1158015611f54573d6000803e3d6000fd5b505050506040513d6020811015611f6a57600080fd5b50516040805160e060020a6370a08231028152600160a060020a0385811660048301529151929350908a16916370a08231916024808201926020929091908290030181600087803b158015611fbe57600080fd5b505af1158015611fd2573d6000803e3d6000fd5b505050506040513d6020811015611fe857600080fd5b50516040805160e060020a6370a08231028152600160a060020a0384811660048301819052925193995080861631985091319650908916916370a08231916024808201926020929091908290030181600087803b15801561204857600080fd5b505af115801561205c573d6000803e3d6000fd5b505050506040513d602081101561207257600080fd5b50519598949750929550505050565b600080600061209b6120938786611c78565b6103e5611c78565b91506120bd6120ac866103e8611c78565b6120b8886103e5611c78565b611e55565b90506120c98282611ca0565b9695505050505050565b6000806000806000806000806000806000806120ef8f8f611e65565b929b50909950975095508c945084935061210a848888612151565b925082915061211a828a8a612151565b9050809b5061213a61213486670de0b6b3a7640000611c78565b8d611ca0565b9a5082995050505050505050505093509350939050565b600080600061216b6121638787611c78565b6103e8611c78565b915061217a6120938588611b4f565b90506120c96121898383611ca0565b6001611e555600556e6973776170436f6e6e6563746f723a3a7472616465576974684f757470754453417574683a3a5f2053454e4445525f4e4f545f415554484f52495a454400556e6973776170436f6e6e6563746f723a3a5f76616c69646174655472616465a165627a7a7230582040f8aa5c0a2dc6569b89000d80665c207d0f09446f8aa71370076fb74765182e0029",
  "source": "pragma solidity 0.4.24;\n\nimport \"./lib/uniswap/UniswapFactory.sol\";\nimport \"./lib/uniswap/UniswapExchange.sol\";\nimport \"./lib/dappsys/DSThing.sol\";\nimport \"./lib/tokens/ERC20.sol\";\nimport \"./Escrow.sol\";\nimport \"./Utils.sol\";\nimport \"./ExchangeConnector.sol\";\n\n// TODO: handle liquidation fee, if necessary\n/**\n * @author Rohit Soni (rohit@nuofox.com)\n */\n \ncontract UniswapConnector is ExchangeConnector, DSThing, Utils {\n    UniswapFactory public uniswapFactory;\n\n    uint constant internal TOKEN_ALLOWED_SLIPPAGE = 4 * (10**16);\n    uint constant internal DEADLINE_DURATION = 2 * 60 * 60; // 2 hr\n\n    constructor(UniswapFactory _uniswapFactory) public {\n        uniswapFactory = _uniswapFactory;\n    }\n\n    function setUniswapFactory(UniswapFactory _uniswapFactory) \n        public\n        auth\n        addressValid(_uniswapFactory)\n    {\n        uniswapFactory = _uniswapFactory;\n    }\n\n    event LogTrade\n    (\n        address indexed _from,\n        address indexed _srcToken,\n        address indexed _destToken,\n        uint _srcTokenValue,\n        uint _maxDestTokenValue,\n        uint _destTokenValue,\n        uint _srcTokenValueLeft, \n        uint _exchangeRate\n    );\n\n    \n    function tradeWithInputFixed\n    (   \n        Escrow _escrow,\n        address _srcToken,\n        address _destToken,\n        uint _srcTokenValue\n    )\n        public    \n        note\n        auth\n        returns (uint _destTokenValue, uint _srcTokenValueLeft)\n    {      \n        require(_srcToken != _destToken, \"UniswapConnector::_validateTradeInputs TOKEN_ADDRS_SHOULD_NOT_MATCH\");\n        require(_isExchangeAvailable(_srcToken), \"UniswapConnector::_validateTradeInputs NO_EXCHNAGE_FOUND_FOR_SOURCE\");\n        require(_isExchangeAvailable(_destToken), \"UniswapConnector::_validateTradeInputs NO_EXCHNAGE_FOUND_FOR_DEST\");\n        require(ERC20(_srcToken).balanceOf(_escrow) >= _srcTokenValue, \"UniswapConnector::_validateTradeInputs INSUFFICIENT_BALANCE_IN_ESCROW\");\n\n        uint initialSrcTokenBalance = ERC20(_srcToken).balanceOf(this);\n        uint initialDestTokenBalance = ERC20(_destToken).balanceOf(this);\n        _escrow.transfer(_srcToken, this, _srcTokenValue);\n\n        address uniswapExchangeAddr = uniswapFactory.getExchange(_srcToken);\n        \n        ERC20(_srcToken).approve(uniswapExchangeAddr, 0);\n        ERC20(_srcToken).approve(uniswapExchangeAddr, _srcTokenValue);\n        \n        uint exchangeRate = _performTradeWithInputFixed(_srcToken, _destToken, _srcTokenValue);\n\n        _srcTokenValueLeft = sub(ERC20(_srcToken).balanceOf(this), initialSrcTokenBalance);\n        _destTokenValue = sub(ERC20(_destToken).balanceOf(this), initialDestTokenBalance);\n\n        _transfer(_destToken, _escrow, _destTokenValue);\n\n        if (_srcTokenValueLeft > 0) {\n            _transfer(_srcToken, _escrow, _srcTokenValueLeft);\n        }\n        \n        emit LogTrade(_escrow, _srcToken, _destToken, _srcTokenValue, _destTokenValue, _destTokenValue, _srcTokenValueLeft, exchangeRate);\n    }\n\n    function tradeWithOutputFixed\n    (   \n        Escrow _escrow,\n        address _srcToken,\n        address _destToken,\n        uint _srcTokenValue,\n        uint _maxDestTokenValue\n    )\n        public\n        note\n        auth\n        returns (uint _destTokenValue, uint _srcTokenValueLeft)\n    {   \n\n        require(_srcToken != _destToken, \"UniswapConnector::_validateTradeInputs TOKEN_ADDRS_SHOULD_NOT_MATCH\");\n        require(_isExchangeAvailable(_srcToken), \"UniswapConnector::_validateTradeInputs NO_EXCHNAGE_FOUND_FOR_SOURCE\");\n        require(_isExchangeAvailable(_destToken), \"UniswapConnector::_validateTradeInputs NO_EXCHNAGE_FOUND_FOR_DEST\");\n        require(ERC20(_srcToken).balanceOf(_escrow) >= _srcTokenValue, \"UniswapConnector::_validateTradeInputs INSUFFICIENT_BALANCE_IN_ESCROW\");\n\n        uint initialSrcTokenBalance = ERC20(_srcToken).balanceOf(this);\n        uint initialDestTokenBalance = ERC20(_destToken).balanceOf(this);\n        _escrow.transfer(_srcToken, this, _srcTokenValue);\n\n        address uniswapExchangeAddr = uniswapFactory.getExchange(_srcToken);\n\n        require(ERC20(_srcToken).approve(uniswapExchangeAddr, 0), \"UniswapConnector::tradeWithOutputFixed SRC_APPROVAL_FAILED\");\n        require(ERC20(_srcToken).approve(uniswapExchangeAddr, _srcTokenValue), \"UniswapConnector::tradeWithOutputFixed SRC_APPROVAL_FAILED\");\n\n        uint exchangeRate = _performTradeWithOutputFixed(_srcToken, _destToken, _maxDestTokenValue);\n\n        _srcTokenValueLeft = sub(ERC20(_srcToken).balanceOf(this), initialSrcTokenBalance);\n        _destTokenValue = sub(ERC20(_destToken).balanceOf(this), initialDestTokenBalance);\n\n        require(_transfer(_destToken, _escrow, _destTokenValue), \"UniswapConnector::tradeWithOutputFixed DEST_TOKEN_TRANSFER_FAILED\");\n\n        if(_srcTokenValueLeft > 0){\n            require(_transfer(_srcToken, _escrow, _srcTokenValueLeft), \"UniswapConnector::tradeWithOutputFixed SRC_TOKEN_TRANSFER_FAILED\");\n        }\n\n        emit LogTrade(_escrow, _srcToken, _destToken, _srcTokenValue, _maxDestTokenValue, _destTokenValue, _srcTokenValueLeft, exchangeRate);\n    } \n    \n    function getExpectedRate(address _srcToken, address _destToken, uint _srcTokenValue) \n        public\n        view\n        returns(uint _expectedRate, uint _slippageRate)\n    {\n        if(address(_srcToken) == address(_destToken)) {\n            return (0, 0);\n        }\n\n        if(!_isExchangeAvailable(_srcToken) || !_isExchangeAvailable(_destToken)) {\n            return (0, 0);\n        }\n\n        uint inputValue = _srcTokenValue; \n        uint outputValue; \n        uint exchangeRate;\n\n        (outputValue, exchangeRate) = _calcValuesForTokenToTokenInput(_srcToken, _destToken, inputValue);\n        // todo: make slippage 0 if its too low, define a low value\n        _expectedRate = exchangeRate;\n        _slippageRate = div(mul(exchangeRate, sub(WAD, TOKEN_ALLOWED_SLIPPAGE)), WAD);\n    }\n\n    function isTradeFeasible(address _srcToken, address _destToken, uint _srcTokenValue)\n        public\n        view\n        returns(bool)\n    {\n        uint slippageRate; \n\n        (, slippageRate) = getExpectedRate(\n            _srcToken,\n            _destToken,\n            _srcTokenValue\n        );\n\n        return slippageRate != 0;\n    }\n    \n    function _isExchangeAvailable(address _token)\n        internal\n        view\n        returns(bool)\n    {\n        address uniswapExchangeAddr = uniswapFactory.getExchange(_token);\n        return (uniswapExchangeAddr != address(0));\n    }\n\n    function _performTradeWithInputFixed(\n        address _srcToken,\n        address _destToken,\n        uint _srcTokenValue\n    )\n        internal\n        returns (uint _exchangeRate)\n    {\n        address uniswapExchangeAddr = uniswapFactory.getExchange(_srcToken);\n        UniswapExchange exchange = UniswapExchange(uniswapExchangeAddr);\n\n        uint inputValue = _srcTokenValue;\n        uint outputValue;\n\n        (outputValue, _exchangeRate) = _calcValuesForTokenToTokenInput(_srcToken, _destToken, inputValue);\n        \n        exchange.tokenToTokenSwapInput(\n            inputValue,\n            div(mul(outputValue, sub(WAD, TOKEN_ALLOWED_SLIPPAGE)), WAD),\n            1,\n            add(now,DEADLINE_DURATION),\n            _destToken\n        );\n\n    }\n\n    function _performTradeWithOutputFixed(\n        address _srcToken,\n        address _destToken,\n        uint _maxDestTokenValue\n    )\n        internal\n        returns (uint _exchangeRate)\n    {\n        address uniswapExchangeAddr = uniswapFactory.getExchange(_srcToken);\n        UniswapExchange exchange = UniswapExchange(uniswapExchangeAddr);\n\n        uint outputValue = _maxDestTokenValue;\n        uint inputValue; \n        uint inputValueB;\n   \n        (inputValue, _exchangeRate, inputValueB) = _calcValuesForTokenToTokenOutput(_srcToken, _destToken, outputValue);\n        \n        exchange.tokenToTokenSwapOutput(\n            outputValue,\n            div(mul(inputValue, add(WAD, TOKEN_ALLOWED_SLIPPAGE)),WAD),\n            div(mul(inputValueB, add(WAD, 20 * (10**16))),WAD),\n            add(now,DEADLINE_DURATION),\n            _destToken\n        );\n    }\n\n    function _calcValuesForTokenToTokenOutput\n    (\n        address _srcToken,\n        address _destToken,\n        uint _maxDestTokenValue\n    )\n        internal\n        view\n        returns\n        (\n            uint _inputValue,\n            uint _exchangeRate,\n            uint _inputValueB\n        )\n    {\n        uint inputReserveA;\n        uint outputReserveA;\n        uint inputReserveB;\n        uint outputReserveB;\n\n        (inputReserveA, outputReserveA, inputReserveB, outputReserveB) = _fetchReserveValues(_srcToken, _destToken);\n\n        uint outputValue = _maxDestTokenValue;\n        uint outputAmountB = _maxDestTokenValue;\n        uint inputAmountB = _calculateEtherTokenInput(outputAmountB, inputReserveB, outputReserveB);\n\n        // redundant variable for readability of the formala\n        // inputAmount from the first swap becomes outputAmount of the second swap\n        uint outputAmountA = inputAmountB;\n        uint inputAmountA = _calculateEtherTokenInput(outputAmountA, inputReserveA, outputReserveA);\n\n        _inputValue = inputAmountA;\n        _exchangeRate = div(mul(outputValue, WAD), _inputValue);\n        _inputValueB = inputAmountB;\n    }\n \n    function _calcValuesForTokenToTokenInput\n    (\n        address _srcToken,\n        address _destToken,\n        uint _srcTokenValue\n    ) \n        internal\n        view\n        returns\n        (\n            uint _outputValue,\n            uint _exchangeRate\n        )\n    {   \n        uint inputReserveA;\n        uint outputReserveA;\n        uint inputReserveB;\n        uint outputReserveB;\n\n        (inputReserveA, outputReserveA, inputReserveB, outputReserveB) = _fetchReserveValues(_srcToken, _destToken);\n\n        uint inputValue = _srcTokenValue;\n        uint inputAmountA = inputValue;\n\n        uint outputAmountA = _calculateEtherTokenOutput(inputAmountA, inputReserveA, outputReserveA);\n\n        // redundant variable for readability of the formala\n        // outputAmount from the first swap becomes inputAmount of the second swap\n        uint inputAmountB = outputAmountA;\n        uint outputAmountB = _calculateEtherTokenOutput(inputAmountB, inputReserveB, outputReserveB);\n\n        _outputValue = outputAmountB;\n        _exchangeRate = div(mul(_outputValue, WAD), inputValue);\n    }\n\n    function _fetchReserveValues(address _srcToken, address _destToken)\n        internal\n        view\n        returns(\n            uint _inputReserveA,\n            uint _outputReserveA,\n            uint _inputReserveB,\n            uint _outputReserveB\n        )\n    {\n        address exchangeAddrA = uniswapFactory.getExchange(_srcToken);\n        address exchangeAddrB = uniswapFactory.getExchange(_destToken);\n\n        _inputReserveA = ERC20(_srcToken).balanceOf(exchangeAddrA);\n        _outputReserveA = address(exchangeAddrA).balance;\n\n        _inputReserveB = address(exchangeAddrB).balance;\n        _outputReserveB = ERC20(_destToken).balanceOf(exchangeAddrB);\n    }\n\n    function _calculateEtherTokenOutput(uint _inputAmount, uint _inputReserve, uint _outputReserve) \n        internal\n        pure\n        returns (uint)\n    {\n        uint numerator = mul(mul(_inputAmount, _outputReserve), 997);\n        uint denominator = add(mul(_inputReserve,1000), mul(_inputAmount, 997));\n\n        return div(numerator, denominator);\n    }\n\n    function _calculateEtherTokenInput(uint _outputAmount, uint _inputReserve, uint _outputReserve)\n        internal\n        pure\n        returns (uint)\n    {\n        uint numerator = mul(mul(_outputAmount, _inputReserve), 1000);\n        uint denominator = mul(sub(_outputReserve, _outputAmount), 997);\n\n        return add(div(numerator, denominator), 1);\n    }\n\n    function _transfer\n    (\n        address _token,\n        address _to,\n        uint _value\n    )\n        internal\n        returns (bool)\n    {\n        return ERC20(_token).transfer(_to, _value);\n    }\n}",
  "sourcePath": "/home/amxx/Work/subgraphs/nuo-audited-contracts/contracts/UniswapConnector.sol",
  "compiler": {
    "name": "solc",
    "version": "0.4.24+commit.e67f0147.Emscripten.clang"
  },
  "schemaVersion": "2.0.1",
  "updatedAt": "2019-09-23T18:55:29.348Z"
}